:020000040800F2
:10000000C00C00209D010008F72C00080327000801
:10001000F52C0008B5080008A5360008000000000F
:10002000000000000000000000000000FB2C0008A1
:100030001D0A000800000000F92C0008FD2C000833
:10004000B7010008B7010008B7010008B7010008B0
:10005000B7010008B7010008B7010008B7010008A0
:10006000B7010008B7010008B7010008B701000890
:10007000B9080008B7010008B7010008B701000877
:10008000C5080008B7010008B7010008B70100085B
:10009000B7010008B7010008B7010008B701000860
:1000A000B7010008A12D0008B7010008B70100083A
:1000B000AD2D0008B92D0008C52D0008B7010008B6
:1000C000B7010008B7010008B7010008B701000830
:1000D000B7010008053500081D3500083535000852
:1000E000B7010008B7010008B7010008B701000810
:1000F000DD2D0008B7010008B7010008B7010008AE
:10010000B7010008B7010008D12D0008B7010008A9
:10011000B7010008B7010008B7010008B7010008DF
:10012000B7010008D1080008DD080008B701000881
:10013000B7010008B7010008B7010008B7010008BF
:10014000B7010008B7010008B7010008B7010008AF
:10015000B7010008B7010008B70100084D350008D5
:10016000B7010008B7010008B7010008B70100088F
:10017000B7010008B7010008B7010008000000003F
:10018000B7010008B7010008DFF80CD000F032FB1F
:100190000048004745490008C00C00200648804739
:1001A00006480047FEE7FEE7FEE7FEE7FEE7FEE75C
:1001B000FEE7FEE7FEE7FEE7912D00088901000853
:1001C0002DE9F05F0546002092469B46884606468C
:1001D000814640241BE0284641464746224600F01F
:1001E00072FA53465A46C01A914110D31146184626
:1001F000224600F059FA2D1A67EB01084F462246B5
:100200000120002100F050FA17EB00094E41201E9A
:10021000A4F10104DFDC484631462A464346BDE8E6
:10022000F09F40EA01039B0703D009E008C9121FB1
:1002300008C0042AFAD203E011F8013B00F8013BA0
:10024000521EF9D27047D2B201E000F8012B491ECC
:10025000FBD270470022F6E710B513460A46044663
:100260001946FFF7F0FF204610BD2DE9FE4F8046EE
:1002700081EA0300C00F0C46009021F0004123F0FA
:100280000045B8EB0200A94105D240462146904600
:100290001C460B46024623F00040104347D0270D72
:1002A000C7F30A00C3F30A510290401A0190402894
:1002B0006BDAC3F3130040F4801B0098924620B120
:1002C0000023D2EB030A63EB0B0B01985946C0F1F4
:1002D0004002504600F0E8F906460D4650465946A1
:1002E000019A00F000FA10EB08006141002487EA4F
:1002F000115284EAE7731A4340D0009A62B3019A1C
:10030000012A4FEA075215DC001B61EB02014FF096
:10031000004202EA0752CDE90042001C41F580117B
:1003200032462B4600F000FA03B0BDE8F08F40469D
:100330002146F9E7001B61EB0201001C41F5801327
:1003400000185B412018A2F5001747EB030140EAB3
:10035000D570B6196D4111E06D084FEA360645EAD1
:10036000C0754FEA0752001B61EB0201001C41F50A
:10037000801149084FEA30000019514132462B469E
:1003800003B0BDE8F04F00F0C0B900980122400072
:100390000023D0EB020263EBE073009821464FEAA2
:1003A000E074B8EB000061EB0401E9E783F000437F
:1003B0005BE781F0004158E72DE9FE4F81EA030435
:1003C00004F0004421F0004100944FF0000B23F0B2
:1003D000004350EA01045ED052EA03045BD0C3F349
:1003E0000A54C1F30A552C44A4F2F3340194A0FB3F
:1003F0000254C1F3130141F48011C3F3130343F416
:10040000801301FB024400FB034E840A970A44EA6E
:10041000815447EA8357A4FB076802958D0A05FBC0
:1004200007854FEA932C04FB0C542705029D4FEAE5
:10043000065847EA1637B5EB08056EEB070C870E32
:10044000920E47EA811742EA8312A7FB0201B6EB3C
:100450000B0164EB00042B0D43EA0C335E1844EBF4
:100460001C50DA465146E7FB0201C5F313044FEA7C
:100470000B3343EA14534FEA0432019C43EA060368
:10048000A4F10C040294009CCDE900B400F04CF9F6
:1004900003B0BDE8F08F00200146F9E72DE9F04DEB
:1004A00081EA030404F0004B21F0004514464FF0AC
:1004B000000A23F0004150EA050220D054EA01026C
:1004C0001DD0C5F30A570246C5F31303C1F3130049
:1004D000C1F30A5640F4801543F48013A7EB0608D5
:1004E000101BD64608F2FD3873EB050002D308F165
:1004F000010801E092185B41B8F1000F03DA002017
:100500000146BDE8F08D00204FF480110646844678
:100510000EE0171B73EB050705D3121B63EB0503F6
:1005200006434CEA010C49084FEA300092185B413F
:1005300050EA0107EDD152EA030012D082EA04002A
:1005400083EA0501084305D0101BAB4106D2012206
:10055000002306E000224FF0004302E06FF00102AA
:1005600053101AEB06004CEB085110EB0A0041EB5C
:100570000B01BDE8F04D00F0C8B80EB5C10F80EA20
:10058000E0700844CA07002140F233438DE80E00B2
:100590000A460B4600F0C8F803B000BD0EB540F2A5
:1005A000334102910021CDE900110A460B4600F0CB
:1005B000BBF803B000BD3EB5CA17CB0F00245040B6
:1005C0005140C0186141DA0740F233430094CDE94D
:1005D00001232246234600F0A7F803B030BD70B5D2
:1005E000C1F30A5201F000450024C1F3130140F2A7
:1005F000FF3341F480119A4201DA002070BD40F2CD
:1006000033439A42A2F2334203DC524200F05BF8D9
:1006100000E090402C43F1D0404270BD30B5041E44
:1006200071F1000404DB4FF00044404264EB01012F
:10063000141E73F1000405DB1C464FF000435242C8
:1006400063EB04038B4208BF824230BD30B5041E09
:1006500071F1000404DB4FF00044404264EB0101FF
:10066000141E73F1000405DB1C464FF00043524298
:1006700063EB0403994208BF904230BD30B50B468E
:10068000014600202022012409E021FA02F59D42C2
:1006900005D303FA02F5491B04FA02F52844151E96
:1006A000A2F10102F1DC30BD202A04DB203A00FA7D
:1006B00002F1002070479140C2F1200320FA03F3B9
:1006C000194390407047202A04DB203A21FA02F0B7
:1006D0000021704721FA02F3D040C2F1200291407C
:1006E000084319467047202A06DBCB17203A41FA07
:1006F00002F043EAE07306E041FA02F3D040C2F1AF
:100700002002914008431946704710B5141E73F13A
:10071000000408DA401C41F1000192185B411A43C1
:1007200001D120F0010010BD2DE9F04D92469B460D
:1007300011B1B1FA81F202E0B0FA80F220329046B3
:10074000FFF7B2FF04460F4640EA0A0041EA0B01F8
:1007500053465A46084313D0114653EA010019D0B4
:10076000C8F140025046FFF7AEFF05460E46504620
:1007700059464246FFF798FF084305D0012004E0A0
:1007800020463946BDE8F08D0020054346EAE07674
:100790002C4337430A986305E40AA0EB08000022C3
:1007A000FD0A44EA47540A3002D500200146E9E731
:1007B000010510196941DDE9084500196941BDE8E5
:1007C000F04DA2E7C1F30A52C1F3130140F2FF3327
:1007D00041F480119A4202DA00200146704740F24B
:1007E00033439A42A2F2334202DC5242FFF76BBF1C
:1007F000FFF75ABF064C074D06E0E06840F00103E2
:1008000094E8070098471034AC42F6D3FFF7C0FCD9
:10081000786500089865000838B5044600681D49E9
:10082000884209D10168C943C90605D401684068F6
:100830000090194802F096FE18492068884209D1B4
:100840000168C943C90605D401684068009014488E
:1008500002F088FE13492068884209D10168C94323
:10086000C90605D40168406800900F4802F07AFE7E
:100870000E49206888420BD10168C943C90607D4D4
:10088000016840680090BDE83840094802F06ABE3F
:1008900038BD000000100140200600200044004048
:1008A0006806002000480040B00600200014014007
:1008B000F8060020FEE70000014800F00DB9000036
:1008C00000080020014800F007B90000A007002040
:1008D000014800F001B9000060080020014800F064
:1008E000FBB800004007002001681823CAB2103A84
:1008F000B2FBF3F2054B6FF30901032A9B5CC3655E
:1009000000D9091D81650846704700005865000838
:1009100010B5014600208B698A6A4FF0C07453B14C
:10092000B3F5005F15D072B1012A0CD0022A0AD0AB
:10093000032A09D104E01AB1012A06D0022A03D100
:10094000C96AC90100D5012010BDC96AA142FAD007
:1009500010BD002AF7D0012AF2D0022AF3D0032AD0
:10096000F3D010BD30B50468256825F480252560D6
:10097000046863608368402B036803D09960006853
:10098000C26030BD9A600068C16030BD10B50446D9
:1009900000681C49884208D1C16841F01001C1605B
:1009A00032221949204601F04BFE1849206888423E
:1009B00009D1C16841F01001C1601349322264318C
:1009C000204601F03DFE12492068884209D1C168E5
:1009D00041F01001C1600C493222C831204601F0BB
:1009E0002FFE0C49206888420AD1C16841F01001ED
:1009F000C1602046BDE810403222074901F020BE08
:100A000010BD000000100140E00200200044004042
:100A100000480040001401400C040020704772B6EA
:100A2000FEE72DE9F0410446876D00F0D7FA06464F
:100A300094F835000025022806D08020606584F8EF
:100A400034500120BDE8F0812068016821F01601D2
:100A500001602068416921F080014161206C08B982
:100A6000A06C20B12068016821F0080101602068B5
:100A7000016821F0010101600CE000F0AFFA801B79
:100A8000052807D920206065032084F8350084F804
:100A90003450D7E720680068C007EED194F85C10A6
:100AA0003F208840B860012084F8350084F8345035
:100AB0000020C7E790F83510022903D08021416556
:100AC00001207047052180F835100068016821F089
:100AD00001010160002070472DE9F84304464FF002
:100AE0000009CDF8009063484FF41651A56D0068D9
:100AF000B0FBF1F72E6894F85C10082000FA01F1C1
:100B000031420FD021680A6852070BD50A6822F0DB
:100B100004020A6094F85C108840A860606D40F0A0
:100B20000100606594F85C104FF0010808FA01F0CC
:100B3000304208D021684969090604D5A860606D73
:100B400040F00200606594F85C1004208840304258
:100B500008D021680968890704D5A860606D40F055
:100B60000400606594F85C1010208840304218D072
:100B700021680968090714D5A8602068016849033D
:100B800004D50068000308D5A16C07E00168C90519
:100B900003D4016821F008010160216C09B12046ED
:100BA000884794F85C1020208840304231D021687A
:100BB0000968C9062DD5A86094F835000528206875
:100BC000016806D0490347D5006800031DD4616C55
:100BD0001CE021F0160101602068416921F08001CC
:100BE0004161206C08B9A06C20B12068016821F037
:100BF0000801016094F85C103F208840A86084F8E8
:100C0000358084F83490216D1FE0E16B09B12046F6
:100C10008847606D00282BD0606DC00714D0052078
:100C200084F835002068016821F001010160009816
:100C3000401C0090B84203D820680068C007F6D175
:100C400084F8358084F83490E16C002910D001B02C
:100C50002046BDE8F04308470168C905D5D40168BE
:100C600021F01001016084F8358084F83490CCE7DD
:100C7000BDE8F8839C0000202DE9F041044600F017
:100C8000ADF906465CB1022084F83500002584F8F1
:100C900034502068016821F0010101600DE001205D
:100CA000BDE8F08100F09AF9801B052805D92020C5
:100CB0006065032084F83500F2E720680068C0070B
:100CC000F0D12268116820480140D4E9010318439B
:100CD000D4E903363343184363691843A3691843BF
:100CE000E3691843236A18430843616A042903D15E
:100CF000D4E90B1319430843106020684069666A01
:100D000020F0070130460E43012704280CD1A06AC9
:100D10000643E06A40B12046FFF7FAFD20B14020CB
:100D2000606584F83570BAE7206846612046FFF7B1
:100D3000DBFD94F85C203F2191408160656584F87B
:100D400035700020ACE700003F8010F02DE9F04145
:100D50000446866D90F83400002501280DD001204E
:100D600084F8340094F835700020012F07D084F8FF
:100D7000340002252846BDE8F0810220FBE7022767
:100D800084F8357060652046FFF7ECFD94F85C1040
:100D90003F208840B0602068016841F01601016082
:100DA000206C20B12068016841F0080101602068D2
:100DB000016841F001010160DCE7000070B5044604
:100DC00000F00CF90546601C02D004480078044489
:100DD00000F004F9401BA042FAD370BD900000203F
:100DE0002DE9F84FDFF8BCA10022012503264FF0C2
:100DF0000F090AF1040BAAF1040E00BF0B6805FAF3
:100E000002F42340A34270D10F7907F00307012FAA
:100E100001D0022F16D187684FEA420806FA08FC73
:100E200027EA0C07D1F80CC00CFA08FC4CEA070CB6
:100E3000C0F808C04768A7430C79C4F30014944075
:100E40003C4344600C79E443A4070AD0C4684FEAE9
:100E5000420C06FA0CF7BC438F6807FA0CF72743DD
:100E6000C7600C7904F00304022C12D1D40800EB03
:100E7000840CDCF820405707FF0E09FA07F824EA33
:100E80000804D1F8108008FA07F848EA0408CCF8FA
:100E9000208004684FEA420C06FA0CF7BC430F7935
:100EA00007F0030707FA0CF7274307604C6814F4B0
:100EB000403F70D03C4C276847F480472760246847
:100EC00022F0030704F480440094384C07EB040C30
:100ED000DCF8084897074FEA177809FA08F7BC4387
:100EE000334FB84202D1002724E054E0314FB842DA
:100EF00001D101271EE0304FB84201D1022719E08D
:100F00002E4FB84201D1032714E02D4FB84201D132
:100F100004270FE02B4FB84201D105270AE02A4FE2
:100F2000B84201D1062705E0284FB84201D1072772
:100F300000E0082707FA08F72743CCF80878DAF822
:100F400000405746D1F804C09C435FEACC2C00D542
:100F50001C433C60DBF800405F46D1F804C09C4372
:100F60005FEA8C2C00D51C433C60DEF800407746DD
:100F7000D1F804C09C435FEA8C3C00D51C433C6024
:100F8000084F083F3C68D1F804C09C435FEACC3C62
:100F900000D51C433C60521C102AFFF42FAFBDE863
:100FA000F88F0000083C0140443802400030014006
:100FB000000002400004024000080240000C024011
:100FC000001002400014024000180240001C0240C1
:100FD0000AB1816170470904FBE70000014880689D
:100FE0007047000090000020024881680278114498
:100FF00081607047900000200B4810B5016841F4F3
:1010000000710160016841F480610160016841F490
:1010100080710160032000F06FF80F2000F006F8E7
:1010200000F024F8002010BD003C024070B50D4DCA
:1010300004464FF47A712878B1FBF0F00A49096848
:10104000B1FBF0F000F00CFB48B9102C07D20022E5
:101050002146501E00F030F800206C6070BD012069
:1010600070BD0000900000209C0000200A4808B5D8
:10107000016841F480410160006800F48040009004
:101080000548001F016841F080510160006800F0D0
:101090008050009008BD000044380240002809DB61
:1010A00000F01F02012191404009800000F1E02082
:1010B000C0F8001170470000F0B40E4B1B680C46DE
:1010C000C3F30223C3F10705042D00D90425191D1C
:1010D000072901D2002300E0DB1E012606FA05F1F4
:1010E000491E214099409E40761E16403143F0BC77
:1010F00002F0EABA0CED00E0064900F007020868C9
:101100004FF6FF03184040EA0220034A10430860EC
:10111000704700000CED00E00000FA052DE9F047F3
:101120000E46050065D0DFF81481D8F80000F7B24C
:1011300000F00700B04207D288F80070D8F800002D
:1011400000F00700B04254D128683D4C810712D509
:10115000400703D5206840F4E0502060287800075D
:1011600003D5206840F4604020602068A96820F022
:10117000F000084320602878C0072DD03049686807
:101180000839012812D0022813D0032811D0096889
:10119000890700292DDA216821F00301014321602C
:1011A000FFF71CFF814641F2883A0EE00968890387
:1011B000EFE709688901ECE7FFF710FFA0EB0901F1
:1011C000514502D90320BDE8F0872068696800F026
:1011D0000C00B0EB810FEFD1D8F80010404601F0C1
:1011E0000701B14207D90770006800F00700B0425C
:1011F00001D00120E7E72878400705D52068E96895
:1012000020F4E050084320602878000706D52068C5
:10121000296920F4604040EAC100206000F038F8FD
:101220002168084AC1F30311515CC84006490860AF
:1012300006480068FFF7FAFE0020C4E7003C0240C1
:1012400008380240606500089C00002094000020DF
:101250000448054900680968044AC1F38221515CC9
:10126000C84070479C0000200838024070650008A4
:101270000448054900680968044AC1F34231515CD9
:10128000C84070479C000020083802407065000884
:10129000154810B5006810F00C02144813D014491A
:1012A000042A0FD0082A0ED10F4C241F226823686D
:1012B00002F03F025B0207D52068C0F38810A0FB54
:1012C000010106E0084610BD2168C1F38811A1FBA9
:1012D00000010023FEF774FF2168C1F30141491C9E
:1012E0004900B0FBF1F010BD083802400024F400C2
:1012F00040787D012DE9F84F04006ED02078DFF8AA
:101300004C93C007A9F104054AD009F10400016813
:10131000C1F38101012908D00068C0F381000228CF
:101320000AD1D9F80000400206D52868800337D5D5
:1013300060680028E1D033E06068B0F5803F10D0ED
:10134000B0F5A02F286810D020F4803028602868DD
:1013500020F4802028606068A8B1FFF73FFE0646B1
:101360000DE0286840F48030F4E740F480202860E5
:10137000F7E700BFFFF732FE801B642873D82868A8
:101380008003F7D50CE0FFF729FE064605E000BF15
:10139000FFF724FE801B6428F0D828688003F7D468
:1013A0002078DFF8AC8280074FF0000A3ED5A748CE
:1013B000001D016811F00C0F08D00068C0F3810017
:1013C00002280BD1D9F80000400207D42868800712
:1013D00016D5E068012800D112E033E1E068B8B129
:1013E0000120C8F80000FFF7F9FD064605E000BF40
:1013F000FFF7F4FD801B0228C0D828688007F7D5C6
:101400002868216920F0F80040EAC10028600DE05A
:10141000C8F800A0FFF7E2FD064604E0FFF7DEFD96
:10142000801B02281FD828688007F7D4207800077F
:1014300022D5864F87486169703771B101210160FB
:10144000FFF7CCFD064604E0FFF7C8FD801B02282D
:1014500009D838688007F7D50EE0C0F800A0FFF77C
:10146000BDFD064605E082E0FFF7B8FD801B0228BF
:101470007DD838688007F7D42078400768D5DFF832
:10148000CCB100270BF13C0BDBF80000C0000BD403
:10149000DBF8001041F08051CBF80010DBF80000C1
:1014A000012700F0805000906B4E3068C00510D4CA
:1014B000306840F480703060FFF790FD009005E0E8
:1014C000FFF78CFD0099401A022850D83068C005FB
:1014D000F6D55E4EA0686C3601280FD0052830681E
:1014E00010D020F001003060306820F0040030603F
:1014F000A068B8B1FFF772FD00900FE0306840F0CF
:101500000100F4E740F004003060F7E7FFF766FD04
:101510000099411A41F28830814266D830688007CC
:10152000F4D50EE0FFF75AFD009007E0FFF756FDF7
:101530000099411A41F28830814256D830688007BC
:10154000F4D42FB1DBF8001021F08051CBF800105B
:10155000A069C8B33D49091D0968C1F38101022989
:101560004AD00228504607D0C8F8600000E03CE0AE
:10157000FFF734FD04463BE04746C8F86000FFF73C
:101580002DFD064605E000BFFFF728FD801B022861
:101590002BD828688001F7D4D4E907010843A16A51
:1015A0002E4A490802EB0141626A41EA821108436E
:1015B00094F82C1040EA0161C9F800100120386647
:1015C000FFF70CFD044606E03EE000BFFFF706FD16
:1015D000001B022809D828688001F7D534E000BF35
:1015E000FFF7FCFC001B022802D90320BDE8F88F9E
:1015F00028688001F4D427E00128F7D0D9F800004A
:10160000E26900F4800191421CD1226A00F03F019E
:10161000914217D147F6C071626A0140B1EB821F57
:1016200010D1A26A4FF0FF3300F4403103EB5202B5
:10163000B1EB024F06D194F82C1000F07060B0EBC3
:10164000016F01D00120D1E70020CFE7043802402C
:1016500000004742800E4742007000400000FFFF3C
:1016600010B5401EB0F1807F01D3012010BD4FF0B6
:10167000E02460610F21601702F026F80020A061CD
:1016800007202061002010BD7047704710B590F80A
:101690003C20012A22D0012280F83C20CA688C68B4
:1016A00022F4407222434C6822F4806222430C6888
:1016B00022F4006222430C6922F4805222434C69D6
:1016C00022F400522243C969002322F480420A43D3
:1016D00001684A6480F83C30002010BD022010BD33
:1016E00070B590F83C20012A32D0012480F83C40AB
:1016F000022280F83D2003685A689D6822F0700637
:101700000A6832435A60134B02689A4214D0B2F10D
:10171000804F11D0104B9A420ED0104B9A420BD0F2
:101720000F4B9A4208D00F4B9A4205D00E4B9A426B
:1017300002D00E4B9A4204D1496825F08003194328
:10174000916080F83D40002180F83C10084670BD53
:10175000022070BD0000014000040040000800406D
:10176000000C00400004014000400140001800400F
:1017700010B5040003D094F83D0010B107E001203B
:1017800010BD002084F83C00204600F01FF8022025
:1017900084F83D00211D206801F026FB012084F81B
:1017A000460084F83E0084F83F0084F8400084F846
:1017B000410084F8420084F8430084F8440084F82F
:1017C000450084F83D00002010BD000008B5284900
:1017D000026828488A420ED1016841F00101016087
:1017E0000068002200F00100009011461920FFF768
:1017F00063FC192036E01F491F4B091F9A420ED186
:10180000086840F0020008600868002200F002004A
:10181000009011461D20FFF74FFC1D2022E0174BC2
:101820009A420ED1086840F008000860086800225B
:1018300000F00800009011463220FFF73DFC3220F6
:1018400010E00F498A4211D1016841F002010160A4
:101850000068002200F00200009011462C20FFF7E3
:101860002BFC2C20BDE80840FFF718BC08BD000089
:10187000000001404438024000040040000C0040D9
:101880000004014090F83D10012901D0012070476B
:10189000022180F83D100168CA6842F00102CA6066
:1018A00000681149884214D0B0F1804F11D00F491F
:1018B00088420ED00E4988420BD00E49884208D08B
:1018C0000D49884205D00D49884202D00C49884212
:1018D00004D1816801F00701062903D0016841F0B5
:1018E0000101016000207047000001400004004039
:1018F00000080040000C004000040140004001408E
:101900000018004070B5044690F83C0000250128FE
:1019100017D0012684F83C60022084F83D0020683E
:10192000826822F0770222F47F42826008685028A1
:1019300038D00DDC20284FD005DC90B3102811D111
:101940004AE0022070BD302846D040280AD13BE052
:1019500060282FD070280DD0B0F5805F03D0B0F58F
:10196000005F12D0012584F83D60002084F83C001F
:10197000284670BDCB68D1E90121206801F0ADFA9D
:101980002068816841F0770109E0CB68D1E9012145
:10199000206801F0A2FA2068816841F480418160EA
:1019A000E1E719E0CA684968206801F06BFB502143
:1019B000206806E0CA684968206801F074FB60216D
:1019C000206801F094FACEE7CA684968206801F0FF
:1019D00059FB40212068F4E7226801461046F0E7F1
:1019E00070472DE9F04104460068C66805694FF06C
:1019F0000007A90713D5B10711D5F91E0161012010
:101A00002077206880698007204602D0FFF7E8FF32
:101A100004E000F015F9204600F0D6F927776807B2
:101A200016D5700714D521686FF0040008610220F4
:101A300020772068806910F4407F204602D0FFF7AD
:101A4000CFFF04E000F0FCF8204600F0BDF9277756
:101A5000280715D5300713D521686FF008000861F5
:101A6000042020772068C0698007204602D0FFF755
:101A7000B7FF04E000F0E4F8204600F0A5F927776E
:101A8000E80616D5F00614D521686FF0100008613D
:101A9000082020772068C06910F4407F204602D0DB
:101AA000FFF79EFF04E000F0CBF8204600F08CF931
:101AB0002777E80708D0F00706D021686FF001000B
:101AC0000861204600F044FA280608D5300606D5FD
:101AD00021686FF0800008612046FFF7D5FD680699
:101AE00008D5700606D521686FF0400008612046D1
:101AF00000F0B2FAA8060AD5B00608D521686FF042
:101B0000200008612046BDE8F041FFF7BEBDBDE8FA
:101B1000F081000070B586B0044614216846FEF7D7
:101B200099FB3D48226800243C4902250126824257
:101B30000FD1086840F0100008600868694600F09E
:101B4000100005904FF4D4400090CDE90154344882
:101B500034E003233348B2F1804F10D0324EB2420A
:101B600032D10A6842F001020A60096801F00101FD
:101B7000059140210091CDE90154694635E00A689C
:101B800042F001020A600A6802F0010205920A6846
:101B900042F002020A6009680093CDE9015401F0A5
:101BA0000201CDE9046103946946FFF719F94FF486
:101BB00040600090CDE901541C486946CDE90346D8
:101BC000FFF70EF906B070BD1948824210D10868BF
:101BD00040F0080008600868694600F008000590B9
:101BE00090140090CDE901541248CDE90345E7E790
:101BF00011488242E6D1086840F004000860086895
:101C0000694600F00400059090150090CDE901545C
:101C1000CDE903430948D3E70000014030380240D2
:101C20000010024000000240000400400004024096
:101C300000080040000C024000040140000802407F
:101C4000704770B5044690F83C0000260D46012808
:101C50000FD0012084F83C006AB1042A1DD0082A64
:101C60002FD00C2A3FD00126002084F83C003046BB
:101C700070BD022070BD206801F042F920688169C2
:101C800041F0080181612068816921F004018161CE
:101C9000206881692A69114311E0206801F060F928
:101CA0002068816941F4006181612068816921F4C3
:101CB00080618161206881692A6941EA022181612C
:101CC000D2E7206801F082F92068C16941F008017B
:101CD000C1612068C16921F00401C1612068C16946
:101CE0002A69114311E0206801F0A4F92068C16954
:101CF00041F40061C1612068C16921F48061C16162
:101D00002068C1692A6941EA0221C161ACE710B5C6
:101D1000040003D094F83D0010B107E0012010BD8D
:101D2000002084F83C00204600F01EF8022084F8D1
:101D30003D00211D206801F057F8012084F846007D
:101D400084F83E0084F83F0084F8400084F84100A5
:101D500084F8420084F8430084F8440084F8450085
:101D600084F83D00002010BD08B501681448B1F1A9
:101D7000804F14D0134A914220D1016841F00401F0
:101D800001600068002200F00400009011461E204F
:101D9000FFF792F91E20BDE80840FFF77FB9016800
:101DA00041F0010101600068002200F00100009094
:101DB00011461C20FFF780F91C20ECE708BD00004D
:101DC00040380240000800407047000010B504464B
:101DD000022249B104290ED0082913D094F84100F9
:101DE000012816D0012010BD94F83E000128F9D139
:101DF00084F83E200FE094F83F000128F2D184F8E7
:101E00003F2008E094F840000128EBD184F84020FE
:101E100001E084F841200122206801F051F81649C0
:101E20002068164A884201D0904203D1436C43F4A3
:101E3000004343642068884213D0B0F1804F10D033
:101E40000F4988420DD00F4988420AD00E49884276
:101E500007D0904205D00D49884202D00C498842F3
:101E600004D1816801F00701062903D0016841F01F
:101E700001010160002010BD00000140000401408C
:101E80000004004000080040000C004000400140F9
:101E90000018004070B50D0004464FF0000607D052
:101EA000042D0AD0082D0DD00C2D10D001263FE0B6
:101EB0002068C16821F002010DE02068C16821F0AE
:101EC000040108E02068C16821F0080103E02068EF
:101ED000C16821F01001C16000222946206800F08D
:101EE000EFFF194B41F2111120688A10984202D07D
:101EF000164B984209D1036A0B4206D1036A13427A
:101F000003D1436C23F4004343642068036A0B420B
:101F100006D1016A114203D1016821F0010101607B
:101F200001203DB1042D08D0082D09D084F84100CE
:101F3000304670BD84F83E00FAE784F83F00F7E7CA
:101F400084F84000F4E70000000001400004014074
:101F500070B537490646006809680025354C884247
:101F60001FD1206801280CD16068401C6060A16806
:101F7000884206D16560256008212D48A560FFF7DD
:101F800089FFE06801280CD12069401C206161694B
:101F9000884206D12561E5600C2125486561FFF77F
:101FA00079FF25493068096888420FD1A069012866
:101FB0000CD1E069401CE061216A884206D1E561EC
:101FC000A56100211C482562FFF764FF1B493068AA
:101FD0000968884214D1606A012811D1A16A18A049
:101FE000491CA162E26A01F05FFBD4E90A01884260
:101FF00006D1A562656208211048E562FFF74AFF35
:10200000124930680968884210D1D4E90C01401C9B
:1020100041F10001C4E90C01FEF7CDFA9FED0C1B64
:1020200053EC112BFEF73AFAC4E90E0170BD000023
:10203000700400202000002000050020D8050020AA
:1020400025642020202025640A000000900500203F
:1020500000000000000024407047704710B504469F
:102060000068406994F84110C0F3C010212911D1D3
:1020700080B12068143050E8001F21F0800140E852
:102080000012002AF5D1A06B08B1FEF7CAFC204669
:1020900001F0C1F82068406994F84210C0F3801044
:1020A000222911D180B12068143050E8001F21F09E
:1020B000400140E80012002AF5D1E06B08B1FEF7BC
:1020C000B0FC204601F080F8002010BD70470000F1
:1020D000F8B5016804460868CA684B6910F00F0F2C
:1020E0004FF0000559D003F0010602F49077374312
:1020F00065D0C10705D0D10503D5616C41F0010160
:102100006164410705D5D90703D0616C41F0020134
:102110006164810705D5D90703D0616C41F00401E2
:102120006164010707D502F02001314303D0616CDF
:1021300041F008016164616C00293AD0800604D541
:10214000900602D5204601F074F820684069616C61
:10215000C0F38010090700D460B3204601F034F8C2
:1021600020684069400621D52068143050E8001FDF
:1021700021F0400140E80012002AF5D1E06BA8B13F
:102180006E490165E06BFEF795FC002811D0E06B0D
:10219000016D01B0BDE8F040084783060FD59306F6
:1021A0000DD52046BDE8F84001F043B82046FFF7C2
:1021B0008DFFF8BD2046FFF789FF6564F8BD266BEB
:1021C0002023012E7DD1C6067BD5D60679D5086899
:1021D0004868009048694FF00206400641D5E16B1F
:1021E000086840680004000CE8D0A28D8242E5D95E
:1021F000E085C869B0F5807F2DD020680C3050E8AC
:10220000001F21F4807140E80012002AF5D12068F7
:10221000143050E8001F21F0010140E80012002AAC
:10222000F5D12068143050E8001F21F0400140E84B
:102230000012002AF5D184F84230256320680C3062
:1022400050E8001F21F0100140E80012002AF5D1EB
:10225000E06BFEF7E6FB6663A08DE18D401A81B26C
:102260002AE0A08DE18D401A81B2E08D0028A5D032
:102270000029A3D022680C3252E8000F20F490709D
:1022800042E80007002FF5D12068143050E8002FF5
:1022900022F0010240E80027002FF5D184F84230F7
:1022A000256320680C3050E8002F22F0100240E82F
:1022B0000023002BF5D166632046FFF7CEFEF8BD64
:1022C000FFE705062BD5150629D594F841002128EE
:1022D000F5D1A068B0F5805F01D12069B0B1206A66
:1022E000411C2162216800784860E08C401E000497
:1022F000000CE084E3D12068C16821F08001C16056
:102300002068C16841F04001C160D8E7206A0088B8
:10231000C0F308004860206A801C2062E5E74006A0
:10232000CDD55006CBD5CA68204622F04002CA60FF
:1023300084F8413000F0E4F9C1E70000CB30000838
:1023400070B5040004D094F84100002510B106E0F7
:10235000012070BD84F84050204600F023F824206E
:1023600084F841002068C16821F40051C160204612
:1023700000F0C0FF2068016921F4904101612068EC
:10238000416921F02A0141612068C16841F400518E
:10239000C1606564202084F8410084F842006563D0
:1023A000002070BD2DE9F04F87B005461421684626
:1023B000FDF750FF9748DFF8588214380221D5F80E
:1023C00000C00024DFF84CA203220723DFF848B244
:1023D0008F060615C44541D1DAF8008048F0100890
:1023E000CAF80080DAF800C00CF0100CCDF814C068
:1023F000D0F800C04CF0010CC0F800C0006800F03C
:102400000100059050028DE8130069465846CDE959
:102410000323FEF7E5FCDFF8088280494046C8F850
:102420000010C0E90174C0E90346C8F81440F10186
:10243000C8F81840C8E90741C8F82440FEF71CFC5A
:1024400008B1FEF7ECFAC5F83C80002211462520C1
:10245000C8F83850FEF730FE25204BE0DFF8C48185
:10246000DFF8B091C445A9F1040948D1D9F800803A
:1024700048F40038C9F80080D9F800C00CF4003CDA
:10248000CDF814C0D0F800C04CF0010CC0F800C06A
:10249000006800F0010005900C208DE813006946EB
:1024A0005846CDE90323FEF79BFCDFF874815E49B3
:1024B00008F160084046C8F80010C0E90174C0E99E
:1024C0000346C8F81440C8F81840C8F81C40C8F8BB
:1024D0002040C8F82440FEF7CFFB08B1FEF79FFA72
:1024E000C5F83C80002211462620C8F83850FEF777
:1024F000E3FD2620FEF7D2FD07B0BDE8F08FDFF840
:102500002C81C44546D1D9F8008048F48028C9F808
:102510000080D9F800C00CF4802CCDF814C0D0F89D
:1025200000C04CF0080CC0F800C0006800F00800C3
:1025300005904FF440708DE8130069463C48CDE9A2
:102540000323FEF74DFCDFF8D880374908F1C008B7
:1025500060394046C8F80010C0E90174C0E903467C
:10256000C8F81440C8F81840C8F81C40C8F8204003
:10257000C8F82440FEF780FB08B1FEF750FAC5F812
:102580003C80002211462720C8F83850FEF794FD01
:102590002720AFE7274B9C45AED1DAF8007047F013
:1025A0002007CAF80070DAF8003003F02003059322
:1025B000036843F004030360006800F00400059022
:1025C000C0208DE813000820CDE9032069461A4891
:1025D000FEF706FC1148194F183838608005C7E926
:1025E0000104C7E903467C61BC61FC613C6238467A
:1025F0007C62FEF741FB08B1FEF711FAEF6300229F
:1026000011464720BD63FEF757FD472072E70000E3
:102610000010014044380240000002404064024083
:10262000400700200044004088600240004800400D
:10263000000C024000140140000802406008002025
:1026400090F84230202B01D00220704721B11AB1FE
:102650000023036300F0D4BE012070477047704729
:102660002DE9F843044690F84100984616460D4679
:10267000202802D00220BDE8F88385B17EB1002079
:102680006064212084F84100FEF7A8FCA6848146FE
:10269000E684A0682027B0F5805F02D003E0012027
:1026A000E9E7206910B12E4600250EE000260CE077
:1026B0008021204600F0ECFEA8B9C6B116F8010B47
:1026C00021684860E08C401EE084E08C4B464FF06F
:1026D0000002CDF800800028EAD14FF040012046EA
:1026E00000F0D6FE40B184F841700320C3E735F80E
:1026F000020BC0F30800E3E784F841700020BAE75A
:102700007047FEE7194808B5016841F400110160FF
:10271000016801F400110091016841F48001016039
:102720000068002200F48000009011460C20FEF7A3
:10273000C3FC0C20FEF7B2FC002211461020FEF76D
:10274000BBFC1020FEF7AAFC002211463920FEF740
:10275000B3FC3920FEF7A2FC002211463A20FEF716
:10276000ABFCBDE808403A20FEF798BC3038024088
:102770002DE9F04186B014216846FDF76BFD2E4827
:102780000024016841F080010160016801F08001CE
:102790000591016841F004010160016801F0040144
:1027A0000591016841F001010160016801F001013A
:1027B0000591016841F010010160016801F010010C
:1027C0000591016841F002010160016801F0020118
:1027D0000591016841F0080101600068174F00F0A1
:1027E00008000590002201213846FEF7F1FBDFF8D2
:1027F00050804FF47C76002231464046FEF7E8FBDD
:1028000001250095CDE90154694638460394FEF749
:10281000E7FA0820CDE90004694640460294FEF735
:10282000DFFA0096CDE90154694640460394FEF76D
:10283000D7FA06B0BDE8F081303802400008024007
:102840000004024010B596B000240F941094119427
:10285000129413941C2168461494FDF7FBFC20216C
:1028600007A8FDF7F7FC3448324901604821C0E968
:10287000011442F20F71C0E9031444618461FEF750
:1028800077FF08B1FEF7CBF84FF480500F900FA9F7
:102890002948FFF737F808B1FEF7C1F82648FFF7D7
:1028A00036FA08B1FEF7BBF8139413A92248149422
:1028B000FEF716FF08B1FEF7B2F86020CDE900047C
:1028C0000294039404940594002269461A480694DD
:1028D000FFF7B7F908B1FEF7A2F8042269461648D7
:1028E000FFF7AFF908B1FEF79AF8082269461248D7
:1028F000FFF7A7F908B1FEF792F80C2269460E48D7
:10290000FFF79FF908B1FEF78AF807940894099435
:102910004FF400500A94CDE90B4007A906480E94E5
:10292000FEF7B4FE08B1FEF77AF80348FFF7F2F8B5
:1029300016B010BD000001407004002010B58AB030
:10294000002407941C2168460894FDF783FC224864
:102950004FF0804101604721C0E9011444F61F6136
:10296000C0E903148461FFF7D2F908B1FEF757F804
:10297000079407A918480894FEF7B2FE08B1FEF7BD
:102980004EF86020CDE90004029400226946124806
:102990000494FFF756F908B1FEF741F8042269469E
:1029A0000D48FFF74EF908B1FEF739F808226946DD
:1029B0000948FFF746F908B1FEF731F80C226946DD
:1029C0000548FFF73EF908B1FEF729F80248FFF77E
:1029D000A1F80AB010BD0000B804002010B58EB0F8
:1029E00000240794089409940A940B941C216846C7
:1029F0000C94FDF72FFC1E481C4901604821C0E9DA
:102A0000011442F20F71C0E903148461FEF7B0FEB5
:102A100008B1FEF704F84FF48050079007A9144856
:102A2000FEF770FF08B1FDF7FAFF1148FFF76FF9E5
:102A300008B1FDF7F4FF0B940BA90D480C94FEF7B9
:102A40004FFE08B1FDF7EBFF6020CDE900040294D2
:102A50000022694606480494FFF7F3F808B1FDF731
:102A6000DEFF0348FFF756F80EB010BD000400402B
:102A70000005002010B58AB0002407941C21684688
:102A80000894FDF7E7FB1648144901604721C0E9A7
:102A9000011444F61F61C0E903148461FFF737F99C
:102AA00008B1FDF7BCFF079407A90D480894FEF78D
:102AB00017FE08B1FDF7B3FF6020CDE900040294D2
:102AC0000022694606480494FFF7BBF808B1FDF7F9
:102AD000A6FF0348FFF71EF80AB010BD000800402B
:102AE0004805002010B586B00024174800940194D2
:102AF0000294039404941349059401604721C0E9AA
:102B0000011442F20F71C0E903148461FEF730FE34
:102B100008B1FDF784FF4FF48050009069460A48E1
:102B2000FEF7F0FE08B1FDF77AFF049404A9064809
:102B30000594FEF7D5FD002801D0FDF770FF06B023
:102B400010BD0000000C00409005002010B596B0AC
:102B500000240F9410941194129413941C2108A82B
:102B60001494FDF777FB20216846FDF773FB284896
:102B7000264901604721C0E9011442F20F71C0E902
:102B8000031444618461FEF7F3FD08B1FDF747FFCC
:102B90004FF480500F900FA91D48FEF7B3FE08B107
:102BA000FDF73DFF1A48FFF7B2F808B1FDF737FF10
:102BB000139413A916481494FEF792FD08B1FDF77B
:102BC0002EFF6020CDE908040A940B940C940D9418
:102BD000082208A90E480E94FFF733F808B1FDF754
:102BE0001EFF00944FF40050CDE90440029401947C
:102BF0000394694606480794FEF748FD08B1FDF7BF
:102C00000EFF0348FEF786FF16B010BD000401401A
:102C1000D80500200C4810B50A4901604FF4612125
:102C20004160002181600C22C160C0E90412816111
:102C3000C161FFF785FB002803D0BDE81040FDF718
:102C4000EEBE10BD00100140200600200C4810B55B
:102C50000A4901604FF4E1314160002181600C229A
:102C6000C160C0E904128161C161FFF769FB0028FE
:102C700003D0BDE81040FDF7D2BE10BD00440040B7
:102C8000680600200C4810B50A4901604FF4E13194
:102C90004160002181600C22C160C0E904128161A1
:102CA000C161FFF74DFB002803D0BDE81040FDF7E0
:102CB000B6BE10BD00480040B00600200C4810B55C
:102CC0000A4901604FF4E1314160002181600C222A
:102CD000C160C0E904128161C161FFF731FB0028C6
:102CE00003D0BDE81040FDF79ABE10BD00140140AE
:102CF000F8060020FEE7FEE770477047FEF774B95C
:102D000030B593B030216846FDF7A4FA14210CA821
:102D1000FDF7A0FA1C480024016841F080510160D1
:102D2000006800F0805011901848016841F480411B
:102D300001600068022500F480401190012003909A
:102D400010200490009506950820CDE90740482002
:102D5000CDE9090504200B906846FEF7CBFA08B1CF
:102D600072B6FEE70F20CDE90C054FF48050CDE997
:102D70000E4002210CA81094FEF7D0F9002801D0D3
:102D800072B6FEE713B030BD40380240007000401C
:102D90000248016841F470010160704788ED00E06D
:102DA0000148FEF71EBE0000700400200148FEF737
:102DB00018BE0000B80400200148FEF712BE000053
:102DC000000500200148FEF70CBE00004805002069
:102DD0000148FEF706BE0000900500200148FEF7FE
:102DE00000BE0000D8050020F0B50268294C2A4D2D
:102DF0002A4E2B4F2B4B4FF0804CA04209D0604500
:102E000007D0A84205D0B04203D0B84201D09842C2
:102E100004D122F0700E4A6842EA0E02A0421BD092
:102E2000604519D0A84217D0B04215D0B84213D08F
:102E3000984211D01C4DA8420ED01C4DA8420BD078
:102E40001B4DA84208D01B4DA84205D01A4DA842E0
:102E500002D01A4DA84203D122F44075CA682A4311
:102E60004D6922F080022A4302608A68C2620A68C1
:102E70008262A04201D0984201D109690163012117
:102E800041610169C90703D0016921F001010161B4
:102E9000F0BD0000000001400004004000080040B8
:102EA000000C00400004014000400140004401408B
:102EB0000048014000180040001C00400020004075
:102EC00010B501F01F030121046A99408C4304628C
:102ED000016A9A401143016210BD10B5846842EA4C
:102EE000032224F47F440A432243826010BD826897
:102EF00022F070020A4342F007018160704700002F
:102F0000F0B5036A026A22F0010202624268846933
:102F1000124E24F073050C682C4323F002058B68D5
:102F20002B430D4DA84201D0B04205D123F0080734
:102F3000CB683B4323F00403A84201D0B04205D143
:102F40004D6922F4407215438A692A4342608461C4
:102F5000496841630362F0BD000001400004014084
:102F6000F0B5026A036A23F01003036243688469C0
:102F70000D6824F4E64444EA05248D6822F020021A
:102F800042EA05120F4D104EA84201D0B04206D1C0
:102F9000CF6822F0800242EA071222F04002A842E3
:102FA00001D0B04207D14D6923F4406343EA850361
:102FB0008D6943EA850343608461496881630262E5
:102FC000F0BD00000000014000040140F0B5026ABD
:102FD000036A23F4807303624368C46922F40072B5
:102FE00024F073050C68124E2C438D6842EA0522CA
:102FF0000E4DA84201D0B04206D1CF6822F4006243
:1030000042EA072222F48062A84201D0B04207D1EE
:103010004D6923F4405343EA05138D6943EA0513D0
:103020004360C4614968C1630262F0BD00000140B1
:103030000004014030B5046A026A22F48052026240
:103040004268C3690D6823F4E64343EA05238D68AB
:1030500024F4005444EA0534084DA84202D0084D37
:10306000A84204D14D6922F4804242EA85124260AE
:10307000C36149680164046230BD00000000014082
:103080000004014010B5036A046A24F001040462DC
:10309000846924F0F00444EA021423F00A020A438B
:1030A0008461026210BD10B5036A046A24F0100442
:1030B0000462846923F0A00324F4704444EA0232D9
:1030C00043EA01118261016210BD10B5806B0021DD
:1030D000C185C184FEF7FAFF10BD70B5846B20680E
:1030E000406994F84110C0F3C0100025212904D193
:1030F00018B1E584204600F08EF82068406994F805
:103100004210C0F38010222904D118B1E585204671
:1031100000F05AF8606C40F0100060642046FEF742
:10312000D5FF70BD10B50146806B096809684FF086
:103130000002C9052ED4C28501680C3151E8003F58
:1031400023F4807341E80034002CF5D10168143178
:1031500051E8003F23F0010341E80034002CF5D191
:103160000168143151E8003F23F0400341E8003486
:10317000002CF5D1202180F84210016B012909D1E2
:1031800001680C3151E8003F23F0100341E800349E
:10319000002CF5D14263016B012902D0FFF75EFAE2
:1031A00010BD818DFEF759FF10BD10B5806B012158
:1031B0004163016B012902D0FFF751FA10BD818DE7
:1031C0004908FEF74AFF10BD01680C3151E8002F95
:1031D00022F4907241E80023002BF5D101681431EC
:1031E00051E8002F22F0010241E80023002BF5D125
:1031F000016B012909D101680C3151E8002F22F03F
:10320000100241E80023002BF5D1202180F8421064
:1032100000210163704701680C3151E8002F22F052
:10322000C00241E80023002BF5D1202180F8411095
:10323000704708B590F84210222901D0022008BD3D
:1032400082684FF480539A4201D1016921B1816AA9
:103250009A421BD04AB10AE00268816A5268C2F3FE
:1032600008020A80816A891C08E0026972B102685A
:10327000526802F07F020A70816A491C8162C18D26
:10328000491E0904090CC18503D01BE0026852687D
:10329000F1E70168CA6822F02002CA600168CA68C2
:1032A00022F48072CA6001684A6922F001024A6110
:1032B000202180F8421000214163026B012A03D0D3
:1032C000FFF7CCF9002008BD016301680C3151E81B
:1032D000002F22F0100241E80023002BF5D10168F5
:1032E0000A68D20602D50A6849680091818DFEF706
:1032F000B4FEE7E770B5044600680169E26821F4AE
:103300004051114301612169A068E2690843616984
:10331000114308432168CA6849F20C639A43024387
:10332000CA6020684169A26921F44071114341617A
:1033300031492068884202D03049884202D1FDF7E5
:1033400097FF01E0FDF784FFE2690023192164255E
:103350003226B2F5004F626828D0A0FB0101930F1E
:103360009200FCF72DFF0146B0FBF5F06FF018025C
:10337000504301EB800006EB0010B0FBF5F000F0CD
:10338000F002B1FBF5F002EB0012B1FBF5F06FF0CB
:103390001803584301EB800006EB0010B0FBF5F07A
:1033A00000F00F0021681044886070BDA0FB01018F
:1033B00092185B41FCF704FF0146B0FBF5F00201F7
:1033C000B1FBF5F06FF01803584301EB800006EBFA
:1033D000C000B0FBF5F000F0F80002EB4002B1FBDA
:1033E000F5F0584301EB800006EBC000B0FBF5F0B0
:1033F00000F00700D6E70000001001400014014073
:1034000038B581620446828500201346606422221A
:1034100084F84220E56B1B4AEA63E56B1A4A2A648A
:10342000E56B1A4AEA64E26B10650A462168E06BB4
:10343000091DFDF78BFC2068016840680090206939
:1034400048B120680C3050E8001F41F4807140E81A
:103450000012002AF5D12068143050E8001F41F016
:10346000010140E80012002AF5D12068143050E82C
:10347000001F41F0400140E80012002AF5D1002071
:1034800038BD000025310008AB310008DB300008F2
:103490002DE9F843984617460D460446089E24E059
:1034A000701C22D0FDF79AFDA0EB0800B0421AD89C
:1034B000CEB12068C168490717D5802D15D0402DA1
:1034C00013D00168C94309070FD40168002540687B
:1034D00000902046FFF778FE0820606484F8405092
:1034E0000120BDE8F8830320FBE72068006835EA87
:1034F000000004D00020B842D2D00020F1E7012023
:10350000F9E7000010B50448FEF7E2FDBDE8104001
:103510000148FDF781B900002006002010B50448DD
:10352000FEF7D6FDBDE810400148FDF775B9000073
:103530006806002010B50448FEF7CAFDBDE810403B
:103540000148FDF769B90000B006002010B5044835
:10355000FEF7BEFDBDE810400148FDF75DB9000073
:10356000F806002070B504460068444988421BD123
:103570002046FEF773FD4248006840684149C0F1AB
:103580003200C5B2322201F13200FCF74AFE3D485A
:10359000323000F013FD29463A48FCF75BFE322238
:1035A00038492046FFF74CF83749206888421ED139
:1035B0002046FEF753FD3548006840683149C0F1A8
:1035C0003200C5B26431322201F13200FCF729FE2B
:1035D0002C48963001F062F92A4829466430FCF7FD
:1035E00039FE2849322264312046FFF729F828495C
:1035F000206888421ED12046FEF730FD254800682D
:1036000040682049C0F13200C5B2C831322201F110
:103610003200FCF706FE1B48FA3001F04DF919485C
:103620002946C830FCF716FE16493222C83120461A
:10363000FFF706F81849206888421DD12046FEF79A
:103640000DFD1648006840681549C0F13200C5B24A
:10365000322201F13200FCF7E4FD1148323001F072
:103660002BF929460E48FCF7F5FD2046BDE87040D1
:1036700032220B49FEF7E4BF70BD0000001001408C
:1036800040070020E002002000440040A007002086
:10369000004800400008002000140140600800209D
:1036A0000C040020FEE700000FB4054B10B503A981
:1036B000044A029800F0EAF810BC5DF814FB000020
:1036C0002D490008A00000200907090E002804DB8E
:1036D00000F1E02080F80014704700F00F0000F1C6
:1036E000E02080F8141D704702E008C8121F08C1CE
:1036F000002AFAD170477047002001E001C1121F73
:10370000002AFBD1704700002DE9FF5F82B0002145
:10371000DDE90430020DDDF840B0034318D044F673
:103720001050A2F2FF3242431514119801281FD005
:10373000A5EB0B00401C5FEA000A4FF000064E4F5D
:10374000DFF83891B046504615D5CAF1000413E0B1
:10375000119801244AA3012801D16FEA0B010298B4
:10376000119AC0E90031C0E9024206B0BDE8F09FFD
:10377000CBF10000DFE704460021404A491842EB44
:103780000450CDE9001012E0E00707D032463B4676
:1037900040464946FCF710FE8046894632463B4685
:1037A00010461946FCF708FE06460F466410002C2A
:1037B000EAD1DDE90401DDE90023BAF1000F06DA00
:1037C000FCF7FAFD42464B46FCF7F6FD05E0FCF738
:1037D00065FE42464B46FCF761FE04460E4600225B
:1037E000284BFCF733FF03D84FF0FF30014607E0CA
:1037F0000022254B20463146FCF737FDFCF7E2FF5F
:10380000102409E0002C0ADB0A220023FCF7D8FC74
:10381000039B30321A55641E50EA0102F2D1641C37
:10382000039AC4F111031444119A012A03D001220E
:1038300008430DD10AE0084304D000204FF0110BDB
:10384000119072E7A3EB0B056D1E0DE05B4504DDE7
:103850004FF0000205F1010504E003DA4FF0000229
:10386000A5F10105002AECD002981199C0E90231B6
:10387000C0E9004579E70000000014400000F03F77
:10388000300000000000F0430000E03F2DE9FF4F52
:1038900095B09B468946064600250FE2252877D13C
:1038A00000242746F84A0121059400E0044316F855
:1038B000013F203B01FA03F01042F7D130782A286B
:1038C00011D06FF02F033078A0F13002092A16D8FA
:1038D000059A44F0020402EB820203EB4202104418
:1038E000761C0590EFE759F8042B0592002A03DABD
:1038F000504244F40054059044F00204761C3078A1
:103900002E2816D116F8010F44F004042A280DD0F1
:103910006FF02F023078A0F13003092B09D807EBA4
:10392000870302EB4303C718761CF3E759F8047BBF
:10393000761C30786C280FD006DC4C2817D068280D
:103940000DD06A2814D104E0742810D07A280FD141
:103950000DE044F400140AE044F4801401E044F45F
:1039600040147278824202D104F58014761C761CD1
:10397000307866280BD013DC582877D009DC002873
:1039800075D04528F6D04628F4D047281AD19DE1B5
:1039900018E0632835D0642879D0652812D195E1E4
:1039A000702873D008DC6728F1D069286FD06E28A2
:1039B0000DD06F2806D1B5E073282CD0752875D0AE
:1039C000782874D05A46179990476D1C75E1C4F356
:1039D0000250022809D003280DD0D9F8001004287D
:1039E0000DD00D6009F1040967E1D9F80010EA175C
:1039F000C1E90052F6E7D9F800100D80F2E70D702A
:103A0000F0E719F8041B8DF8001000208DF8010074
:103A1000EA46012003E059F804AB4FF0FF3061079C
:103A20004FF0000102D40DE008F101018846B942CF
:103A30000FDA8045F8DB1AF808100029F4D108E005
:103A400008F1010188468142FADB1AF808100029C2
:103A5000F6D105985B46A0EB080721463846179A31
:103A600000F094FA284400EB080507E04DE029E156
:103A70000DE01AF8010B5A4617999047B8F1010862
:103A8000F7D25B4621463846179A13E142E00A22F4
:103A90000092C4F302524FF0000A022A08D059F8EB
:103AA00004CB032A4FEAEC710AD00DE029E02AE0AA
:103AB00009F1070121F00702F2E802C1914609E08D
:103AC0000FFA8CFC4FEAEC71042A03D14FFA8CFCFC
:103AD0004FEAEC71002907DA0A460021DCF1000CFC
:103AE00061EB02012D2202E0220504D52B228DF884
:103AF0000420012203E0E20701D02022F7E79046EC
:103B000059E00A2102E010220DE010214FF0000AD6
:103B100000910BE010224FF0000A44F00404082743
:103B2000009203E008224FF0000A0092C4F3025210
:103B3000022A05D059F804CB0021032A08D009E055
:103B400009F1070121F00702F2E802C1914605E000
:103B50001FFA8CFC042A01D10CF0FF0C4FF0000876
:103B6000220728D5702806D0009B83F0100353EA63
:103B70000A0305D00EE040228DF80420012208E05F
:103B80005CEA010206D030228DF804208DF8050091
:103B900002229046009B83F0080353EA0A030AD1ED
:103BA0005CEA010201D1620705D530228DF80420BC
:103BB0004FF001087F1E582804D034A003900EA8AF
:103BC00002900DE036A0F9E753466046009AFCF7F4
:103BD000F7FA84460398825C0298401E02900270B5
:103BE0005CEA0100F0D1029806A9081A00F1200A47
:103BF000600702D524F4803400E00127574502DD38
:103C0000A7EB0A0000E0002000EB0A0100900598F5
:103C10004144401A0590E00306D45B462146179ABA
:103C2000059800F0B3F90544002706E001A85A46BC
:103C3000C05D179990476D1C7F1C4745F6DBE0037C
:103C40000CD55B462146179A059800F09FF905446C
:103C500004E030205A46179990476D1C0099481E81
:103C600000900029F5DC08E0029802995A46007895
:103C7000491C0291179990476D1CBAF10001AAF1F5
:103C8000010AF1DC65E1000009280100303132331E
:103C90003435363738396162636465660000000088
:103CA0003031323334353637383941424344454672
:103CB0000000000000F058F90544761C3078002818
:103CC0007FF4ECAD19B02846BDE8F08F620700D450
:103CD000062709F1070222F0070CFCE80223E1465F
:103CE00003F000485FEA080C02D00FF2702C0DE0E0
:103CF0005FEA045C02D50FF2682C07E05FEAC47C3F
:103D000002D00FF2602C01E0AFF2700C4FF0FF38E0
:103D100023F00043CDF850C065280CD006DC4528C0
:103D200009D046281DD047283DD13DE0662818D04F
:103D300067287ED138E00021112F01DB112000E03F
:103D4000781CCDE9000106A90EA8FFF7DDFCDDE92E
:103D50000F010E9A03910021009207F1010A0491CC
:103D60004DE04FF000400097CDE9011006A90EA8E4
:103D7000FFF7CAFCDDE90F0203920E9B11990022A6
:103D8000DDF80CA00093049211B9791C00EB010A34
:103D9000B7EB0A0004D4C0F1FF3007F1010A049028
:103DA000AAEB0700019044E0012F00DA012700216F
:103DB000112F01DD112000E03846CDE9000106A9F0
:103DC0000EA8FFF7A1FCDDE90F010E9A0391002177
:103DD00004910092BA4621070CD40399514500DAA8
:103DE0008A46BAF1010F05DD009AAAF10101515C82
:103DF000302908D0B84202DA10F1040F06DA0121A6
:103E0000CDE9011015E0AAF10101E9E7002805DC80
:103E1000049901440491AAEB000102E0411C5145C0
:103E200000DD8A460499401A401C01904FF0004082
:103E30000290200704D40198504501DBCDF804809E
:103E400000208DF84F0002980DF14F07B0F1004FA0
:103E500025D02B200E9002984FF0020800280CDA93
:103E6000404202902D200E9007E00A210298FCF7B4
:103E700005FC3031029007F8011DB8F10001A8F1EE
:103E80000108F2DC02980028EFD1791E0E98087024
:103E9000307800F0200040F0450007F8020D12A82D
:103EA000C01B00F107081498007800B1012000EB56
:103EB0000A01019801EBE07105984144401A401E47
:103EC0000590E00306D45B462146179A059800F05A
:103ED0005DF805441498007818B15A461799904730
:103EE0006D1CE00324D55B462146179A059800F027
:103EF0004DF805441CE00498002807DBDDE90301C8
:103F0000884203DD0098405C179901E01799302042
:103F10005A469047049805F10105401C0490019809
:103F2000401E019004D12E205A46179990476D1CCF
:103F3000BAF10001AAF1010ADDDC05E017F8010B76
:103F40005A46179990476D1CB8F10001A8F1010875
:103F5000F4DC5B462146179A0598ABE62D0000007D
:103F60002B000000200000002DE9F0410446002550
:103F70001E461746880404D405E039462020B04781
:103F80006D1C641EF9D52846BDE8F0812DE9F0418D
:103F9000044600251E469046C80301D5302700E0A0
:103FA0002027880404D505E041463846B0476D1CFB
:103FB000641EF9D52846BDE8F0810000F0B52DED6E
:103FC000028BB1B0044600F085FC2078012751280F
:103FD00027D1607852287DD1A078303800F0FF0CCE
:103FE000FE4880F800C0E1783039CAB242702179C9
:103FF0003039CBB28370A0793038C0B2F74DED1CA8
:104000002870E1793039C9B26970267A303EF6B24B
:10401000AE708DE843006146F1A0FFF745FBF7481D
:104020000770EE4D2178F648AD1EF64E43291FD19C
:1040300061784129CFD1A17854297DD1E1784329F4
:104040000FD121794829F8D1EF600168491C01603E
:10405000217843290CD161784129BCD1A178542918
:10406000EBD1E1784C29E8D1EF600168491C01608F
:10407000217850291CD1617855297DD1A178542906
:10408000A9D1E1784C290CD12F610168491C01604C
:10409000217850290CD161785529EED1A178542985
:1040A00099D1E178482996D12F610168491C0160B6
:1040B00020784D287ED160789FEDD38B4F2834D166
:1040C000A078562887D1E0784C2819D1207964212E
:1040D000303800E013E110FB01F0FCF74EFA41EC40
:1040E000110BB0EE480AF0EE680A01F04FF82078A4
:1040F0004D285FD160784F2817D1A078562899D1E4
:10410000E078522896D120796421303810FB01F0F4
:10411000FCF733FA41EC110BB0EE480AF0EE680AF6
:1041200001F02EF920784D2844D1607846281FD11F
:10413000A0782179303800E08CE300EBC00202EB7C
:10414000001001EB8000E17801EB810106EB4101F9
:104150000844FCF712FA41EC110BB0EE480A85ED69
:10416000061BF0EE680A00F04FFF20784D2863D15F
:104170006078422821D100E041E3A07821793038ED
:1041800000EBC00202EB001001EB8000E17801EBD4
:10419000810106EB41010844FCF7EFF941EC110BFA
:1041A000B0EE480A85ED061BF0EE680A00F06AFEE4
:1041B000207800E040E04D283ED160784C281DD1A9
:1041C000A0782179303800EBC00202EB001001EB3F
:1041D0008000E17801EB810106EB41010844FCF726
:1041E000CCF941EC110BB0EE480A85ED061BF0EE60
:1041F000680A00F0CBFF20784D281DD16078522846
:104200007DD1A0782179303800EBC00202EB00109C
:1042100001EB8000E17801EB810106EB41010844EC
:10422000FCF7ABF941EC110BB0EE480A85ED061B2B
:10423000F0EE680A01F0A4F8207855287ED1607865
:104240005028DDD1A0782B2825D1E078617930384D
:1042500000EBC00202EB001001EB8000217901EBC2
:10426000810106EB41010844FCF787F9C5E9060125
:10427000A079217A303800EBC00202EB001001EB8C
:104280008000E17901EB810106EB41010844FCF774
:1042900074F9C5E90801A0782D2824D1E0786421BB
:1042A000303810FB01F0217901EB810100EB410076
:1042B00061790844C0F50470FCF75FF9C5E90601AF
:1042C000A079217A303800EBC00202EB001001EB3C
:1042D0008000E17901EB810106EB41010844FCF724
:1042E0004CF9C5E908014A4F57F82F0B57F82B1C1A
:1042F0003D22CDE91601464918A8083100E0DDE06D
:10430000FBF78FFFB87D8DF89D00F87D8DF89E003E
:10431000387E8DF89F00787E8DF8A000B87E8DF8ED
:10432000A100F87E8DF8A200387F8DF8A300787F79
:104330008DF8A400B87F8DF8A50000E01CE0F87FA0
:104340008DF8A6003249182250312AA8FBF769FFE0
:1043500058221AA96846FBF764FF16AF95ED061BB5
:1043600097E80F0095ED080B00F030FBFF230922C2
:1043700021462848FEF774F920789FED278B5228B4
:104380001BD160784F287DD1A0782179303800EB9F
:10439000C00202EB001001EB8000E17801EB81012B
:1043A00006EB41010844FCF7E8F841EC100B1C480F
:1043B00085ED060B0FC801F01FFA20784C287CD140
:1043C000607846287AD1FCF709FEFCF7E7F853EC51
:1043D000182BFCF763F841EC100B23E06A00002077
:1043E00074312E7478743D222564256425642D254E
:1043F000642564256422FFFFFF0000000100002007
:1044000004000020F0FDFFFF000000000000244039
:1044100010020020200600200000000000408F4015
:10442000A800002053EC102BFEA0FFF73DF9A07868
:104430002B2825D1E0786179303800EBC00202EBFF
:10444000001001EB8000217901EB810106EB4101B5
:104450000844FCF792F8C5E90601A079217A3038C2
:1044600000EBC00202EB001001EB8000E17901EBF0
:10447000810106EB41010844FCF77FF8C5E908011A
:10448000A07800E06BE02D2827D1E0786421303857
:1044900010FB01F0217901EB810100EB4100617912
:1044A0000844C0F50470FCF768F8C5E90601A07976
:1044B000217A303800EBC00201E04DE0CEE002EBA3
:1044C000001001EB8000E17901EB810106EB410175
:1044D0000844FCF752F8C5E90801D34F57F82F0BF1
:1044E00057F82B1C3D22CDE91601CF4918A80831F9
:1044F000FBF797FEB87D8DF89D00F87D8DF89E0046
:10450000387E8DF89F00787E8DF8A000B87E8DF8FB
:10451000A100F87E8DF8A200387F8DF8A300787F87
:104520008DF8A400B87F8DF8A500F87F8DF8A6005F
:10453000BD49182250312AA8FBF773FE58221AA948
:104540006846FBF76EFE16AF95ED061B97E80F0069
:1045500095ED080B00F03AFA207852287DD160786A
:1045600046287BD1FCF73AFDFCF718F853EC182BE2
:10457000FBF794FF41EC100BAAA053EC102BFFF7B4
:1045800093F8A0782B2825D1E0786179303800EBBA
:10459000C00202EB001001EB8000217901EB8101E8
:1045A00006EB41010844FBF7E8FFC5E90601A079E5
:1045B000217A303800EBC00202EB001001EB8000E2
:1045C000E17901EB810106EB41010844FBF7D5FFDE
:1045D000C5E90801A0782D2824D1E078642130387D
:1045E00010FB01F0217901EB810100EB41006179C1
:1045F0000844C0F50470FBF7C0FFC5E90601A079C7
:10460000217A303800EBC00202EB001001EB800091
:10461000E17901EB810106EB41010844FBF7ADFFB5
:10462000C5E90801814F57F82F0B57F82B1C3D2285
:10463000CDE916017D4918A80831FBF7F2FDB87DD8
:104640008DF89D00F87D8DF89E00387E8DF89F00D6
:10465000787E8DF8A000B87E01E025E0A6E08DF818
:10466000A100F87E8DF8A200387F8DF8A300787F36
:104670008DF8A400B87F8DF8A500F87F8DF8A6000E
:104680006A49182250312AA8FBF7CBFD58221AA9F3
:104690006846FBF7C6FD16AF95ED061B97E80F00C1
:1046A00095ED080B00F092F9207842287DD16078D2
:1046B0004B287BD1FCF792FCFBF770FF53EC182BD7
:1046C000FBF7ECFE41EC100B56A053EC102BFEF761
:1046D000EBFFA0782B2825D1E0786179303800EB0A
:1046E000C00202EB001001EB8000217901EB810197
:1046F00006EB41010844FBF740FFC5E90601A0793C
:10470000217A303800EBC00202EB001001EB800090
:10471000E17901EB810106EB41010844FBF72DFF34
:10472000C5E90801A0782D2824D1E078642130382B
:1047300010FB01F0217901EB810100EB410061796F
:104740000844C0F50470FBF718FFC5E90601A0791D
:10475000217A303800EBC00202EB001001EB800040
:10476000E17901EB810106EB41010844FBF705FF0C
:10477000C5E908012E4F57F82F0B57F82B1C3D2287
:10478000CDE916012A4918A80831FBF74AFDB87D82
:104790008DF89D00F87D8DF89E00387E8DF89F0085
:1047A000787E8DF8A000B87E01E025E06BE08DF802
:1047B000A100F87E8DF8A200387F8DF8A300787FE5
:1047C0008DF8A400B87F8DF8A500F87F8DF8A600BD
:1047D0001749182250312AA8FBF723FD58221AA99D
:1047E0006846FBF71EFD16AF95ED061B97E80F0018
:1047F00095ED080B00F0EAF82078502824D1607875
:10480000542840D1A0782179303800EBC00202EB67
:10481000001001EB8000E17801EB810106EB410122
:10482000084407E025660A00D80000204001002067
:10483000A8010020FBF7A1FE41EC100B154885ED07
:10484000060B0FC800F0D8FF207843281BD16078F2
:10485000412818D1A0782179303800EBC00202EB52
:10486000001001EB8000E17801EB810106EB4101D2
:104870000844FBF782FE41EC100B074885ED060B60
:104880000FC800F0B9FF3020207031B0BDEC028BB2
:10489000F0BD0000B8000020C800002010B504469C
:1048A00000F018F82146FF23BDE81040042201481B
:1048B000FDF7D6BE6806002010B5044600F00AF8E1
:1048C0002146FF23BDE8104004220148FDF7C8BE81
:1048D000B006002070B5144A002502F108031178D3
:1048E00011B151780C4613E0C17809B1157070BD53
:1048F000012111700021445C24B15C54491C04293D
:10490000F9DB70BD517070BD0E1B865D5E54491C95
:104910000429F9DB00215C5C4454491C0429FADBBE
:104920001570557070BD00006800002013B54FF67B
:10493000FF73012269460248FDF792FE00981CBDF4
:1049400020060020FCF758FBFEF7DAF9FDF710FF10
:10495000FDF7D8FEFEF75EF9FEF778F9FDF772FF76
:10496000FDF7ECFFFEF73AF8FEF7BCF8FEF78AF920
:10497000FEF7A4F9FEF77EF8FEF7E8F80D48FCF71D
:1049800005F80D48FCF702F80C48FBF7FFFF0C4850
:10499000FBF7FCFF00F0BCFFFF23052209A105483F
:1049A000FDF75EFE4FF47A7400F0E8FD2046FCF758
:1049B00005FAF9E72006002068060020B00600206E
:1049C000F806002053544152540000000FB42DED5E
:1049D000040B2DE9F0412DED0A8BB0EE41AAF0EE6B
:1049E00061AAB0EE408AF0EE608A9FEDFA9B012446
:1049F00053EC192B51EC1A0BFBF728FE01D28DF862
:104A0000B04053EC192B51EC1A0BFBF707FE08D200
:104A100000208DF8B00051EC1A0B81F0004141EC00
:104A20001A0BEE4E9FEDEECB9FEDEFBB9FEDF09B93
:104A30001498E8BB9DF8B02080213046FCF7C8FAF6
:104A4000ED48046051EC1A0BFBF7C9FDFBF795FD2F
:104A500053EC1C2BFBF7B0FCFBF7C1FDE74953EC13
:104A6000182B086051EC1B0BFBF718FD0F4647ECA9
:104A7000100B054651EC100BFBF7B1FD1699C862FF
:104A800047EC105B51EC100BFBF7A9FD1990159842
:104A9000B8B1042820D0082853EC182B51EC190B7E
:104AA00025D0FBF7FBFCFBF79AFD1699086400E0A4
:104AB00003E016A81599FDF789F9149801281DD06F
:104AC0005EE053EC182B51EC190BFBF7E7FCFBF7FE
:104AD00086FD16994863EAE753EC182B51EC190B45
:104AE000FBF7DCFCFBF77BFD16998863DFE7FBF740
:104AF000D5FCFBF774FD1699C863D8E79DF8B02084
:104B00004FF480713046FCF763FABD48046051EC05
:104B10001A0BFBF764FDFBF730FD53EC1C2BFBF786
:104B20004BFCFBF75CFDB74953EC182B086051ECCC
:104B30001B0BFBF7B3FC0F4647EC100B054651EC83
:104B4000100BFBF74CFD1699C86247EC105B51EC5B
:104B5000100BFBF744FD19901598A8B104281ED03E
:104B6000082853EC182B51EC190B23D0FBF796FCBB
:104B7000FBF735FD1699086416A81599FDF726F977
:104B8000149802281DD05EE053EC182B51EC190B41
:104B9000FBF784FCFBF723FD16994863ECE753EC25
:104BA000182B51EC190BFBF779FCFBF718FD169944
:104BB0008863E1E7FBF772FCFBF711FD1699C86308
:104BC000DAE79DF8B0204FF400713046FCF700FAA8
:104BD0008D48046051EC1A0BFBF701FDFBF7CDFC8F
:104BE00053EC1C2BFBF7E8FBFBF7F9FC874953EC74
:104BF000182B086051EC1B0BFBF750FC0F4647ECE1
:104C0000100B054651EC100BFBF7E9FC1699C86236
:104C100047EC105B51EC100BFBF7E1FC1990159879
:104C2000A8B104281ED0082853EC182B51EC190BFE
:104C300023D0FBF733FCFBF7D2FC1699086416A8C7
:104C40001599FDF7C3F8149803281DD05DE053ECC7
:104C5000182B51EC190BFBF721FCFBF7C0FC169944
:104C60004863ECE753EC182B51EC190BFBF716FCDF
:104C7000FBF7B5FC16998863E1E7FBF70FFCFBF740
:104C8000AEFC1699C863DAE79DF8B02020213046C3
:104C9000FCF79EF95E48046051EC1A0BFBF79FFC91
:104CA000FBF76BFC53EC1C2BFBF786FBFBF797FC2D
:104CB000584953EC182B086051EC1B0BFBF7EEFB2B
:104CC0000F4647EC100B054651EC100BFBF787FC29
:104CD0001699C86247EC105B51EC100BFBF77FFC98
:104CE00019901598E8B3042866D0082853EC182BBF
:104CF00051EC190B6CD0FBF7D1FBFBF770FC16994C
:104D0000086416A81599FDF761F81498042842D193
:104D10009DF8B02040213046FCF75AF93E48046027
:104D200051EC1A0BFBF75BFCFBF727FC53EC1C2B3D
:104D3000FBF742FBFBF753FC384953EC182B086098
:104D400051EC1B0BFBF7AAFB0D4645EC100B044680
:104D500051EC100BFBF743FC1699C86245EC104B65
:104D600000E01EE051EC100BFBF739FC1990159890
:104D700068B3042866D0082853EC182B51EC190BA3
:104D80006BD0FBF78BFBFBF72AFC1699086416A87F
:104D90001599FDF71BF8BDEC0A8BBDE8F0015DF835
:104DA00024FB53EC182B51EC190BFBF777FBFBF7AB
:104DB00016FC16994863A4E753EC182B51EC190B19
:104DC000FBF76CFBFBF70BFC1699886399E72EE069
:104DD00026E0000000000000000000000004024087
:104DE00085EB51B81ECD6040666666666645A84094
:104DF00000000000002C904020000020280000202F
:104E00002C0000203400002038000020400000204A
:104E10006000002064000020440000204C000020BE
:104E2000FBF73CFBFBF7DBFB1699C86369E753EC28
:104E3000182B51EC190BFBF731FBFBF7D0FB169944
:104E40004863A4E753EC182B51EC190BFBF726FB36
:104E5000FBF7C5FB1699886399E7FBF71FFBFBF788
:104E6000BEFB1699C86392E79FED040B002180ED0D
:104E7000140B80F8601080ED160B704700000000E6
:104E80000000000070B52DED088BB0B0B0EE41AA67
:104E9000F0EE61AAB0EE40BAF0EE60BA9FED558B2D
:104EA00051EC1A0B53EC182BFBF786FA41EC190B5B
:104EB00053EC182B51EC1B0BFBF77EFA4F4C0E46B4
:104EC000054646EC180B54F8300B54F82C1C3D22C8
:104ED000CDE91601494918A80831FBF7A2F9607D10
:104EE0008DF89D00A07D8DF89E00E07D8DF89F00DF
:104EF000207E8DF8A000607E8DF8A100A07E8DF848
:104F0000A200E07E8DF8A300207F8DF8A400607FD2
:104F10008DF8A500A07F8DF8A600384918225031E1
:104F20002AA8FBF77EF958221AA96846FBF779F9F7
:104F30000DF1580CB0EE491A9CE80F00F0EE691A1A
:104F4000B0EE480AF0EE680AFFF740FD9FED2C0B2B
:104F500051EC1A0B53EC102BFBF72EFA41EC190B0A
:104F600046EC185BA06BE16B3D22CDE916012349AD
:104F700018A87031FBF755F92048683010F8451F24
:104F80008DF89D1041788DF89E1081788DF89F10D6
:104F9000C1788DF8A01001798DF8A11041798DF8B4
:104FA000A21081798DF8A310C1798DF8A410017A2F
:104FB0008DF8A510407A8DF8A60010491822B83156
:104FC0002AA8FBF72EF958221AA96846FBF729F9F7
:104FD00016ACB0EE491A94E80F00F0EE691AB0EE84
:104FE000480AF0EE680AFFF7F1FC30B0BDEC088B20
:104FF00070BD00007B14AE47E17AF23FD80000207C
:105000007B14AE47E17AF2BF70B52DED088BB0B0DE
:10501000B0EE419AF0EE619AB0EE408AF0EE608A0E
:105020009FED550B51EC190B53EC102BFBF7C4F90A
:1050300041EC1B0B9FED52AB51EC180B53EC1A2BB0
:10504000FBF7BAF9504C0E46054646EC180B54F8DF
:10505000300B54F82C1C3D22CDE916014A4918A802
:105060000831FBF7DEF8607D8DF89D00A07D8DF89E
:105070009E00E07D8DF89F00207E8DF8A000607E70
:105080008DF8A100A07E8DF8A200E07E8DF8A3002F
:10509000207F8DF8A400607F8DF8A500A07F8DF89B
:1050A000A6003949182250312AA8FBF7BAF858222D
:1050B0001AA96846FBF7B5F80DF1580CB0EE4B1A7B
:1050C0009CE80F00F0EE6B1AB0EE480AF0EE680AAA
:1050D000FFF77CFC53EC1A2B51EC190BFBF76CF926
:1050E00041EC180B46EC195BA06BE16B3D22CDE95E
:1050F0001601254918A87031FBF793F8224868304B
:1051000010F8451F8DF89D1041788DF89E1081781C
:105110008DF89F10C1788DF8A01001798DF8A1103D
:1051200041798DF8A21081798DF8A310C1798DF89D
:10513000A410017A8DF8A510407A8DF8A6001249C6
:105140001822B8312AA8FBF76CF858221AA9684629
:10515000FBF767F816ACB0EE481A94E80F00F0EED3
:10516000681AB0EE490AF0EE690AFFF72FFC30B07A
:10517000BDEC088B70BD00007B14AE47E17AF2BF36
:105180007B14AE47E17AF23FD800002010B5764C90
:105190002DED048BB0B0B0EE418A54F8300BF0EE38
:1051A000618AB0EE409AF0EE609A54F82C1C3D22D1
:1051B000CDE916016C4918A80831FBF732F8607D7B
:1051C0008DF89D00A07D8DF89E00E07D8DF89F00FC
:1051D000207E8DF8A000607E8DF8A100A07E8DF865
:1051E000A200E07E8DF8A300207F8DF8A400607FF0
:1051F0008DF8A500A07F8DF8A6005B4918225031DC
:105200002AA8FBF70EF858221AA96846FBF709F8F6
:105210000DF1580CB0EE481A9CE80F00F0EE681A39
:10522000B0EE490AF0EE690AFFF7D0FBA06BE16B24
:105230003D22CDE916014C4918A87031FAF7F1FF6B
:105240004948683010F8451F8DF89D1041788DF859
:105250009E1081788DF89F10C1788DF8A01001798B
:105260008DF8A11041798DF8A21081798DF8A310E5
:10527000C1798DF8A410017A8DF8A510407A8DF8C7
:10528000A60039491822B8312AA8FAF7CAFF5822CD
:105290001AA96846FAF7C5FF16ACB0EE481A94E8AA
:1052A0000F00F0EE681AB0EE490AF0EE690AFFF757
:1052B0008DFB9FED2E0B51EC180B53EC102BFBF7D5
:1052C0007BF89FED2C0B41EC180B53EC102B51ECA1
:1052D000190BFBF771F841EC190B23498031086D6C
:1052E000496D3D22CDE916011F4918A8D831FAF7BA
:1052F00098FF1D48D03010F8451F8DF89D1041785B
:105300008DF89E1081788DF89F10C1788DF8A010CF
:1053100001798DF8A11041798DF8A21081798DF86D
:10532000A310C1798DF8A410017A8DF8A510407AE8
:105330008DF8A600182211492AA8FAF772FF582200
:105340001AA96846FAF76DFF94E80F00B0EE481A04
:10535000F0EE681AB0EE490AF0EE690AFFF736FB84
:1053600030B0BDEC048B10BDD80000200000000060
:10537000000000C00000000000000040F801002014
:1053800070B52DED068BB0EE419AF0EE619AB0B09B
:10539000B0EE40AAF0EE60AA51EC190B81F000418A
:1053A000724C0E46054646EC180B54F8300B54F878
:1053B0002C1C3D22CDE916016C4918A80831FAF7DA
:1053C00030FF607D8DF89D00A07D8DF89E00E07D12
:1053D0008DF89F00207E8DF8A000607E8DF8A100E2
:1053E000A07E8DF8A200E07E8DF8A300207F8DF8CE
:1053F000A400607F8DF8A500A07F8DF8A6005B4912
:10540000182250312AA8FAF70CFF58221AA9684628
:10541000FAF707FF0DF1580CB0EE481A9CE80F00A0
:10542000F0EE681AB0EE4A0AF0EE6A0AFFF7CEFA1A
:1054300046EC185BA06BE16B3D22CDE916014B49B0
:1054400018A87031FAF7EDFE4848683010F8451F8B
:105450008DF89D1041788DF89E1081788DF89F1001
:10546000C1788DF8A01001798DF8A11041798DF8DF
:10547000A21081798DF8A310C1798DF8A410017A5A
:105480008DF8A510407A8DF8A60038491822B83159
:105490002AA8FAF7C6FE58221AA96846FAF7C1FEEA
:1054A00016ACB0EE481A94E80F00F0EE681AB0EEB1
:1054B0004A0AF0EE6A0AFFF789FA9FED2D8B51EC4C
:1054C000190B53EC182BFAF777FF41EC190B53EC3F
:1054D000182B51EC1A0BFAF76FFF41EC180B23490C
:1054E0008031086D496D3D22CDE916011F4918A88C
:1054F000D831FAF796FE1D48D03010F8451F8DF8C8
:105500009D1041788DF89E1081788DF89F10C1789C
:105510008DF8A01001798DF8A11041798DF8A210B5
:1055200081798DF8A310C1798DF8A410017A8DF8D6
:10553000A510407A8DF8A60018220F492AA8FAF77C
:1055400070FE58221AA96846FAF76BFE94E80F001D
:10555000B0EE491AF0EE691AB0EE480AF0EE680AA9
:10556000FFF734FA30B0BDEC068B70BDD8000020D8
:105570000000000000001040F801002010B500F00D
:1055800017F8094800240168012902D1046000F0DD
:10559000DFFA06480168012904D10460BDE8104023
:1055A00000F062BC10BD00007400002078000020F4
:1055B0002DE9F047714C00212DED068B4FF00208CC
:1055C0006068032802DB616084F8018022784FF074
:1055D00004099FED6BAB9FED6C1B9FED6D0B6E4D4A
:1055E0006E4E6F4F2868336818433B6818430A2A89
:1055F00014D2DFE802F01305171C232A565C8F959E
:105600000028FDD19FED671BFFF7FEFCFF2305225D
:1056100066A16848FDF724F884F80080BDEC068B8D
:10562000BDE8F08760780128F8D103200AE000285F
:10563000FDD19FED611BFFF7E7FC95E06078022844
:10564000ECD1052020706170E8E70028FDD19FEDC6
:105650005C1BB0EE408AF0EE608AFFF713FC28680E
:1056600031680843396808430028FDD19FED560B87
:1056700000F092FD28683168084339680843002823
:10568000FDD19FED531BB0EE480AF0EE680AFFF71C
:1056900077FEFF23052250A14648FCF7E1FF0620D4
:1056A00036E06278032A02D1072222706170002856
:1056B000FDD1B0EE418AF0EE618AB0EE409AF0EE94
:1056C000609AFFF7DFFB28683168084339680843B0
:1056D0000028FDD1B0EE481AF0EE681AB0EE490A83
:1056E000F0EE690AFFF752FD28683168084339680F
:1056F00008430028FDD1B0EE4A0AF0EE6A0A00F035
:105700003BFEFF23052236A12A48FCF7A9FF08200B
:10571000207083E76278022A02D109222270617028
:105720000028FDD1B0EE408AF0EE608AFFF7AAFBB8
:10573000286831680843396808430028FDD1B0EE75
:10574000480A9FED291BF0EE680AFFF71FFD286845
:1057500031680843396808430028FDD1B0EE4A0A91
:10576000F0EE6A0A00F008FEFF23052220A111488E
:10577000FCF776FF84F8009050E70000000000205E
:1057800000000000008056400000000000805940EA
:105790000000000000002440380000202C00002001
:1057A0002000002000000000004050405343414EC4
:1057B00046000000200600200000000000005440C9
:1057C000000000000000444000000000008066402F
:1057D0000000000000C06A404C434A47310000000E
:1057E0004C5A435131000000000000000040454089
:1057F0004C574C513100000070B53B4C3B4D2DEDEA
:10580000088BB0EE408AF0EE608A9FED31BB9FEDD1
:10581000329B9FED33AB1AB3012A39D0022A53D100
:1058200053EC1B2B51EC180BFAF7C6FD53EC192B5C
:10583000FAF734FE53EC1A2BFAF717FD41EC100B74
:1058400084ED040BFAF7CBFE294909684863284820
:10585000002100BFBDEC088BBDE87040FCF7B6BA74
:1058600053EC1B2B51EC180BFAF7A6FD53EC192B3C
:10587000FAF714FE53EC1A2BFAF7F7FC41EC100B75
:1058800084ED000BFAF7ABFE29684863002119E0AC
:1058900018A0FDF709FF53EC1B2B51EC180BFAF77E
:1058A0008BFD53EC192BFAF7F9FD53EC1A2BFAF791
:1058B000DCFC41EC100B84ED020BFAF790FE29683A
:1058C000886304210948C5E7BDEC088B70BD000062
:1058D0000000000000409F40000000000080664083
:1058E0000000000000407F4008000020B8040020B5
:1058F00048050020310000009FED030B002180EDE2
:10590000000B8160704700000000000000000000F4
:105910002DE9F04100218148FCF7BCFA04217F48C1
:10592000FCF7B8FA08217D48FCF7B4FA0C217B4853
:10593000FCF7B0FA04217A48FCF7ACFA0821784861
:10594000FCF7A8FA00217748FCF7A4FA0021764872
:10595000FCF7A0FA08217548FCF79CFA6F48FBF7A2
:1059600091FF6F48FBF78EFF6E48FBF78BFF6E4889
:10597000FBF788FF6D48FBF785FF6D48FFF774FA6A
:105980006B4D6B48002645F82F6B3D22634908306C
:10599000FAF747FC614C14F83D0FA8756078E8757C
:1059A000A0782876E07868762079A8766079E8761D
:1059B000A0792877E0796877207AA877607AE87705
:1059C000082745F82B7C5B48FFF74EFA594D59489C
:1059D0004FF0010845F82F8B3D2250490830FAF767
:1059E00020FC2078A8756078E875A0782876E078A3
:1059F00068762079A8766079E876A0792877E079CA
:105A00006877207AA877607AE8770C2045F82B0C25
:105A10004948FFF729FA484C4748022544F82F5BCC
:105A20003D2240490830FAF7FCFB3E4810F83D1F84
:105A3000A1754178E17581782176C1786176017927
:105A4000A1764179E17681792177C1796177017A0F
:105A5000A177407AE07744F82B6C3848FFF704FAD6
:105A6000364C03203D2244F82F0B34482E49083091
:105A7000FAF7D7FB2C4810F83D1FA1754178E17566
:105A800081782176C17861760179A1764179E176D4
:105A900081792177C1796177017AA177407AE077BE
:105AA00044F82B6C2648FFF7DFF9254C04203D22F3
:105AB00044F82F0B22481D490830FAF7B2FB1B4867
:105AC00010F83D1FA1754178E17581782176C17884
:105AD00061760179A1764179E17681792177C17981
