:020000040800F2
:10000000980C00209D010008FF2D0008E72700083C
:10001000FD2D0008C1080008C537000800000000D9
:10002000000000000000000000000000032E000897
:100030009909000800000000012E0008052E0008A4
:10004000B7010008B7010008B7010008B7010008B0
:10005000B7010008B7010008B7010008B7010008A0
:10006000B7010008B7010008B7010008B701000890
:10007000C5080008B7010008B7010008B70100086B
:10008000D1080008B7010008B7010008B70100084F
:10009000B7010008B7010008B7010008B701000860
:1000A000B7010008A92E0008B7010008B701000831
:1000B000B52E0008C12E0008CD2E0008B70100089B
:1000C000B7010008B7010008B7010008B701000830
:1000D000B70100080D360008253600083D36000837
:1000E000B7010008B7010008B7010008B701000810
:1000F000E52E0008B7010008B7010008B7010008A5
:10010000B7010008B7010008D92E0008B7010008A0
:10011000B7010008B7010008B7010008B7010008DF
:10012000B7010008DD080008E9080008B701000869
:10013000B7010008B7010008B7010008B7010008BF
:10014000B7010008B7010008B7010008B7010008AF
:10015000B7010008B7010008B701000855360008CC
:10016000B7010008B7010008B7010008B70100088F
:10017000B7010008B7010008B7010008000000003F
:10018000B7010008B7010008DFF80CD000F034FB1D
:10019000004800476D3D0008980C00200648804745
:1001A00006480047FEE7FEE7FEE7FEE7FEE7FEE75C
:1001B000FEE7FEE7FEE7FEE7992E0008890100084A
:1001C0002DE9F05F0546002092469B46884606468C
:1001D000814640241BE0284641464746224600F01F
:1001E0008CFA53465A46C01A914110D3114618460C
:1001F000224600F073FA2D1A67EB01084F4622469B
:100200000120002100F06AFA17EB00094E41201E80
:10021000A4F10104DFDC484631462A464346BDE8E6
:10022000F09F40EA01039B0703D009E008C9121FB1
:1002300008C0042AFAD203E011F8013B00F8013BA0
:10024000521EF9D27047D2B201E000F8012B491ECC
:10025000FBD270470022F6E710B513460A46044663
:100260001946FFF7F0FF204610BD2DE9FE4F8046EE
:1002700081EA0300C00F0C46009021F0004123F0FA
:100280000045B8EB0200A94105D240462146904600
:100290001C460B46024623F00040104347D0270D72
:1002A000C7F30A00C3F30A510290401A0190402894
:1002B0006BDAC3F3130040F4801B0098924620B120
:1002C0000023D2EB030A63EB0B0B01985946C0F1F4
:1002D0004002504600F002FA06460D465046594686
:1002E000019A00F01AFA10EB08006141002487EA35
:1002F000115284EAE7731A4340D0009A62B3019A1C
:10030000012A4FEA075215DC001B61EB02014FF096
:10031000004202EA0752CDE90042001C41F580117B
:1003200032462B4600F01AFA03B0BDE8F08F404683
:100330002146F9E7001B61EB0201001C41F5801327
:1003400000185B412018A2F5001747EB030140EAB3
:10035000D570B6196D4111E06D084FEA360645EAD1
:10036000C0754FEA0752001B61EB0201001C41F50A
:10037000801149084FEA30000019514132462B469E
:1003800003B0BDE8F04F00F0DAB900980122400058
:100390000023D0EB020263EBE073009821464FEAA2
:1003A000E074B8EB000061EB0401E9E783F000437F
:1003B0005BE781F0004158E72DE9FE4F81EA030435
:1003C00004F0004421F0004100944FF0000B23F0B2
:1003D000004350EA01045ED052EA03045BD0C3F349
:1003E0000A54C1F30A552C44A4F2F3340194A0FB3F
:1003F0000254C1F3130141F48011C3F3130343F416
:10040000801301FB024400FB034E840A970A44EA6E
:10041000815447EA8357A4FB076802958D0A05FBC0
:1004200007854FEA932C04FB0C542705029D4FEAE5
:10043000065847EA1637B5EB08056EEB070C870E32
:10044000920E47EA811742EA8312A7FB0201B6EB3C
:100450000B0164EB00042B0D43EA0C335E1844EBF4
:100460001C50DA465146E7FB0201C5F313044FEA7C
:100470000B3343EA14534FEA0432019C43EA060368
:10048000A4F10C040294009CCDE900B400F066F9DC
:1004900003B0BDE8F08F00200146F9E72DE9F04DEB
:1004A00081EA030404F0004B21F0004514464FF0AC
:1004B000000A23F0004150EA050220D054EA01026C
:1004C0001DD0C5F30A570246C5F31303C1F3130049
:1004D000C1F30A5640F4801543F48013A7EB0608D5
:1004E000101BD64608F2FD3873EB050002D308F165
:1004F000010801E092185B41B8F1000F03DA002017
:100500000146BDE8F08D00204FF480110646844678
:100510000EE0171B73EB050705D3121B63EB0503F6
:1005200006434CEA010C49084FEA300092185B413F
:1005300050EA0107EDD152EA030012D082EA04002A
:1005400083EA0501084305D0101BAB4106D2012206
:10055000002306E000224FF0004302E06FF00102AA
:1005600053101AEB06004CEB085110EB0A0041EB5C
:100570000B01BDE8F04D00F0E2B80EB5C10F80EA06
:10058000E0700844CA07002140F233438DE80E00B2
:100590000A460B4600F0E2F803B000BD0EB540F28B
:1005A000334102910021CDE900110A460B4600F0CB
:1005B000D5F803B000BD3EB5CA17CB0F002450409C
:1005C0005140C0186141DA0740F233430094CDE94D
:1005D00001232246234600F0C1F803B030BD70B5B8
:1005E000C1F30A5201F000450024C1F3130140F2A7
:1005F000FF3341F480119A4201DA002070BD40F2CD
:1006000033439A42A2F2334203DC524200F075F8BF
:1006100000E090402C43F1D0404270BDC1F30A523B
:1006200010B5C1F3130140F2FF3341F480119A4237
:1006300001DA002010BD40F233439A42A2F2334265
:1006400003DC524200F059F810BD904010BD00008C
:1006500030B5041E71F1000404DB4FF00044404249
:1006600064EB0101141E73F1000405DB1C464FF01E
:100670000043524263EB04038B4208BF824230BD09
:1006800030B5041E71F1000404DB4FF00044404219
:1006900064EB0101141E73F1000405DB1C464FF0EE
:1006A0000043524263EB0403994208BF904230BDBD
:1006B00030B50B46014600202022012409E021FA32
:1006C00002F59D4205D303FA02F5491B04FA02F52F
:1006D0002844151EA2F10102F1DC30BD202A04DB02
:1006E000203A00FA02F1002070479140C2F1200345
:1006F00020FA03F3194390407047202A04DB203A84
:1007000021FA02F00021704721FA02F3D040C2F131
:1007100020029140084319467047202A06DBCB1778
:10072000203A41FA02F043EAE07306E041FA02F3AC
:10073000D040C2F12002914008431946704710B5DD
:10074000141E73F1000408DA401C41F100019218F4
:100750005B411A4301D120F0010010BD2DE9F04D9D
:1007600092469B4611B1B1FA81F202E0B0FA80F2F2
:1007700020329046FFF7B2FF04460F4640EA0A00D7
:1007800041EA0B0153465A46084313D0114653EA37
:10079000010019D0C8F140025046FFF7AEFF0546F0
:1007A0000E46504659464246FFF798FF084305D08B
:1007B000012004E020463946BDE8F08D00200543C5
:1007C00046EAE0762C4337430A986305E40AA0EB37
:1007D00008000022FD0A44EA47540A3002D50020EE
:1007E0000146E9E7010510196941DDE908450019ED
:1007F0006941BDE8F04DA2E7064C074D06E0E06810
:1008000040F0010394E8070098471034AC42F6D357
:10081000FFF7BEFCC85F0008E85F000838B5044673
:100820001EA002F0D1FF1E492068884209D101684C
:10083000C943C90605D4016840680090194802F010
:1008400015FF19492068884209D10168C943C906C2
:1008500005D4016840680090144802F007FF14496D
:100860002068884209D10168C943C90605D40168D6
:10087000406800900F4802F0F9FE0F492068884256
:100880000BD10168C943C90607D4016840680090CC
:10089000BDE83840094802F0E9BE38BD310000002B
:1008A00000100140F80500200044004040060020F0
:1008B000004800408806002000140140D0060020B7
:1008C000FEE70000014800F0C5B80000D80700208E
:1008D000014800F0BFB8000078070020014800F090
:1008E000B9B8000038080020014800F0B3B8000093
:1008F0001807002001681823CAB2103AB2FBF3F2BD
:10090000054B6FF30901032A9B5CC36500D9091DE0
:100910008165084670470000A85F000810B50146D1
:1009200000208B698A6A4FF0C07453B1B3F5005F41
:1009300015D072B1012A0CD0022A0AD0032A09D19B
:1009400004E01AB1012A06D0022A03D1C96AC901FA
:1009500000D5012010BDC96AA142FAD010BD002AFD
:10096000F7D0012AF2D0022AF3D0032AF3D010BD27
:1009700030B50468256825F4802525600468636027
:100980008368402B036803D099600068C26030BD63
:100990009A600068C16030BD704772B6FEE72DE90D
:1009A000F0410446876D00F0C5FA064694F835001C
:1009B0000025022806D08020606584F8345001208C
:1009C000BDE8F0812068016821F01601016020680F
:1009D000416921F080014161206C08B9A06C20B10F
:1009E0002068016821F0080101602068016821F099
:1009F000010101600CE000F09DFA801B052807D979
:100A000020206065032084F8350084F83450D7E74F
:100A100020680068C007EED194F85C103F20884041
:100A2000B860012084F8350084F834500020C7E70E
:100A300090F83510022903D08021416501207047CC
:100A4000052180F835100068016821F0010101607E
:100A5000002070472DE9F84304464FF00009CDF817
:100A6000009063484FF41651A56D0068B0FBF1F794
:100A70002E6894F85C10082000FA01F131420FD082
:100A800021680A6852070BD50A6822F004020A603E
:100A900094F85C108840A860606D40F001006065CB
:100AA00094F85C104FF0010808FA01F0304208D0C9
:100AB00021684969090604D5A860606D40F002000C
:100AC000606594F85C1004208840304208D02168AA
:100AD0000968890704D5A860606D40F0040060656E
:100AE00094F85C1010208840304218D021680968C2
:100AF000090714D5A86020680168490304D5006877
:100B0000000308D5A16C07E00168C90503D401689A
:100B100021F008010160216C09B12046884794F852
:100B20005C1020208840304231D021680968C90615
:100B30002DD5A86094F8350005282068016806D0F6
:100B4000490347D5006800031DD4616C1CE021F007
:100B5000160101602068416921F080014161206C2B
:100B600008B9A06C20B12068016821F0080101607B
:100B700094F85C103F208840A86084F8358084F8A1
:100B80003490216D1FE0E16B09B120468847606D0C
:100B900000282BD0606DC00714D0052084F83500E4
:100BA0002068016821F0010101600098401C00905C
:100BB000B84203D820680068C007F6D184F83580B1
:100BC00084F83490E16C002910D001B02046BDE8D3
:100BD000F04308470168C905D5D4016821F0100128
:100BE000016084F8358084F83490CCE7BDE8F88360
:100BF000840000202DE9F041044600F09BF90646F0
:100C00005CB1022084F83500002584F83450206857
:100C1000016821F0010101600DE00120BDE8F081D3
:100C200000F088F9801B052805D920206065032085
:100C300084F83500F2E720680068C007F0D1226828
:100C4000116820480140D4E901031843D4E9033670
:100C50003343184363691843A3691843E36918438E
:100C6000236A18430843616A042903D1D4E90B13AA
:100C700019430843106020684069666A20F0070144
:100C800030460E43012704280CD1A06A0643E06ACF
:100C900040B12046FFF742FE20B14020606584F855
:100CA0003570BAE7206846612046FFF723FE94F8C6
:100CB0005C203F2191408160656584F8357000209B
:100CC000ACE700003F8010F02DE9F0410446866D4E
:100CD00090F83400002501280DD0012084F834005C
:100CE00094F835700020012F07D084F834000225D5
:100CF0002846BDE8F0810220FBE7022784F8357022
:100D000060652046FFF734FE94F85C103F20884071
:100D1000B0602068016841F016010160206C20B1CC
:100D20002068016841F0080101602068016841F015
:100D300001010160DCE700002DE9F84FDFF8BCA1FC
:100D40000022012503264FF00F090AF1040BAAF136
:100D5000040E00BF0B6805FA02F42340A34270D1D1
:100D60000F7907F00307012F01D0022F16D18768F2
:100D70004FEA420806FA08FC27EA0C07D1F80CC033
:100D80000CFA08FC4CEA070CC0F808C04768A743F7
:100D90000C79C4F3001494403C4344600C79E44360
:100DA000A4070AD0C4684FEA420C06FA0CF7BC4309
:100DB0008F6807FA0CF72743C7600C7904F0030427
:100DC000022C12D1D40800EB840CDCF82040570729
:100DD000FF0E09FA07F824EA0804D1F8108008FA8F
:100DE00007F848EA0408CCF8208004684FEA420C6F
:100DF00006FA0CF7BC430F7907F0030707FA0CF764
:100E0000274307604C6814F4403F70D03C4C27687F
:100E100047F480472760246822F0030704F48044E5
:100E20000094384C07EB040CDCF8084897074FEAAD
:100E3000177809FA08F7BC43334FB84202D10027AC
:100E400024E054E0314FB84201D101271EE0304F79
:100E5000B84201D1022719E02E4FB84201D1032731
:100E600014E02D4FB84201D104270FE02B4FB842B8
:100E700001D105270AE02A4FB84201D1062705E033
:100E8000284FB84201D1072700E0082707FA08F7E2
:100E90002743CCF80878DAF800405746D1F804C068
:100EA0009C435FEACC2C00D51C433C60DBF800403F
:100EB0005F46D1F804C09C435FEA8C2C00D51C43EC
:100EC0003C60DEF800407746D1F804C09C435FEAFE
:100ED0008C3C00D51C433C60084F083F3C68D1F86F
:100EE00004C09C435FEACC3C00D51C433C60521CD0
:100EF000102AFFF42FAFBDE8F88F0000083C014036
:100F0000443802400030014000000240000402402A
:100F100000080240000C0240001002400014024091
:100F200000180240001C02400AB1816170470904A8
:100F3000FBE700000148806870470000780000204F
:100F4000024881680278114481607047780000206F
:100F50000B4810B5016841F400710160016841F46B
:100F600080610160016841F480710160032000F03C
:100F70006FF80F2000F006F800F024F8002010BDF4
:100F8000003C024070B50D4D04464FF47A7128784C
:100F9000B1FBF0F00A490968B1FBF0F000F00CFB7E
:100FA00048B9102C07D200222146501E00F030F81C
:100FB00000206C6070BD012070BD00007800002032
:100FC000840000200A4808B5016841F480410160AE
:100FD000006800F4804000900548001F016841F05F
:100FE00080510160006800F08050009008BD000052
:100FF00044380240002809DB00F01F020121914023
:101000004009800000F1E020C0F8001170470000A6
:10101000F0B40E4B1B680C46C3F30223C3F1070563
:10102000042D00D90425191D072901D2002300E051
:10103000DB1E012606FA05F1491E214099409E401B
:10104000761E16403143F0BC02F0CEBB0CED00E042
:10105000064900F0070208684FF6FF03184040EA0F
:101060000220034A10430860704700000CED00E0C6
:101070000000FA052DE9F0470E46050065D0DFF8BF
:101080001481D8F80000F7B200F00700B04207D290
:1010900088F80070D8F8000000F00700B04254D182
:1010A00028683D4C810712D5400703D5206840F4DD
:1010B000E05020602878000703D5206840F46040A5
:1010C00020602068A96820F0F0000843206028789C
:1010D000C0072DD0304968680839012812D002288D
:1010E00013D0032811D00968890700292DDA216857
:1010F00021F0030101432160FFF71CFF814641F20B
:10110000883A0EE009688903EFE709688901ECE78E
:10111000FFF710FFA0EB0901514502D90320BDE8FC
:10112000F0872068696800F00C00B0EB810FEFD108
:10113000D8F80010404601F00701B14207D9077006
:10114000006800F00700B04201D00120E7E72878EE
:10115000400705D52068E96820F4E0500843206086
:101160002878000706D52068296920F4604040EA05
:10117000C100206000F038F82168084AC1F303116B
:10118000515CC8400649086006480068FFF7FAFE4F
:101190000020C4E7003C024008380240B05F00086D
:1011A000840000207C00002004480549006809688C
:1011B000044AC1F38221515CC8407047840000207A
:1011C00008380240C05F0008044805490068096803
:1011D000044AC1F34231515CC8407047840000208A
:1011E00008380240C05F0008154810B5006810F0CC
:1011F0000C02144813D01449042A0FD0082A0ED127
:101200000F4C241F2268236802F03F025B0207D5BF
:101210002068C0F38810A0FB010106E0084610BD5D
:101220002168C1F38811A1FB00010023FEF7C8FF6C
:101230002168C1F30141491C4900B0FBF1F010BD28
:10124000083802400024F40040787D012DE9F84F71
:1012500004006ED02078DFF84C93C007A9F1040594
:101260004AD009F104000168C1F38101012908D0C5
:101270000068C0F3810002280AD1D9F800004002BA
:1012800006D52868800337D560680028E1D033E0B0
:101290006068B0F5803F10D0B0F5A02F286810D05E
:1012A00020F480302860286820F48020286060685E
:1012B000A8B1FFF73FFE06460DE0286840F48030F5
:1012C000F4E740F480202860F7E700BFFFF732FE24
:1012D000801B642873D828688003F7D50CE0FFF7DB
:1012E00029FE064605E000BFFFF724FE801B6428A8
:1012F000F0D828688003F7D42078DFF8AC82800724
:101300004FF0000A3ED5A748001D016811F00C0FF0
:1013100008D00068C0F3810002280BD1D9F8000082
:10132000400207D42868800716D5E068012800D15C
:1013300012E033E1E068B8B10120C8F80000FFF71F
:10134000F9FD064605E000BFFFF7F4FD801B02280B
:10135000C0D828688007F7D52868216920F0F800F0
:1013600040EAC10028600DE0C8F800A0FFF7E2FDE8
:10137000064604E0FFF7DEFD801B02281FD8286820
:101380008007F7D42078000722D5864F8748616907
:10139000703771B101210160FFF7CCFD064604E012
:1013A000FFF7C8FD801B022809D838688007F7D5E9
:1013B0000EE0C0F800A0FFF7BDFD064605E082E0A4
:1013C000FFF7B8FD801B02287DD838688007F7D466
:1013D0002078400768D5DFF8CCB100270BF13C0B33
:1013E000DBF80000C0000BD4DBF8001041F08051A6
:1013F000CBF80010DBF80000012700F080500090CF
:101400006B4E3068C00510D4306840F48070306096
:10141000FFF790FD009005E0FFF78CFD0099401A62
:10142000022850D83068C005F6D55E4EA0686C36EC
:1014300001280FD00528306810D020F0010030605E
:10144000306820F004003060A068B8B1FFF772FD8A
:1014500000900FE0306840F00100F4E740F0040035
:101460003060F7E7FFF766FD0099411A41F28830D6
:10147000814266D830688007F4D50EE0FFF75AFD48
:10148000009007E0FFF756FD0099411A41F28830BD
:10149000814256D830688007F4D42FB1DBF80010B1
:1014A00021F08051CBF80010A069C8B33D49091D57
:1014B0000968C1F3810102294AD00228504607D0A9
:1014C000C8F8600000E03CE0FFF734FD04463BE074
:1014D0004746C8F86000FFF72DFD064605E000BF4F
:1014E000FFF728FD801B02282BD828688001F7D43D
:1014F000D4E907010843A16A2E4A490802EB0141D9
:10150000626A41EA8211084394F82C1040EA0161B2
:10151000C9F8001001203866FFF70CFD044606E00C
:101520003EE000BFFFF706FD001B022809D828682F
:101530008001F7D534E000BFFFF7FCFC001B022858
:1015400002D90320BDE8F88F28688001F4D427E091
:101550000128F7D0D9F80000E26900F48001914237
:101560001CD1226A00F03F01914217D147F6C071A9
:10157000626A0140B1EB821F10D1A26A4FF0FF33C3
:1015800000F4403103EB5202B1EB024F06D194F864
:101590002C1000F07060B0EB016F01D00120D1E79A
:1015A0000020CFE70438024000004742800E474247
:1015B000007000400000FFFF10B5401EB0F1807FBA
:1015C00001D3012010BD4FF0E02460610F216017AE
:1015D00002F00AF90020A06107202061002010BD60
:1015E0007047704710B590F83C20012A22D00122A4
:1015F00080F83C20CA688C6822F4407222434C6810
:1016000022F4806222430C6822F4006222430C69B7
:1016100022F4805222434C6922F400522243C969C9
:10162000002322F480420A4301684A6480F83C3077
:10163000002010BD022010BD70B590F83C20012A9A
:1016400032D0012480F83C40022280F83D2003681B
:101650005A689D6822F070060A6832435A60134B3C
:1016600002689A4214D0B2F1804F11D0104B9A42C6
:101670000ED0104B9A420BD00F4B9A4208D00F4B12
:101680009A4205D00E4B9A4202D00E4B9A4204D198
:10169000496825F080031943916080F83D4000219E
:1016A00080F83C10084670BD022070BD000001406B
:1016B0000004004000080040000C0040000401400D
:1016C000004001400018004010B5040003D094F819
:1016D0003D0010B107E0012010BD002084F83C005F
:1016E000204600F01FF8022084F83D00211D2068EC
:1016F00001F0FEFB012084F8460084F83E0084F8E7
:101700003F0084F8400084F8410084F8420084F8E7
:10171000430084F8440084F8450084F83D0000202C
:1017200010BD000008B501683048314A81420ED131
:10173000106840F0010010601068002200F0010005
:10174000009011461920FFF763FC192048E0284853
:10175000001FB1F1804F11D0264B99421DD1016875
:1017600041F0020101600068002200F002000090D8
:1017700011461D20FFF74CFC1D2031E0016841F0AF
:10178000010101600068002200F001000090114694
:101790001C20FFF73DFC1C2022E0174B99420ED184
:1017A000016841F0080101600068002200F00800B3
:1017B000009011463220FFF72BFC322010E00F483A
:1017C000814211D1106840F00200106010680022C0
:1017D00000F00200009011462C20FFF719FC2C208D
:1017E000BDE80840FFF706BC08BD0000000001404E
:1017F0004438024000040040000C00400004014056
:1018000090F83D10012901D001207047022180F895
:101810003D100168CA6842F00102CA6000681149BF
:10182000884214D0B0F1804F11D00F4988420ED0B9
:101830000E4988420BD00E49884208D00D49884293
:1018400005D00D49884202D00C49884204D18168F4
:1018500001F00701062903D0016841F00101016090
:1018600000207047000001400004004000080040D4
:10187000000C0040000401400040014000180040FE
:1018800070B5044690F83C000025012817D00126C9
:1018900084F83C60022084F83D002068826822F0D1
:1018A000770222F47F4282600868502838D00DDC2D
:1018B00020284FD005DC90B3102811D14AE0022037
:1018C00070BD302846D040280AD13BE060282FD098
:1018D00070280DD0B0F5805F03D0B0F5005F12D056
:1018E000012584F83D60002084F83C00284670BD46
:1018F000CB68D1E90121206801F073FB2068816881
:1019000041F0770109E0CB68D1E90121206801F0BD
:1019100068FB2068816841F480418160E1E719E05B
:10192000CA684968206801F031FC5021206806E04F
:10193000CA684968206801F03AFC6021206801F01B
:101940005AFBCEE7CA684968206801F01FFC4021B5
:101950002068F4E7226801461046F0E770472DE959
:10196000F04104460068C66805694FF00007A90702
:1019700013D5B10711D5F91E016101202077206828
:1019800080698007204602D0FFF7E8FF04E000F0FE
:1019900015F9204600F0C4F92777680716D57007B7
:1019A00014D521686FF004000861022020772068B8
:1019B000806910F4407F204602D0FFF7CFFF04E09B
:1019C00000F0FCF8204600F0ABF92777280715D582
:1019D000300713D521686FF00800086104202077D4
:1019E0002068C0698007204602D0FFF7B7FF04E0F7
:1019F00000F0E4F8204600F093F92777E80616D5C2
:101A0000F00614D521686FF01000086108202077D7
:101A10002068C06910F4407F204602D0FFF79EFF87
:101A200004E000F0CBF8204600F07AF92777E807C9
:101A300008D0F00706D021686FF001000861204649
:101A400000F032FA280608D5300606D521686FF076
:101A5000800008612046FFF7C3FD680608D57006C0
:101A600006D521686FF040000861204600F066FB53
:101A7000A8060AD5B00608D521686FF020000861D5
:101A80002046BDE8F041FFF7ACBDBDE8F0810000A5
:101A900070B586B0044614216846FEF7DBFB3D486E
:101AA000226800243C490225012682420FD10868A1
:101AB00040F0100008600868694600F010000590CA
:101AC0004FF4D4400090CDE90154344834E003236E
:101AD0003348B2F1804F10D0324EB24232D10A6850
:101AE00042F001020A60096801F0010105914021FC
:101AF0000091CDE90154694635E00A6842F00102DF
:101B00000A600A6802F0010205920A6842F00202C5
:101B10000A6009680093CDE9015401F00201CDE9A2
:101B2000046103946946FFF707F94FF440600090A1
:101B3000CDE901541C486946CDE90346FFF7FCF89E
:101B400006B070BD1948824210D1086840F0080004
:101B500008600868694600F008000590901400903D
:101B6000CDE901541248CDE90345E7E71148824227
:101B7000E6D1086840F0040008600868694600F093
:101B80000400059090150090CDE90154CDE9034380
:101B90000948D3E7000001403038024000100240FD
:101BA0000000024000040040000402400008004021
:101BB000000C02400004014000080240704770B56C
:101BC000044690F83C0000260D4601280FD0012065
:101BD00084F83C006AB1042A1DD0082A2FD00C2AB0
:101BE0003FD00126002084F83C00304670BD022022
:101BF00070BD206801F008FA2068816941F0080191
:101C000081612068816921F0040181612068816916
:101C10002A69114311E0206801F026FA20688169E1
:101C200041F4006181612068816921F480618161F2
:101C3000206881692A6941EA02218161D2E720682E
:101C400001F048FA2068C16941F00801C1612068CB
:101C5000C16921F00401C1612068C1692A69114389
:101C600011E0206801F06AFA2068C16941F400615E
:101C7000C1612068C16921F48061C1612068C169C6
:101C80002A6941EA0221C161ACE710B5040003D022
:101C900094F83D0010B107E0012010BD002084F849
:101CA0003C00204600F01EF8022084F83D00211D73
:101CB000206801F01DF9012084F8460084F83E00F8
:101CC00084F83F0084F8400084F8410084F8420022
:101CD00084F8430084F8440084F8450084F83D000B
:101CE000002010BD08B500680B49884212D10B488E
:101CF000016841F0040101600068002200F0040066
:101D0000009011461E20FFF783F9BDE808401E2011
:101D1000FFF770B908BD00000008004040380240DD
:101D20007047000010B50446022249B104290ED0C4
:101D3000082913D094F84100012816D0012010BDC5
:101D400094F83E000128F9D184F83E200FE094F881
:101D50003F000128F2D184F83F2008E094F84000C9
:101D60000128EBD184F8402001E084F841200122D1
:101D7000206801F029F916492068164A884201D0E6
:101D8000904203D1436C43F400434364206888428B
:101D900013D0B0F1804F10D00F4988420DD00F49B9
:101DA00088420AD00E49884207D0904205D00D499A
:101DB000884202D00C49884204D1816801F00701B1
:101DC000062903D0016841F001010160002010BD27
:101DD00000000140000401400004004000080040F1
:101DE000000C0040004001400018004070B50D009C
:101DF00004464FF0000607D0042D0AD0082D0DD060
:101E00000C2D10D001263FE02068C16821F00201AE
:101E10000DE02068C16821F0040108E02068C16875
:101E200021F0080103E02068C16821F01001C160C1
:101E300000222946206801F0C7F8194B41F2111120
:101E400020688A10984202D0164B984209D1036A42
:101E50000B4206D1036A134203D1436C23F40043BF
:101E600043642068036A0B4206D1016A114203D120
:101E7000016821F00101016001203DB1042D08D06D
:101E8000082D09D084F84100304670BD84F83E002A
:101E9000FAE784F83F00F7E784F84000F4E7000031
:101EA00000000140000401402DE9F05F8D4D064621
:101EB0002DED0A8B0027006829688B4C88427DD164
:101EC000DFF828829FED8ABB9FED8BCBDFF8309245
:101ED0009FED8C8B9FED8DAB9FED8E9B2068DFF887
:101EE0003CA201286BD18EA001F06EFC6068401C02
:101EF0006060FFF71FF8FEF751FB53EC192BFEF75C
:101F0000CDFA98ED001B53EC112BFEF74FFA53EC72
:101F10001B2BFEF79DFB41D2FFF70CF8FEF73EFBB3
:101F200053EC192BFEF7BAFA98ED001B53EC112B6A
:101F3000FEF73CFA53EC1C2BFEF7A2FB2ED294EDDD
:101F40000C0B53EC102B99ED000B51EC100BFEF722
:101F500033FA8B464BEC100B804653EC102B51ECB4
:101F6000180BFEF79BFAFEF759FB2968C8624BEC89
:101F7000108B51EC180B53EC102BFEF78FFAFEF779
:101F80004DFB4BEC108BE86053EC102B51EC1A0B13
:101F9000FEF784FAFEF742FB2968C863FEF7CAFF22
:101FA000FEF7FCFA53EC192BFEF778FA9AED001BBA
:101FB000D04653EC112BFEF7FCF901E062E051E052
:101FC00053EC1B2BFEF744FB41D2FEF7B3FFFEF7A9
:101FD000E5FA53EC192BFEF761FA98ED001B53EC70
:101FE000112BFEF7E6F953EC1C2BFEF749FB2ED222
:101FF00094ED0C0B53EC102B99ED000B51EC100BE6
:10200000FEF7DAF9894649EC100B804653EC102BA9
:1020100051EC180BFEF742FAFEF700FB2968C86284
:1020200049EC108B51EC180B53EC102BFEF736FAE1
:10203000FEF7F4FA49EC108BE86053EC102B51ECEE
:102040001A0BFEF72BFAFEF7E9FA2968C863D4E900
:102050000101884206D16760276008212148A760F6
:10206000FFF7C4FEE06801280CD12069401C206104
:102070006169884206D12761E7600C2119486761D0
:10208000FFF7B4FE29493068096888420FD1A0697A
:1020900001280CD1E069401CE061216A884206D128
:1020A000E761A761002121482762FFF79FFE2049D1
:1020B00030680968884210D1D4E90A01401C41F116
:1020C0000001C4E90A01FEF776FA9FED1A1B53ECF2
:1020D000112BFEF7E3F9C4E90C01BDEC0A8BBDE856
:1020E000F09F00004804002030000020180000206D
:1020F0009A9999999999B93F000000000000000051
:102100002800002000000000004EBB40000000003E
:102110000034A2400000000000408F40200000205A
:102120006D6F746F725F696E00000000D80400204C
:102130006805002000000000000024407047704740
:1021400010B504460068406994F84110C0F3C0100F
:10215000212911D180B12068143050E8001F21F0EE
:10216000800140E80012002AF5D1A06B08B1FEF70B
:1021700016FC204601F0D3F82068406994F842101C
:10218000C0F38010222911D180B12068143050E8AA
:10219000001F21F0400140E80012002AF5D1E06B59
:1021A00008B1FEF7FCFB204601F092F8002010BDBC
:1021B00070470000F8B5016804460868CA684B69B2
:1021C00010F00F0F4FF0000559D003F0010602F494
:1021D0009077374365D0C10705D0D10503D5616C31
:1021E00041F001016164410705D5D90703D0616C55
:1021F00041F002016164810705D5D90703D0616C04
:1022000041F004016164010707D502F02001314368
:1022100003D0616C41F008016164616C00293AD01F
:10222000800604D5900602D5204601F086F8206885
:102230004069616CC0F38010090700D460B3204688
:1022400001F046F820684069400621D52068143026
:1022500050E8001F21F0400140E80012002AF5D1AB
:10226000E06BA8B16E490165E06BFEF7E1FB002869
:1022700011D0E06B016D01B0BDE8F0400847830666
:102280000FD593060DD52046BDE8F84001F055B8AE
:102290002046FFF78DFFF8BD2046FFF789FF6564F4
:1022A000F8BD266B2023012E7DD1C6067BD5D60630
:1022B00079D508684868009048694FF002064006E2
:1022C00041D5E16B086840680004000CE8D0A28D9D
:1022D0008242E5D9E085C869B0F5807F2DD02068BD
:1022E0000C3050E8001F21F4807140E80012002AF1
:1022F000F5D12068143050E8001F21F0010140E8BA
:102300000012002AF5D12068143050E8001F21F097
:10231000400140E80012002AF5D184F842302563DC
:1023200020680C3050E8001F21F0100140E8001236
:10233000002AF5D1E06BFEF732FB6663A08DE18DDC
:10234000401A81B22AE0A08DE18D401A81B2E08D61
:102350000028A5D00029A3D022680C3252E8000F33
:1023600020F4907042E80007002FF5D12068143067
:1023700050E8002F22F0010240E80027002FF5D19D
:1023800084F84230256320680C3050E8002F22F09A
:10239000100240E80023002BF5D166632046FFF7CA
:1023A000CEFEF8BDFFE705062BD5150629D594F816
:1023B00041002128F5D1A068B0F5805F01D12069E6
:1023C000B0B1206A411C2162216800784860E08C2D
:1023D000401E0004000CE084E3D12068C16821F0B5
:1023E0008001C1602068C16841F04001C160D8E748
:1023F000206A0088C0F308004860206A801C2062C0
:10240000E5E74006CDD55006CBD5CA68204622F078
:102410004002CA6084F8413000F0E4F9C1E70000EE
:10242000D331000870B5040004D094F841000025B1
:1024300010B106E0012070BD84F84050204600F045
:1024400023F8242084F841002068C16821F4005159
:10245000C160204600F0D2FF2068016921F490415C
:1024600001612068416921F02A0141612068C16849
:1024700041F40051C1606564202084F8410084F873
:1024800042006563002070BD2DE9F04F87B005461E
:1024900014216846FDF7DEFE9748DFF858821438AD
:1024A0000221D5F800C00024DFF84CA20322072344
:1024B000DFF848B28F060615C44541D1DAF800802E
:1024C00048F01008CAF80080DAF800C00CF0100CD0
:1024D000CDF814C0D0F800C04CF0010CC0F800C01A
:1024E000006800F00100059050028DE81300694675
:1024F0005846CDE90323FEF71FFCDFF80882804928
:102500004046C8F80010C0E90174C0E90346C8F8A5
:102510001440F101C8F81840C8E90741C8F8244040
:10252000FEF768FB08B1FEF738FAC5F83C800022D8
:1025300011462520C8F83850FEF76AFD25204BE0EB
:10254000DFF8C481DFF8B091C445A9F1040948D18E
:10255000D9F8008048F40038C9F80080D9F800C0E4
:102560000CF4003CCDF814C0D0F800C04CF0010CC5
:10257000C0F800C0006800F0010005900C208DE854
:10258000130069465846CDE90323FEF7D5FBDFF873
:1025900074815E4908F160084046C8F80010C0E93F
:1025A0000174C0E90346C8F81440C8F81840C8F8D8
:1025B0001C40C8F82040C8F82440FEF71BFB08B1B7
:1025C000FEF7EBF9C5F83C80002211462620C8F83A
:1025D0003850FEF71DFD2620FEF70CFD07B0BDE8C4
:1025E000F08FDFF82C81C44546D1D9F8008048F43B
:1025F0008028C9F80080D9F800C00CF4802CCDF8F0
:1026000014C0D0F800C04CF0080CC0F800C000683E
:1026100000F0080005904FF440708DE81300694603
:102620003C48CDE90323FEF787FBDFF8D880374924
:1026300008F1C00860394046C8F80010C0E90174CC
:10264000C0E90346C8F81440C8F81840C8F81C4050
:10265000C8F82040C8F82440FEF7CCFA08B1FEF7CD
:102660009CF9C5F83C80002211462720C8F8385054
:10267000FEF7CEFC2720AFE7274B9C45AED1DAF81A
:10268000007047F02007CAF80070DAF8003003F055
:1026900020030593036843F004030360006800F01F
:1026A00004000590C0208DE813000820CDE9032028
:1026B00069461A48FEF740FB1148194F1838386030
:1026C0008005C7E90104C7E903467C61BC61FC6180
:1026D0003C6238467C62FEF78DFA08B1FEF75DF980
:1026E000EF63002211464720BD63FEF791FC4720AF
:1026F00072E7000000100140443802400000024030
:1027000040640240180700200044004088600240F6
:1027100000480040000C0240001401400008024044
:102720003808002090F84230202B01D0022070475A
:1027300021B11AB10023036300F0E6BE0120704707
:10274000704770472DE9F843044690F841009846D9
:1027500016460D46202802D00220BDE8F88385B138
:102760007EB100206064212084F84100FEF7E2FB86
:10277000A6848146E684A0682027B0F5805F02D059
:1027800003E00120E9E7206910B12E4600250EE0A4
:1027900000260CE08021204600F0FEFEA8B9C6B15C
:1027A00016F8010B21684860E08C401EE084E08C44
:1027B0004B464FF00002CDF800800028EAD14FF0E0
:1027C0004001204600F0E8FE40B184F8417003204B
:1027D000C3E735F8020BC0F30800E3E784F8417063
:1027E0000020BAE77047FEE7194808B5016841F4D0
:1027F00000110160016801F400110091016841F4C9
:10280000800101600068002200F480000090114601
:102810000C20FEF7FDFB0C20FEF7ECFB002211461E
:102820001020FEF7F5FB1020FEF7E4FB0022114616
:102830003920FEF7EDFB3920FEF7DCFB00221146C4
:102840003A20FEF7E5FBBDE808403A20FEF7D2BB90
:10285000303802402DE9F04186B014216846FDF77A
:10286000F9FC2E480024016841F0800101600168F4
:1028700001F080010591016841F0040101600168E7
:1028800001F004010591016841F001010160016856
:1028900001F001010591016841F01001016001683A
:1028A00001F010010591016841F002010160016829
:1028B00001F002010591016841F008010160006822
:1028C000174F00F008000590002201213846FEF75E
:1028D0002BFBDFF850804FF47C76002231464046D7
:1028E000FEF722FB01250095CDE9015469463846E3
:1028F0000394FEF721FA0820CDE90004694640461A
:102900000294FEF719FA0096CDE901546946404653
:102910000394FEF711FA06B0BDE8F08130380240AA
:10292000000802400004024010B596B000240F9445
:1029300010941194129413941C2168461494FDF77A
:1029400089FC202107A8FDF785FC34483249016045
:102950004821C0E9011442F20F71C0E90314446137
:102960008461FEF7B1FE08B1FEF717F84FF480500E
:102970000F900FA92948FEF783FF08B1FEF70DF865
:102980002648FFF782F908B1FEF707F8139413A958
:1029900022481494FEF750FE08B1FDF7FEFF6020B8
:1029A000CDE900040294039404940594002269463E
:1029B0001A480694FFF703F908B1FDF7EEFF042269
:1029C00069461648FFF7FBF808B1FDF7E6FF082255
:1029D00069461248FFF7F3F808B1FDF7DEFF0C2255
:1029E00069460E48FFF7EBF808B1FDF7D6FF0794EC
:1029F000089409944FF400500A94CDE90B4007A9BC
:102A000006480E94FEF7EEFD08B1FDF7C6FF034839
:102A1000FFF73EF816B010BD00000140480400204A
:102A200010B58EB000240794089409940A940B946E
:102A30001C2168460C94FDF70DFC29484FF080419D
:102A4000C0E90014611EC0E9024104618461FEF71F
:102A50003BFE08B1FDF7A1FF4FF48050079007A996
:102A60001F48FEF70DFF08B1FDF797FF1C48FFF761
:102A70000CF908B1FDF791FF0B940BA918480C94C1
:102A8000FEF7DAFD08B1FDF788FF6020CDE900040C
:102A900002940022694612480494FFF790F808B1A6
:102AA000FDF77BFF042269460D48FFF788F808B15F
:102AB000FDF773FF082269460948FFF780F808B15F
:102AC000FDF76BFF0C2269460548FFF778F808B15F
:102AD000FDF763FF0248FEF7DBFF0EB010BD0000FC
:102AE0009004002010B58EB0002407940894099437
:102AF0000A940B941C2168460C94FDF7ABFB1E480E
:102B00001C4901604821C0E9011442F20F71C0E97B
:102B100003148461FEF7D8FD08B1FDF73EFF4FF4C2
:102B20008050079007A91448FEF7AAFE08B1FDF7E8
:102B300034FF1148FFF7A9F808B1FDF72EFF0B94F9
:102B40000BA90D480C94FEF777FD08B1FDF725FFA2
:102B50006020CDE9000402940022694606480494EE
:102B6000FFF72DF808B1FDF718FF0348FEF790FFB7
:102B70000EB010BD00040040D804002010B58AB08B
:102B8000002407941C2168460894FDF763FB16484F
:102B9000144901604821C0E9011442F20F71C0E9F3
:102BA00003148461FFF771F808B1FDF7F6FE07948E
:102BB00007A90D480894FEF73FFD08B1FDF7EDFEAB
:102BC0006020CDE90004029400226946064804947E
:102BD000FEF7F5FF08B1FDF7E0FE0348FEF758FFEA
:102BE0000AB010BD000800402005002010B586B0D6
:102BF0000024174800940194029403940494134908
:102C0000059401604721C0E9011442F20F71C0E947
:102C100003148461FEF758FD08B1FDF7BEFE4FF4C2
:102C20008050009069460A48FEF72AFE08B1FDF779
:102C3000B4FE049404A906480594FEF7FDFC0028A0
:102C400001D0FDF7AAFE06B010BD0000000C004048
:102C50006805002010B596B000240F9410941194CC
:102C6000129413941C2108A81494FDF7F3FA202160
:102C70006846FDF7EFFA2848264901604821C0E977
:102C8000011442F20F71C0E9031444618461FEF73C
:102C90001BFD08B1FDF781FE4FF480500F900FA986
:102CA0001D48FEF7EDFD08B1FDF777FE1A48FEF767
:102CB000ECFF08B1FDF771FE139413A916481494A4
:102CC000FEF7BAFC08B1FDF768FE6020CDE9080404
:102CD0000A940B940C940D94082208A90E480E94A3
:102CE000FEF76DFF08B1FDF758FE00944FF4005059
:102CF000CDE9044002940194039469460648079480
:102D0000FEF770FC08B1FDF748FE0348FEF7C0FE71
:102D100016B010BD00040140B00500200C4810B5ED
:102D20000A4901604FF461214160002181600C2259
:102D3000C160C0E904128161C161FFF773FB002823
:102D400003D0BDE81040FDF728BE10BD00100140C3
:102D5000F80500200C4810B50A4901604FF4E13134
:102D60004160002181600C22C160C0E904128161D0
:102D7000C161FFF757FB002803D0BDE81040FDF705
:102D80000CBE10BD00440040400600200C4810B5A9
:102D90000A4901604FF4E1314160002181600C2259
:102DA000C160C0E904128161C161FFF73BFB0028EB
:102DB00003D0BDE81040FDF7F0BD10BD0048004055
:102DC000880600200C4810B50A4901604FF4E13133
:102DD0004160002181600C22C160C0E90412816160
:102DE000C161FFF71FFB002803D0BDE81040FDF7CD
:102DF000D4BD10BD00140140D0060020FEE7FEE760
:102E000070477047FEF79CB830B593B030216846E4
:102E1000FDF720FA14210CA8FDF71CFA1C48002429
:102E2000016841F080510160006800F0805011900D
:102E30001848016841F4804101600068022500F4EF
:102E40008040119001200390102004900095069579
:102E50000820CDE907404820CDE9090504200B9062
:102E60006846FEF7F3F908B172B6FEE70F20CDE928
:102E70000C054FF48050CDE90E4002210CA81094AF
:102E8000FEF7F8F8002801D072B6FEE713B030BDA7
:102E900040380240007000400248016841F470016F
:102EA0000160704788ED00E00148FEF758BD000062
:102EB000480400200148FEF752BD000090040020A5
:102EC0000148FEF74CBD0000D80400200148FEF781
:102ED00046BD0000200500200148FEF740BD00006F
:102EE000680500200148FEF73ABD0000B00500204B
:102EF000F0B50268294C2A4D2A4E2B4F2B4B4FF030
:102F0000804CA04209D0604507D0A84205D0B0420D
:102F100003D0B84201D0984204D122F0700E4A6822
:102F200042EA0E02A0421BD0604519D0A84217D039
:102F3000B04215D0B84213D0984211D01C4DA842CF
:102F40000ED01C4DA8420BD01B4DA84208D01B4DE3
:102F5000A84205D01A4DA84202D01A4DA84203D16A
:102F600022F44075CA682A434D6922F080022A4340
:102F700002608A68C2620A688262A04201D09842F6
:102F800001D109690163012141610169C90703D0C8
:102F9000016921F001010161F0BD00000000014064
:102FA0000004004000080040000C00400004014004
:102FB000004001400044014000480140001800402A
:102FC000001C00400020004010B501F01F0301214B
:102FD000046A99408C430462016A9A401143016279
:102FE00010BD10B5846842EA032224F47F440A43EA
:102FF0002243826010BD826822F070020A4342F0D0
:103000000701816070470000F0B5036A026A22F090
:103010000102026242688469124E24F073050C6852
:103020002C4323F002058B682B430D4DA84201D0A1
:10303000B04205D123F00807CB683B4323F00403DB
:10304000A84201D0B04205D14D6922F44072154327
:103050008A692A4342608461496841630362F0BD22
:103060000000014000040140F0B5026A036A23F049
:1030700010030362436884690D6824F4E64444EA5B
:1030800005248D6822F0200242EA05120F4D104EF1
:10309000A84201D0B04206D1CF6822F0800242EAB5
:1030A000071222F04002A84201D0B04207D14D6978
:1030B00023F4406343EA85038D6943EA8503436053
:1030C0008461496881630262F0BD00000000014034
:1030D00000040140F0B5026A036A23F480730362BE
:1030E0004368C46922F4007224F073050C68124E20
:1030F0002C438D6842EA05220E4DA84201D0B04211
:1031000006D1CF6822F4006242EA072222F48062EC
:10311000A84201D0B04207D14D6923F4405343EA9D
:1031200005138D6943EA05134360C4614968C163AF
:103130000262F0BD000001400004014030B5046AA5
:10314000026A22F4805202624268C3690D6823F465
:10315000E64343EA05238D6824F4005444EA053429
:10316000084DA84202D0084DA84204D14D6922F46E
:10317000804242EA85124260C36149680164046288
:1031800030BD0000000001400004014010B5036A9A
:10319000046A24F001040462846924F0F00444EA1F
:1031A000021423F00A020A438461026210BD10B5C2
:1031B000036A046A24F010040462846923F0A00303
:1031C00024F4704444EA023243EA0111826101624C
:1031D00010BD10B5806B0021C185C184FEF7E8FFEA
:1031E00010BD70B5846B2068406994F84110C0F33D
:1031F000C0100025212904D118B1E584204600F033
:103200008EF82068406994F84210C0F3801022299B
:1032100004D118B1E585204600F05AF8606C40F002
:10322000100060642046FEF7C3FF70BD10B5014674
:10323000806B096809684FF00002C9052ED4C28569
:1032400001680C3151E8003F23F4807341E80034F9
:10325000002CF5D10168143151E8003F23F001033F
:1032600041E80034002CF5D10168143151E8003FE9
:1032700023F0400341E80034002CF5D1202180F8F0
:103280004210016B012909D101680C3151E8003F5E
:1032900023F0100341E80034002CF5D14263016BA8
:1032A000012902D0FFF74CFA10BD818DFEF747FFD0
:1032B00010BD10B5806B01214163016B012902D063
:1032C000FFF73FFA10BD818D4908FEF738FF10BDAA
:1032D00001680C3151E8002F22F4907241E800237C
:1032E000002BF5D10168143151E8002F22F00102C2
:1032F00041E80023002BF5D1016B012909D10168B8
:103300000C3151E8002F22F0100241E80023002B7D
:10331000F5D1202180F84210002101637047016837
:103320000C3151E8002F22F0C00241E80023002BAD
:10333000F5D1202180F84110704708B590F842106F
:10334000222901D0022008BD82684FF480539A429E
:1033500001D1016921B1816A9A421BD04AB10AE0C8
:103360000268816A5268C2F308020A80816A891C75
:1033700008E0026972B10268526802F07F020A70C6
:10338000816A491C8162C18D491E0904090CC185ED
:1033900003D01BE002685268F1E70168CA6822F0B6
:1033A0002002CA600168CA6822F48072CA6001689B
:1033B0004A6922F001024A61202180F8421000216E
:1033C0004163026B012A03D0FFF7BAF9002008BD60
:1033D000016301680C3151E8002F22F0100241E82E
:1033E0000023002BF5D101680A68D20602D50A68CD
:1033F00049680091818DFEF7A2FEE7E770B50446AB
:1034000000680169E26821F44051114301612169BA
:10341000A068E26908436169114308432168CA68EA
:1034200049F20C639A430243CA6020684169A26969
:1034300021F440711143416131492068884202D032
:103440003049884202D1FDF7BFFE01E0FDF7ACFE36
:10345000E2690023192164253226B2F5004F626823
:1034600028D0A0FB0101930F9200FCF7A9FE0146B2
:10347000B0FBF5F06FF01802504301EB800006EB53
:103480000010B0FBF5F000F0F002B1FBF5F002EB3C
:103490000012B1FBF5F06FF01803584301EB800008
:1034A00006EB0010B0FBF5F000F00F0021681044AF
:1034B000886070BDA0FB010192185B41FCF780FEA3
:1034C0000146B0FBF5F00201B1FBF5F06FF0180317
:1034D000584301EB800006EBC000B0FBF5F000F0B4
:1034E000F80002EB4002B1FBF5F0584301EB80001D
:1034F00006EBC000B0FBF5F000F00700D6E70000D7
:10350000001001400014014038B5816204468285F4
:10351000002013466064222284F84220E56B1B4A97
:10352000EA63E56B1A4A2A64E56B1A4AEA64E26BBD
:1035300010650A462168E06B091DFDF7C5FB206890
:10354000016840680090206948B120680C3050E85C
:10355000001F41F4807140E80012002AF5D1206874
:10356000143050E8001F41F0010140E80012002A29
:10357000F5D12068143050E8001F41F0400140E8C8
:103580000012002AF5D1002038BD00002D320008BD
:10359000B3320008E33100082DE9F8439846174696
:1035A0000D460446089E24E0701C22D0FDF7C2FCA4
:1035B000A0EB0800B0421AD8CEB12068C168490714
:1035C00017D5802D15D0402D13D00168C9430907A8
:1035D0000FD401680025406800902046FFF778FE70
:1035E0000820606484F840500120BDE8F88303207F
:1035F000FBE72068006835EA000004D00020B842EC
:10360000D2D00020F1E70120F9E7000010B504480E
:10361000FEF7D0FDBDE810400148FDF7FFB80000FF
:10362000F805002010B50448FEF7C4FDBDE81040C1
:103630000148FDF7F3B800004006002010B504482B
:10364000FEF7B8FDBDE810400148FDF7E7B80000FF
:103650008806002010B50448FEF7ACFDBDE8104018
:103660000148FDF7DBB80000D006002070B5044625
:10367000FF23052246A14848FFF764F84749206820
:1036800088421BD12046FEF75BFD45480068406834
:103690004449C0F13200C5B2322201F13200FCF7D8
:1036A000C0FD4048323000F069F929463D48FCF73A
:1036B000D1FD32223B492046FFF734F83A492068D1
:1036C00088421ED12046FEF73BFD3848006840681E
:1036D0003449C0F13200C5B26431322201F1320006
:1036E000FCF79FFD2F48963000F010FB2D4829462F
:1036F0006430FCF7AFFD2B49322264312046FFF7DE
:1037000011F82B49206888421ED12046FEF718FD8B
:103710002848006840682349C0F13200C5B2C8316A
:10372000322201F13200FCF77CFD1E48FA3000F035
:10373000FFFA1C482946C830FCF78CFD1949322293
:10374000C8312046FEF7EEFF1B49206888421DD194
:103750002046FEF7F5FC1948006840681849C0F19A
:103760003200C5B2322201F13200FCF75AFD144892
:10377000323000F0DDFA29461148FCF76BFD204697
:10378000BDE8704032220E49FEF7CCBF70BD00008C
:103790005343414E46000000F80500200010014050
:1037A00018070020B80200200044004078070020DD
:1037B00000480040D80700200014014038080020CD
:1037C000E4030020FEE700000FB4054B10B503A989
:1037D000044A029800F028F810BC5DF814FB0000C1
:1037E000553D0008880000200907090E002804DB69
:1037F00000F1E02080F80014704700F00F0000F1A5
:10380000E02080F8141D704702E008C8121F08C1AC
:10381000002AFAD170477047002001E001C1121F51
:10382000002AFBD1704700002DE9FF4F89B09B466D
:103830000446002506E025280BD05A460B999047F0
:10384000641C6D1C20780028F5D10DB02846BDE819
:10385000F08F0027B8460122474900E0074314F8DB
:10386000013F203B02FA03F00842F7D120782E28CE
:1038700019D114F8010F47F004072A280ED06FF071
:103880002F022078A0F1300109290CD808EB88011B
:1038900002EB410100EB0108641CF2E70A98641C8A
:1038A00050F8048B0A9020780028CED0642808D0E5
:1038B000692806D075281ED05A460B9990476D1C72
:1038C00058E00A994FF00A0901C90A91002802DA62
:1038D00040422D2102E0390504D52B218DF820101E
:1038E000012103E0F90704D02021F7E78A4608AE5A
:1038F0000DE00021FAE70A994FF00A0901C90A917F
:10390000F7E74946FCF7D4FE303106F8011D0028E0
:10391000F7D1ADEB060000F12009780701D44FF094
:103920000108C84502DDA8EB090000E00020804640
:10393000002706E008A85A46C05D0B9990476D1C09
:103940007F1C5745F6DB04E030205A460B99904720
:103950006D1CB8F10001A8F10108F5DC05E016F8CE
:10396000010B5A460B9990476D1CB9F10001A9F162
:103970000109F4DC641C65E709280100F0B52DEDB0
:10398000048B0446B1B0FF230522CFA1D048FEF737
:10399000D9FE2078512826D1607852287ED1A0788F
:1039A000CC4F3038C1B2CB48FF1C0170E278303ABE
:1039B000D2B242702379303BDBB28370A0793038C9
:1039C000C5B23D70E0793038C6B27E70207A3038AA
:1039D000C0B2B8700095CDE90160BFA0FFF7F4FE5A
:1039E000C449012008702078C34D432825D1607850
:1039F000412853D1A078542850D1E078432812D1DF
:103A0000207948284AD16079303800F09BFF286837
:103A1000401C2860207843280FD1607841283DD190
:103A2000A07854283AD1E0784C2837D12079303822
:103A300001F044F92868401C28602078502822D1E1
:103A4000607855282AD1A078542827D1E0784C28CE
:103A50000FD12079303801F09DFC2868401C286087
:103A6000207850280FD16078552817D1A078542895
:103A700014D1E078482811D12079303801F0D4FAF7
:103A80002868401C28602078924D6FF02F064D2842
:103A90007ED160789FED998B4F2800E079E032D19C
:103AA000A078562875D1E0784C2817D12079642168
:103AB000303810FB01F0FCF760FD41EC110BB0EE6B
:103AC000480AF0EE680A00F043FD20784D285FD1E7
:103AD00060784F2817D1A07856285AD1E07852281C
:103AE00057D120796421303810FB01F0FCF745FDF7
:103AF00041EC110BB0EE480AF0EE680A00F022FE2D
:103B000020784D286FD16078462818D1A078E178C8
:103B10000844603800EB8000217906EB400008443F
:103B2000FCF72BFD41EC110BB0EE480A85ED021BB2
:103B3000F0EE680A00F04AFC20784D2853D16078F6
:103B4000422818D1A078E1780844603800EB800062
:103B5000217906EB40000844FCF70FFD41EC110B06
:103B6000B0EE480A85ED021BF0EE680A00F06CFB2F
:103B700020784D2837D160784C281BD1A078E17887
:103B80000844603800EB800006EB4000217901E03A
:103B900029E091E00844FCF7F0FC41EC110BB0EE99
:103BA000480A85ED021BF0EE680A00F0D1FC20788F
:103BB0004D2818D1607852287ED1A078E178084449
:103BC000603800EB8000217906EB40000844FCF7E8
:103BD000D4FC41EC110BB0EE480A85ED021BF0EE6F
:103BE000680A00F0AFFD20785A2868D16078532821
:103BF00065D144A0FFF7E8FDA078E178084460387B
:103C000000EB8000217906EB40000844FCF7B5FC8E
:103C100041EC190B85ED029B6079A179084460386D
:103C200000EB8000E17906EB40000844FCF7A5FCBE
:103C3000354C41EC180B54F82F0B54F82B1C3D223B
:103C4000CDE91601304918A80831FCF7EAFAA07D41
:103C50008DF89D00E07D8DF89E00207E8DF89F0000
:103C6000607E8DF8A000A07E8DF8A100E07E8DF82A
:103C7000A200207F8DF8A300607F8DF8A400A07FB4
:103C80008DF8A500E07F8DF8A6001F49182250315D
:103C90002AA8FCF7C6FA58221AA96846FCF7C1FA06
:103CA00016AFB0EE491A97E80F00F0EE691AB0EEC1
:103CB000480AF0EE680A00E001E000F085F831B053
:103CC000BDEC048BF0BD000031313131310000001A
:103CD000F80500206800002074312E7478743D22AD
:103CE0002564256425642D25642564256422FFFF51
:103CF000FF00000001000020040000200000000080
:103D0000000024405A530000B000002010B50446C3
:103D100005A0FFF759FD2146FF23BDE8104004220E
:103D20000248FEF70FBD00003100000040060020F1
:103D300010B504460548FFF747FD2146FF23BDE8BF
:103D4000104004220248FEF7FDBC0000283D000898
:103D50008806002013B54FF6FF730122694602481A
:103D6000FEF7F0FC00981CBDF8050020FDF7F0F808
:103D7000FFF74AF8FEF76EFDFEF736FDFEF7CEFFC1
:103D8000FEF7E8FFFEF7D0FDFEF74AFEFEF7AAFEBB
:103D9000FEF72CFFFEF7FAFFFFF714F8FEF7EEFE32
:103DA000FEF758FF01F02AFEFF23052203A1054874
:103DB000FEF7C8FC00F0C4FDFCE70000535441527C
:103DC00054000000F80500200FB42DED040B2DE980
:103DD000F0472DED0A8BB0EE41AAF0EE61AAB0EEED
:103DE000408AF0EE608A9FEDF89B012453EC192B7A
:103DF00051EC1A0BFCF744FC01D28DF8B84053EC9F
:103E0000192B51EC1A0BFCF723FC08D200208DF87B
:103E1000B80051EC1A0B81F0004141EC1A0BDFF8AD
:103E2000B0939FEDECCB1698F0BBECA0FFF7CCFC69
:103E30009DF8B82080214846FDF776F8EA480460EE
:103E400051EC1A0BFCF7CBFBFCF797FB53EC1C2B4C
:103E5000FCF7B2FAFCF7C3FBE4499FEDE5BB086051
:103E600053EC1B2B51EC180BFCF718FBE24DC5E98A
:103E70000401FDF75FF84FF47A71B0FBF1F0FCF745
:103E80008DFB41EC190B53EC182B85ED009B51EC8D
:103E90001A0BFCF703FB53EC192BFCF7E6F953EC78
:103EA0001B2BFCF7E2F900E005E0C5E9020118A8C8
:103EB0001799FDF737FF9FEDD1BB9FEDD29B169869
:103EC000012840D101029DF8B8204846FDF72CF8A2
:103ED000CE48046051EC1A0BFCF781FBFCF74DFB5C
:103EE00053EC1C2BFCF768FAFCF779FBC84953EC40
:103EF000182B086051EC1B0BFCF7D0FA0E4646EC71
:103F0000100B054651EC100BFCF788FB1899C862A2
:103F100046EC105B51EC100BFCF780FB1B901798E4
:103F2000B8B1042820D0082853EC182B51EC190BF9
:103F300025D0FCF7B3FAFCF771FB1899086418A8B0
:103F40001799FDF7EFFE1698B24EB34F02281DD019
:103F50005CE053EC182B51EC190BFCF79FFAFCF7C3
:103F60005DFB18994863EAE753EC182B51EC190BE9
:103F7000FCF794FAFCF752FB18998863DFE7FCF72B
:103F80008DFAFCF74BFB1899C863D8E79DF8B82069
:103F90004FF400714846FCF7C7FF51EC1A0B346030
:103FA000FCF71DFBFCF7E9FA53EC1C2BFCF704FAB9
:103FB000FCF715FB386053EC182B51EC1B0BFCF78E
:103FC0006DFA884648EC100B054651EC100BFCF7D7
:103FD00025FB1899C86248EC105B51EC100BFCF7FC
:103FE0001DFB1B901798A8B104281ED0082853EC7D
:103FF000182B51EC190B23D0FCF750FAFCF70EFBF1
:104000001899086418A81799FDF78CFE16980328CC
:104010001DD05BE053EC182B51EC190BFCF73EFA6A
:10402000FCF7FCFA18994863ECE753EC182B51ECB9
:10403000190BFCF733FAFCF7F1FA18998863E1E7FA
:10404000FCF72CFAFCF7EAFA1899C863DAE79DF84E
:10405000B82020214846FCF767FF51EC1A0B34606A
:10406000FCF7BDFAFCF789FA53EC1C2BFCF7A4F91A
:10407000FCF7B5FA386053EC182B51EC1B0BFCF72E
:104080000DFA884648EC100B054651EC100BFCF776
:10409000C5FA1899C86248EC105B51EC100BFCF79C
:1040A000BDFA1B901798E8B3042864D0082853EC95
:1040B000182B51EC190B69D0FCF7F0F9FCF7AEFAAC
:1040C0001899086418A81799FDF72CFE169804286B
:1040D00040D19DF8B82040214846FCF725FF51EC1F
:1040E0001A0B3460FCF77BFAFCF747FA53EC1C2BF5
:1040F000FCF762F9FCF773FA386053EC182B51ECBB
:104100001B0BFCF7CBF90D4645EC100B044651ECAC
:10411000100BFCF783FA1899C86245EC104B51EC70
:10412000100B00E01CE0FCF779FA1B901798A0B385
:1041300004283ED0082853EC182B51EC190B6ED0F4
:10414000FCF7ACF9FCF76AFA1899086418A81799F3
:10415000FDF7E8FDBDEC0A8BBDE8F0075DF824FB38
:1041600053EC182B51EC190BFCF798F9FCF756FAA5
:1041700018994863A6E753EC182B51EC190BFCF780
:104180008DF9FCF74BFA189988639BE7FCF786F9E1
:10419000FCF744FA1899C86394E7FFE753EC182B2F
:1041A00051EC190BFCF77AF9FCF738FA18994863C7
:1041B000CCE753EC182B51EC190BFCF76FF9FCF71B
:1041C0002DFA18998863C1E7000000000000000084
:1041D00000040240713D0AD7A3B057406D6F746F61
:1041E000725F6C6600000000300000203800002084
:1041F0009A9999999999B93F1800002000000000F8
:10420000004EBB40000000000034A2403C000020F3
:10421000440000204800002050000020FFE7FCF789
:104220003DF9FCF7FBF91899C8638FE79FED040B84
:10423000002180ED140B80F8601080ED160B7047A4
:10424000000000000000000070B52DED088BB0B03C
:10425000B0EE41AAF0EE61AAB0EE40BAF0EE60BA5C
:104260009FED558B51EC1A0B53EC182BFCF7A4F86F
:1042700041EC190B53EC182B51EC1B0BFCF79CF881
:104280004F4C0E46054646EC180B54F8300B54F8CC
:104290002C1C3D22CDE91601494918A80831FBF72D
:1042A000C0FF607D8DF89D00A07D8DF89E00E07DB3
:1042B0008DF89F00207E8DF8A000607E8DF8A10013
:1042C000A07E8DF8A200E07E8DF8A300207F8DF8FF
:1042D000A400607F8DF8A500A07F8DF8A600384966
:1042E000182250312AA8FBF79CFF58221AA96846C9
:1042F000FBF797FF0DF1580CB0EE491A9CE80F0040
:10430000F0EE691AB0EE480AF0EE680AFFF75CFDBD
:104310009FED2C0B51EC1A0B53EC102BFCF74CF8C7
:1043200041EC190B46EC185BA06BE16B3D22CDE92B
:104330001601234918A87031FBF773FF2048683035
:1043400010F8451F8DF89D1041788DF89E108178EA
:104350008DF89F10C1788DF8A01001798DF8A1100B
:1043600041798DF8A21081798DF8A310C1798DF86B
:10437000A410017A8DF8A510407A8DF8A600104996
:104380001822B8312AA8FBF74CFF58221AA9684610
:10439000FBF747FF16ACB0EE491A94E80F00F0EEB9
:1043A000691AB0EE480AF0EE680AFFF70DFD30B06A
:1043B000BDEC088B70BD00007B14AE47E17AF23F84
:1043C000B00000207B14AE47E17AF2BF70B52DED4E
:1043D000088BB0B0B0EE419AF0EE619AB0EE408A30
:1043E000F0EE608A9FED550B51EC190B53EC102B3E
:1043F000FBF7E2FF41EC1B0B9FED52AB51EC180BAE
:1044000053EC1A2BFBF7D8FF504C0E46054646ECF2
:10441000180B54F8300B54F82C1C3D22CDE9160132
:104420004A4918A80831FBF7FCFE607D8DF89D0015
:10443000A07D8DF89E00E07D8DF89F00207E8DF898
:10444000A000607E8DF8A100A07E8DF8A200E07E25
:104450008DF8A300207F8DF8A400607F8DF8A50063
:10446000A07F8DF8A6003949182250312AA8FBF701
:10447000D8FE58221AA96846FBF7D3FE0DF1580C56
:10448000B0EE4B1A9CE80F00F0EE6B1AB0EE480A43
:10449000F0EE680AFFF798FC53EC1A2B51EC190B5D
:1044A000FBF78AFF41EC180B46EC195BA06BE16B44
:1044B0003D22CDE91601254918A87031FBF7B1FE60
:1044C0002248683010F8451F8DF89D1041788DF80E
:1044D0009E1081788DF89F10C1788DF8A010017919
:1044E0008DF8A11041798DF8A21081798DF8A31073
:1044F000C1798DF8A410017A8DF8A510407A8DF855
:10450000A60012491822B8312AA8FBF78AFE5822C1
:104510001AA96846FBF785FE16ACB0EE481A94E877
:104520000F00F0EE681AB0EE490AF0EE690AFFF7E4
:104530004BFC30B0BDEC088B70BD00007B14AE4767
:10454000E17AF2BF7B14AE47E17AF23FB00000207F
:1045500010B5764C2DED048BB0B0B0EE418A54F816
:10456000300BF0EE618AB0EE409AF0EE609A54F8AB
:104570002C1C3D22CDE916016C4918A80831FBF727
:1045800050FE607D8DF89D00A07D8DF89E00E07D41
:104590008DF89F00207E8DF8A000607E8DF8A10030
:1045A000A07E8DF8A200E07E8DF8A300207F8DF81C
:1045B000A400607F8DF8A500A07F8DF8A6005B4960
:1045C000182250312AA8FBF72CFE58221AA9684657
:1045D000FBF727FE0DF1580CB0EE481A9CE80F00CF
:1045E000F0EE681AB0EE490AF0EE690AFFF7ECFB4C
:1045F000A06BE16B3D22CDE916014C4918A8703142
:10460000FBF70FFE4948683010F8451F8DF89D10E4
:1046100041788DF89E1081788DF89F10C1788DF8C3
:10462000A01001798DF8A11041798DF8A21081793F
:104630008DF8A310C1798DF8A410017A8DF8A5101A
:10464000407A8DF8A60039491822B8312AA8FBF71C
:10465000E8FD58221AA96846FBF7E3FD16ACB0EE58
:10466000481A94E80F00F0EE681AB0EE490AF0EE2E
:10467000690AFFF7A9FB9FED2E0B51EC180B53ECC9
:10468000102BFBF799FE9FED2C0B41EC180B53EC14
:10469000102B51EC190BFBF78FFE41EC190B234942
:1046A0008031086D496D3D22CDE916011F4918A8DA
:1046B000D831FBF7B6FD1D48D03010F8451F8DF8F6
:1046C0009D1041788DF89E1081788DF89F10C178EB
:1046D0008DF8A01001798DF8A11041798DF8A21004
:1046E00081798DF8A310C1798DF8A410017A8DF825
:1046F000A510407A8DF8A600182211492AA8FBF7C8
:1047000090FD58221AA96846FBF78BFD94E80F002C
:10471000B0EE481AF0EE681AB0EE490AF0EE690AF7
:10472000FFF752FB30B0BDEC048B10BDB000002091
:1047300000000000000000C0000000000000004079
:10474000D001002070B52DED068BB0EE419AF0EE51
:10475000619AB0B0B0EE40AAF0EE60AA51EC190B2D
:1047600081F00041724C0E46054646EC180B54F899
:10477000300B54F82C1C3D22CDE916016C4918A8C9
:104780000831FBF74EFD607D8DF89D00A07D8DF812
:104790009E00E07D8DF89F00207E8DF8A000607E59
:1047A0008DF8A100A07E8DF8A200E07E8DF8A30018
:1047B000207F8DF8A400607F8DF8A500A07F8DF884
:1047C000A6005B49182250312AA8FBF72AFD58227F
:1047D0001AA96846FBF725FD0DF1580CB0EE481AF2
:1047E0009CE80F00F0EE681AB0EE4A0AF0EE6A0A92
:1047F000FFF7EAFA46EC185BA06BE16B3D22CDE9CE
:1048000016014B4918A87031FBF70BFD484868307A
:1048100010F8451F8DF89D1041788DF89E10817815
:104820008DF89F10C1788DF8A01001798DF8A11036
:1048300041798DF8A21081798DF8A310C1798DF896
:10484000A410017A8DF8A510407A8DF8A600384999
:104850001822B8312AA8FBF7E4FC58221AA96846A6
:10486000FBF7DFFC16ACB0EE481A94E80F00F0EE50
:10487000681AB0EE4A0AF0EE6A0AFFF7A5FA9FED51
:104880002D8B51EC190B53EC182BFBF795FD41ECDC
:10489000190B53EC182B51EC1A0BFBF78DFD41EC67
:1048A000180B23498031086D496D3D22CDE9160171
:1048B0001F4918A8D831FBF7B4FC1D48D03010F8B8
:1048C000451F8DF89D1041788DF89E1081788DF8E8
:1048D0009F10C1788DF8A01001798DF8A110417951
:1048E0008DF8A21081798DF8A310C1798DF8A410EC
:1048F000017A8DF8A510407A8DF8A60018220F498C
:104900002AA8FBF78EFC58221AA96846FBF789FCF7
:1049100094E80F00B0EE491AF0EE691AB0EE480ABA
:10492000F0EE680AFFF750FA30B0BDEC068B70BDB0
:10493000B00000200000000000000040D001002076
:1049400000F0DEBE2DE9F04FD54D07462DED048B6E
:10495000B1B055F82F0B55F82B1C3D22CDE91601AF
:10496000CF4918A808318846FBF75BFCA87D8DF875
:104970009D00E87D8DF89E00287E8DF89F00687E62
:104980008DF8A000A87E8DF8A100E87E8DF8A20029
:10499000287F8DF8A300687F8DF8A400A87F8DF88C
:1049A000A500E87F8DF8A600BD49182250318B463E
:1049B0002AA82F3DFBF735FC58221AA96846FBF7B9
:1049C00030FC9FEDB89BB0EE491AF0EE691A9FEDEE
:1049D000B78B16AC94E80F00B0EE480AF0EE680A08
:1049E000FFF7F2F9B34C01CC54F82B1B3D22CDE973
:1049F0001601B04918A808318A46FBF712FCA07DC1
:104A00008DF89D00E07D8DF89E00207E8DF89F0042
:104A1000607E8DF8A000A07E8DF8A100E07E8DF86C
:104A2000A200207F8DF8A300607F8DF8A400A07FF6
:104A30008DF8A500E07F8DF8A6009E491822503120
:104A400089462AA8FBF7EDFB58221AA96846FBF70E
:104A5000E8FB16AEB0EE491A96E80F00F0EE691AC0
:104A6000B0EE480AF0EE680AFFF7AEF9924EB0EEEB
:104A7000490AF0EE690A96E80F0000F065FF54F865
:104A80002F0C54F82B1C3D22CDE91601514618A8D5
:104A9000FBF7C7FBA07D8DF89D00E07D8DF89E00A3
:104AA000207E8DF89F00607E8DF8A000A07E8DF89E
:104AB000A100E07E8DF8A200207F8DF8A300607F2A
:104AC0008DF8A400A07F8DF8A500E07F8DF8A600EA
:104AD000182249462AA82F3CFBF7A3FB58221AA903
:104AE0006846FBF79EFB0DF1580CB0EE491A9CE8A6
:104AF0000F00F0EE691AB0EE480AF0EE680AFFF710
:104B000063F9012F3FD155F82F0B55F82B1C3D228F
:104B1000CDE91601414618A8FBF783FBA87D8DF867
:104B20009D00E87D8DF89E00287E8DF89F00687EB0
:104B30008DF8A000A87E8DF8A100E87E8DF8A20077
:104B4000287F8DF8A300687F8DF8A400A87F8DF8DA
:104B5000A500E87F8DF8A600182259462AA8FBF781
:104B600060FB58221AA96846FBF75BFB16AFB0EE54
:104B7000491A97E80F00F0EE691AB0EE480AF0EE15
:104B8000680AFFF721F954F82F0B54F82B1C3D222B
:104B9000CDE91601514618A8FBF743FBA07D8DF81F
:104BA0009D00E07D8DF89E00207E8DF89F00607E48
:104BB0008DF8A000A07E8DF8A100E07E8DF8A20007
:104BC000207F8DF8A300607F8DF8A400A07F8DF872
:104BD000A500E07F8DF8A600182249462AA8FBF719
:104BE00020FB58221AA96846FBF71BFB16ADB0EE56
:104BF000491A95E80F00F0EE691AB0EE480AF0EE97
:104C0000680AFFF7E1F896E80F00B0EE490AF0EE07
:104C1000690A00F099FE54F82F0C54F82B1C3D2221
:104C2000CDE91601514618A8FBF7FBFAA07D8DF8D7
:104C30009D00E07D8DF89E00207E8DF89F00607EB7
:104C40008DF8A000A07E8DF8A100E07E8DF8A20076
:104C5000207F8DF8A300607F8DF8A400A07F8DF8E1
:104C6000A500E07F8DF8A600182249462AA8FBF788
:104C7000D8FA58221AA96846FBF7D3FA95E80F002C
:104C8000B0EE491AF0EE691AB0EE480AF0EE680A82
:104C9000FFF79AF831B0BDEC048BBDE8F08F00004F
:104CA0005002002000000000000000000000000092
:104CB00000004940E8010020A00000202DE9F04755
:104CC000D24D2DED048BB0B055F82F0B55F82B1CA1
:104CD0003D22CDE91601CD4918A808318946FBF7D8
:104CE000A0FAA87D8DF89D00E87D8DF89E00287EB5
:104CF0008DF89F00687E8DF8A000A87E8DF8A10039
:104D0000E87E8DF8A200287F8DF8A300687F8DF8DB
:104D1000A400A87F8DF8A500E87F8DF8A600BB4908
:104D20001822503188462AA8FBF77BFA58221AA984
:104D30006846FBF776FA9FEDB68BB0EE481AF0EEB8
:104D4000681A9FEDB59B16AC94E80F00B0EE490AC7
:104D5000F0EE690AFFF738F8B14C01CC54F82B1B80
:104D60003D22CDE91601AE4918A808318A46FBF765
:104D700058FAA07D8DF89D00E07D8DF89E00207E84
:104D80008DF89F00607E8DF8A000A07E8DF8A100B8
:104D9000E07E8DF8A200207F8DF8A300607F8DF863
:104DA000A400A07F8DF8A500E07F8DF8A6009C49A7
:104DB000182250310F462AA8FBF733FA58221AA9B5
:104DC0006846FBF72EFA16AEB0EE481A96E80F00CA
:104DD000F0EE681AB0EE490AF0EE690AFEF7F4FF49
:104DE000904EB0EE480AF0EE680A96E80F0000F028
:104DF000ABFD54F82F0C54F82B1C3D22CDE91601C5
:104E0000514618A8FBF70DFAA07D8DF89D00E07DB6
:104E10008DF89E00207E8DF89F00607E8DF8A000AA
:104E2000A07E8DF8A100E07E8DF8A200207F8DF895
:104E3000A300607F8DF8A400A07F8DF8A500E07F1F
:104E40008DF8A600182239462AA8FBF7EAF958225D
:104E50001AA96846FBF7E5F90DF1580CB0EE481AAF
:104E60009CE80F00F0EE681AB0EE490AF0EE690A0D
:104E7000FEF7AAFF55F82F0C55F82B1C3D22CDE963
:104E80001601494618A8FBF7CCF9A87D8DF89D00BE
:104E9000E87D8DF89E00287E8DF89F00687E8DF855
:104EA000A000A87E8DF8A100E87E8DF8A200287FE2
:104EB0008DF8A300687F8DF8A400A87F8DF8A50069
:104EC000E87F8DF8A600182241462AA8FBF7A9F929
:104ED00058221AA96846FBF7A4F916ADB0EE481A95
:104EE00095E80F00F0EE681AB0EE490AF0EE690A94
:104EF000FEF76AFF54F82F0C54F82B1C3D22CDE925
:104F00001601514618A8FBF78CF9A07D8DF89D007D
:104F1000E07D8DF89E00207E8DF89F00607E8DF8EC
:104F2000A000A07E8DF8A100E07E8DF8A200207F79
:104F30008DF8A300607F8DF8A400A07F8DF8A500F8
:104F4000E07F8DF8A600182239462AA8FBF769F9F8
:104F500058221AA96846FBF764F995E80F00B0EEED
:104F6000481AF0EE681AB0EE490AF0EE690AFEF748
:104F70002BFF96E80F00B0EE480AF0EE680A00F04A
:104F8000E3FC54F82F0C54F82B1C3D22CDE91601FC
:104F9000514618A8FBF745F9A07D8DF89D00E07DEE
:104FA0008DF89E00207E8DF89F00607E8DF8A00019
:104FB000A07E8DF8A100E07E8DF8A200207F8DF804
:104FC000A300607F8DF8A400A07F8DF8A500E07F8E
:104FD0008DF8A600182239462AA8FBF722F9582294
:104FE0001AA96846FBF71DF916ACB0EE481A94E80A
:104FF0000F00F0EE681AB0EE490AF0EE690AFEF70B
:10500000E3FE30B0BDEC048BBDE8F0875002002019
:105010000000000000000000000000000000494007
:10502000E8010020A00000202DE9F047D24D2DED31
:10503000048BB0B055F82F0B55F82B1C3D22CDE951
:105040001601CD4918A808318946FBF7EAF8A87D72
:105050008DF89D00E87D8DF89E00287E8DF89F00DC
:10506000687E8DF8A000A87E8DF8A100E87E8DF8FE
:10507000A200287F8DF8A300687F8DF8A400A87F88
:105080008DF8A500E87F8DF8A600BB4918225031A5
:1050900088462AA8FBF7C5F858221AA96846FBF7E4
:1050A000C0F89FEDB68BB0EE481AF0EE681A9FED8F
:1050B000B59B16AC94E80F00B0EE490AF0EE690A11
:1050C000FEF782FEB14C01CC54F82B1B3D22CDE9FA
:1050D0001601AE4918A808318A46FBF7A2F8A07D50
:1050E0008DF89D00E07D8DF89E00207E8DF89F005C
:1050F000607E8DF8A000A07E8DF8A100E07E8DF886
:10510000A200207F8DF8A300607F8DF8A400A07F0F
:105110008DF8A500E07F8DF8A6009C49182250313B
:105120000F462AA8FBF77DF858221AA96846FBF714
:1051300078F816AEB0EE481A96E80F00F0EE681A4E
:10514000B0EE490AF0EE690AFEF73EFE904EB0EE70
:10515000480AF0EE680A96E80F0000F0F5FB54F8F4
:105160002F0C54F82B1C3D22CDE91601514618A8EE
:10517000FBF757F8A07D8DF89D00E07D8DF89E002F
:10518000207E8DF89F00607E8DF8A000A07E8DF8B7
:10519000A100E07E8DF8A200207F8DF8A300607F43
:1051A0008DF8A400A07F8DF8A500E07F8DF8A60003
:1051B000182239462AA8FBF734F858221AA968465B
:1051C000FBF72FF80DF1580CB0EE481A9CE80F00D1
:1051D000F0EE681AB0EE490AF0EE690AFEF7F4FD47
:1051E00055F82F0C55F82B1C3D22CDE916014946E8
:1051F00018A8FBF716F8A87D8DF89D00E87D8DF8BE
:105200009E00287E8DF89F00687E8DF8A000A87E05
:105210008DF8A100E87E8DF8A200287F8DF8A3000C
:10522000687F8DF8A400A87F8DF8A500E87F8DF831
:10523000A600182241462AA8FAF7F3FF58221AA915
:105240006846FAF7EEFF16ADB0EE481A95E80F0083
:10525000F0EE681AB0EE490AF0EE690AFEF7B4FD06
:1052600054F82F0C54F82B1C3D22CDE91601514661
:1052700018A8FAF7D6FFA07D8DF89D00E07D8DF887
:105280009E00207E8DF89F00607E8DF8A000A07E9D
:105290008DF8A100E07E8DF8A200207F8DF8A3009C
:1052A000607F8DF8A400A07F8DF8A500E07F8DF8C9
:1052B000A600182239462AA8FAF7B3FF58221AA9DD
:1052C0006846FAF7AEFF95E80F00B0EE481AF0EE28
:1052D000681AB0EE490AF0EE690AFEF775FD96E825
:1052E0000F00B0EE480AF0EE680A00F02DFB54F80B
:1052F0002F0C54F82B1C3D22CDE91601514618A85D
:10530000FAF78FFFA07D8DF89D00E07D8DF89E005F
:10531000207E8DF89F00607E8DF8A000A07E8DF825
:10532000A100E07E8DF8A200207F8DF8A300607FB1
:105330008DF8A400A07F8DF8A500E07F8DF8A60071
:10534000182239462AA8FAF76CFF58221AA968468B
:10535000FAF767FF16ACB0EE481A94E80F00F0EECB
:10536000681AB0EE490AF0EE690AFEF72DFD30B07A
:10537000BDEC048BBDE8F087500200200000000067
:10538000000000000000000000004940E80100208B
:10539000A00000202DE9F047D24D2DED048BB0B0D8
:1053A00055F82F0B55F82B1C3D22CDE91601CD49A0
:1053B00018A808318946FAF734FFA87D8DF89D00BA
:1053C000E87D8DF89E00287E8DF89F00687E8DF820
:1053D000A000A87E8DF8A100E87E8DF8A200287FAD
:1053E0008DF8A300687F8DF8A400A87F8DF8A50034
:1053F000E87F8DF8A600BB491822503188462AA8BC
:10540000FAF70FFF58221AA96846FAF70AFF9FED2C
:10541000B68BB0EE481AF0EE681A9FEDB59B16AC4D
:1054200094E80F00B0EE490AF0EE690AFEF7CCFCF2
:10543000B14C01CC54F82B1B3D22CDE91601AE49ED
:1054400018A808318A46FAF7ECFEA07D8DF89D0079
:10545000E07D8DF89E00207E8DF89F00607E8DF8A7
:10546000A000A07E8DF8A100E07E8DF8A200207F34
:105470008DF8A300607F8DF8A400A07F8DF8A500B3
:10548000E07F8DF8A6009C49182250310F462AA8CB
:10549000FAF7C7FE58221AA96846FAF7C2FE16AEF6
:1054A000B0EE481A96E80F00F0EE681AB0EE490A1E
:1054B000F0EE690AFEF788FC904EB0EE480AF0EE76
:1054C000680A96E80F0000F03FFA54F82F0C54F8E1
:1054D0002B1C3D22CDE91601514618A8FAF7A1FE72
:1054E000A07D8DF89D00E07D8DF89E00207E8DF8DA
:1054F0009F00607E8DF8A000A07E8DF8A100E07E68
:105500008DF8A200207F8DF8A300607F8DF8A400A5
:10551000A07F8DF8A500E07F8DF8A60018223946FF
:105520002AA8FAF77EFE58221AA96846FAF779FEE9
:105530000DF1580CB0EE481A9CE80F00F0EE681A16
:10554000B0EE490AF0EE690AFEF73EFC55F82F0C62
:1055500055F82B1C3D22CDE91601494618A8FAF74B
:1055600060FEA87D8DF89D00E87D8DF89E00287E68
:105570008DF89F00687E8DF8A000A87E8DF8A100B0
:10558000E87E8DF8A200287F8DF8A300687F8DF853
:10559000A400A87F8DF8A500E87F8DF8A60018224A
:1055A00041462AA8FAF73DFE58221AA96846FAF79A
:1055B00038FE16ADB0EE481A95E80F00F0EE681A06
:1055C000B0EE490AF0EE690AFEF7FEFB54F82F0C24
:1055D00054F82B1C3D22CDE91601514618A8FAF7C4
:1055E00020FEA07D8DF89D00E07D8DF89E00207E40
:1055F0008DF89F00607E8DF8A000A07E8DF8A10040
:10560000E07E8DF8A200207F8DF8A300607F8DF8EA
:10561000A400A07F8DF8A500E07F8DF8A6001822D9
:1056200039462AA8FAF7FDFD58221AA96846FAF762
:10563000F8FD95E80F00B0EE481AF0EE681AB0EEEB
:10564000490AF0EE690AFEF7BFFB96E80F00B0EEDC
:10565000480AF0EE680A00F077F954F82F0C54F875
:105660002B1C3D22CDE91601514618A8FAF7D9FDA9
:10567000A07D8DF89D00E07D8DF89E00207E8DF848
:105680009F00607E8DF8A000A07E8DF8A100E07ED6
:105690008DF8A200207F8DF8A300607F8DF8A40014
:1056A000A07F8DF8A500E07F8DF8A600182239466E
:1056B0002AA8FAF7B6FD58221AA96846FAF7B1FDEA
:1056C00016ACB0EE481A94E80F00F0EE681AB0EE8F
:1056D000490AF0EE690AFEF777FB30B0BDEC048BA7
:1056E000BDE8F0875002002000000000000000002C
:1056F0000000000000004940E8010020A000002058
:105700002DE9F047714C00212DED068B4FF002087A
:105710006068032802DB616084F8018022784FF022
:1057200004099FED6BAB9FED6C1B9FED6D0B6E4DF8
:105730006E4E6F4F2868336818433B6818430A2A37
:1057400014D2DFE802F01305171C232A565C8F954C
:105750000028FDD19FED671BFEF738FEFF230522D1
:1057600066A16848FCF7EEFF84F80080BDEC068B6C
:10577000BDE8F08760780128F8D103200AE000280E
:10578000FDD19FED611BFEF721FE95E060780228B8
:10579000ECD1052020706170E8E70028FDD19FED75
:1057A0005C1BB0EE408AF0EE608AFEF74DFD286883
:1057B00031680843396808430028FDD19FED560B36
:1057C00000F012FA28683168084339680843002855
:1057D000FDD19FED531BB0EE480AF0EE680AFEF7CC
:1057E000B1FFFF23052250A14648FCF7ABFF06207E
:1057F00036E06278032A02D1072222706170002805
:10580000FDD1B0EE418AF0EE618AB0EE409AF0EE42
:10581000609AFEF719FD2868316808433968084323
:105820000028FDD1B0EE481AF0EE681AB0EE490A31
:10583000F0EE690AFEF78CFE286831680843396883
:1058400008430028FDD1B0EE4A0AF0EE6A0A00F0E3
:10585000BBFAFF23052236A12A48FCF773FF082074
:10586000207083E76278022A02D1092222706170D7
:105870000028FDD1B0EE408AF0EE608AFEF7E4FC2D
:10588000286831680843396808430028FDD1B0EE24
:10589000480A9FED291BF0EE680AFEF759FE2868BA
:1058A00031680843396808430028FDD1B0EE4A0A40
:1058B000F0EE6A0A00F088FAFF23052220A11148C1
:1058C000FCF740FF84F8009050E700000000002043
:1058D0000000000000805640000000000080594099
:1058E0000000000000002440480000203C00002090
:1058F0003000002000000000004050405343414E63
:1059000046000000F80500200000000000005440A0
:1059100000000000000044400000000000806640DD
:105920000000000000C06A404C434A4731000000BC
:105930004C5A435131000000000000000040454037
:105940004C574C513100000070B525489FED1D1B90
:10595000224C2DED048B9FED1D9B9FED1E8B05684A
:10596000E2B1012A17D153EC112B51EC100BFAF7CD
:1059700023FD53EC192BFAF791FD53EC182BFAF792
:1059800074FC41EC100B84ED020B00BF51EC100BCA
:10599000FAF725FE6863BDEC048B70BD53EC112B48
:1059A00051EC100BFAF708FD53EC192BFAF776FDC2
:1059B00053EC182BFAF759FC41EC100B84ED000B5B
:1059C000E4E700000000000000409F4000000000ED
:1059D000008066400000000000407F40080000207A
:1059E000900400209FED030B002180ED000B8160EF
:1059F0007047000000000000000000002DE9F041A9
:105A000000216F48FCF7F2F904216D48FCF7EEF92C
:105A100008216B48FCF7EAF90C216948FCF7E6F924
:105A200000216848FCF7E2F96548FBF7E9FE6648A3
:105A3000FBF7E6FE6348FBF7E3FE6448FEF7F6FB80
:105A4000624D6248002645F82F6B3D225C490830C4
:105A5000FAF7E7FB5A4C14F83D0FA8756078E87523
:105A6000A0782876E07868762079A8766079E8765C
:105A7000A0792877E0796877207AA877607AE87744
:105A8000082045F82B0C5248FEF7D0FB504D5048EB
:105A90004FF0010845F82F8B3D2249490830FAF7AD
:105AA000C0FB2078A8756078E875A0782876E07843
:105AB00068762079A8766079E876A0792877E07909
:105AC0006877207AA877607AE8770C2045F82B0C65
:105AD0004048FEF7ABFB3F4D02203D2245F82F0B1F
