:020000040800F2
:10000000280C00209D010008E32D0008CB270008E4
:10001000E12D00083D0900089137000800000000AC
:10002000000000000000000000000000E72D0008B4
:10003000150A000800000000E52D0008E92D000861
:10004000B7010008B7010008B7010008B7010008B0
:10005000B7010008B7010008B7010008B7010008A0
:10006000B7010008B7010008B7010008B701000890
:1000700041090008B7010008B7010008B7010008EE
:100080004D090008B7010008B7010008B7010008D2
:10009000B7010008B7010008B7010008B701000860
:1000A000B70100088D2E0008B7010008B70100084D
:1000B000992E0008A52E0008B12E0008B7010008EF
:1000C000B7010008B7010008B7010008B701000830
:1000D000B7010008F135000809360008213600088C
:1000E000B7010008B7010008B7010008B701000810
:1000F000C92E0008B7010008B7010008B7010008C1
:10010000B7010008B7010008BD2E0008B7010008BC
:10011000B7010008B7010008B7010008B7010008DF
:10012000B70100085909000865090008B70100086F
:10013000B7010008B7010008B7010008B7010008BF
:10014000B7010008B7010008B7010008B7010008AF
:10015000B7010008B7010008B701000839360008E8
:10016000B7010008B7010008B7010008B70100088F
:10017000B7010008B7010008B7010008000000003F
:10018000B7010008B7010008DFF80CD000F076FBDB
:1001900000480047353C0008280C002006488047EE
:1001A00006480047FEE7FEE7FEE7FEE7FEE7FEE75C
:1001B000FEE7FEE7FEE7FEE77D2E00088901000866
:1001C0002DE9F05F0546002092469B46884606468C
:1001D000814640241BE0284641464746224600F01F
:1001E00096FA53465A46C01A914110D31146184602
:1001F000224600F07DFA2D1A67EB01084F46224691
:100200000120002100F074FA17EB00094E41201E76
:10021000A4F10104DFDC484631462A464346BDE8E6
:10022000F09F40EA01039B0703D009E008C9121FB1
:1002300008C0042AFAD203E011F8013B00F8013BA0
:10024000521EF9D27047D2B201E000F8012B491ECC
:10025000FBD270470022F6E710B513460A46044663
:100260001946FFF7F0FF204610BD2DE9FE4F8046EE
:1002700081EA0300C00F0C46009021F0004123F0FA
:100280000045B8EB0200A94105D240462146904600
:100290001C460B46024623F00040104347D0270D72
:1002A000C7F30A00C3F30A510290401A0190402894
:1002B0006BDAC3F3130040F4801B0098924620B120
:1002C0000023D2EB030A63EB0B0B01985946C0F1F4
:1002D0004002504600F00CFA06460D46504659467C
:1002E000019A00F024FA10EB08006141002487EA2B
:1002F000115284EAE7731A4340D0009A62B3019A1C
:10030000012A4FEA075215DC001B61EB02014FF096
:10031000004202EA0752CDE90042001C41F580117B
:1003200032462B4600F05BFA03B0BDE8F08F404642
:100330002146F9E7001B61EB0201001C41F5801327
:1003400000185B412018A2F5001747EB030140EAB3
:10035000D570B6196D4111E06D084FEA360645EAD1
:10036000C0754FEA0752001B61EB0201001C41F50A
:10037000801149084FEA30000019514132462B469E
:1003800003B0BDE8F04F00F01BBA00980122400016
:100390000023D0EB020263EBE073009821464FEAA2
:1003A000E074B8EB000061EB0401E9E783F000437F
:1003B0005BE781F0004158E72DE9FE4F81EA030435
:1003C00004F0004421F0004100944FF0000B23F0B2
:1003D000004350EA01045ED052EA03045BD0C3F349
:1003E0000A54C1F30A552C44A4F2F3340194A0FB3F
:1003F0000254C1F3130141F48011C3F3130343F416
:10040000801301FB024400FB034E840A970A44EA6E
:10041000815447EA8357A4FB076802958D0A05FBC0
:1004200007854FEA932C04FB0C542705029D4FEAE5
:10043000065847EA1637B5EB08056EEB070C870E32
:10044000920E47EA811742EA8312A7FB0201B6EB3C
:100450000B0164EB00042B0D43EA0C335E1844EBF4
:100460001C50DA465146E7FB0201C5F313044FEA7C
:100470000B3343EA14534FEA0432019C43EA060368
:10048000A4F10C040294009CCDE900B400F0A7F99B
:1004900003B0BDE8F08F00200146F9E72DE9F04DEB
:1004A00081EA030404F0004B21F0004514464FF0AC
:1004B000000A23F0004150EA050220D054EA01026C
:1004C0001DD0C5F30A570246C5F31303C1F3130049
:1004D000C1F30A5640F4801543F48013A7EB0608D5
:1004E000101BD64608F2FD3873EB050002D308F165
:1004F000010801E092185B41B8F1000F03DA002017
:100500000146BDE8F08D00204FF480110646844678
:100510000EE0171B73EB050705D3121B63EB0503F6
:1005200006434CEA010C49084FEA300092185B413F
:1005300050EA0107EDD152EA030012D082EA04002A
:1005400083EA0501084305D0101BAB4106D2012206
:10055000002306E000224FF0004302E06FF00102AA
:1005600053101AEB06004CEB085110EB0A0041EB5C
:100570000B01BDE8F04D00F023B90EB5C10F80EAC4
:10058000E0700844CA07002140F233438DE80E00B2
:100590000A460B4600F023F903B000BD3EB5CA176A
:1005A000CB0F002450405140C0186141DA0740F29F
:1005B00033430094CDE901232246234600F00FF98E
:1005C00003B030BD70B5C1F30A5201F000450024FC
:1005D000C1F3130140F2FF3341F480119A4201DA72
:1005E000002070BD40F233439A42A2F2334203DC52
:1005F000524200F08CF800E090402C43F1D0404291
:1006000070BDC1F30A5210B5C1F3130140F2FF33BC
:1006100041F480119A4201DA002010BD40F23343C8
:100620009A42A2F2334203DC524200F070F810BD4D
:10063000904010BD00F0004230F000400AD0C10DE3
:1006400001F56071C0F3160042EA0151C20840078B
:1006500011437047002001467047000030B5041E6A
:1006600071F1000404DB4FF00044404264EB0101EF
:10067000141E73F1000405DB1C464FF00043524288
:1006800063EB04038B4208BF824230BD01F000439C
:1006900030B421F0004150EA010206D00A0DA2F563
:1006A0006072C1F31301002A02DC30BC00207047E5
:1006B000440F44EAC104C100E01830BC00EBC25052
:1006C00000F047B830B50B46014600202022012437
:1006D00009E021FA02F59D4205D303FA02F5491B10
:1006E00004FA02F52844151EA2F10102F1DC30BD26
:1006F000202A04DB203A00FA02F1002070479140E2
:10070000C2F1200320FA03F3194390407047202AD6
:1007100004DB203A21FA02F00021704721FA02F3AB
:10072000D040C2F120029140084319467047202A68
:1007300006DBCB17203A41FA02F043EAE07306E009
:1007400041FA02F3D040C2F1200291400843194619
:1007500070470029A8BF7047401C490008BF20F01F
:100760000100704710B4B0FA80FC00FA0CF050EAB7
:10077000010404BF10BC704749B1CCF1200421FA38
:1007800004F411FA0CF118BF012121430843A3EB33
:100790000C01CB1D4FEA00614FEA102042BF002040
:1007A00010BC704700EBC35010440029A4BF10BC1C
:1007B0007047401C490008BF20F0010010BC704782
:1007C00010B5141E73F1000408DA401C41F1000159
:1007D00092185B411A4301D120F0010010BD2DE9B0
:1007E000F04D92469B4611B1B1FA81F202E0B0FAA7
:1007F00080F220329046FFF77BFF04460F4640EA26
:100800000A0041EA0B0153465A46084313D01146E9
:1008100053EA010019D0C8F140025046FFF777FFB4
:1008200005460E46504659464246FFF761FF0843CB
:1008300005D0012004E020463946BDE8F08D0020B7
:10084000054346EAE0762C4337430A986305E40AF9
:10085000A0EB08000022FD0A44EA47540A3002D502
:1008600000200146E9E7010510196941DDE9084565
:1008700000196941BDE8F04DA2E70000064C074DA4
:1008800006E0E06840F0010394E807009847103460
:10089000AC42F6D3FFF77CFC1C5D00083C5D000811
:1008A00038B5044600681D49884209D10168C9432A
:1008B000C90605D4016840680090194802F0C8FED6
:1008C00018492068884209D10168C943C90605D47E
:1008D000016840680090144802F0BAFE134920688D
:1008E000884209D10168C943C90605D40168406836
:1008F00000900F4802F0ACFE0E49206888420BD1F0
:100900000168C943C90607D4016840680090BDE882
:100910003840094802F09CBE38BD0000001001407C
:100920008805002000440040D00500200048004019
:10093000180600200014014060060020FEE70000B9
:10094000014800F0C5B8000068070020014800F029
:10095000BFB8000008070020014800F0B9B8000047
:10096000C8070020014800F0B3B80000A806002026
:1009700001681823CAB2103AB2FBF3F2054B6FF3C9
:100980000901032A9B5CC36500D9091D81650846DE
:1009900070470000FC5C000810B5014600208B6920
:1009A0008A6A4FF0C07453B1B3F5005F15D072B1CD
:1009B000012A0CD0022A0AD0032A09D104E01AB174
:1009C000012A06D0022A03D1C96AC90100D5012033
:1009D00010BDC96AA142FAD010BD002AF7D0012A81
:1009E000F2D0022AF3D0032AF3D010BD30B5046848
:1009F000256825F480252560046863608368402BA2
:100A0000036803D099600068C26030BD9A600068D6
:100A1000C16030BD704772B6FEE72DE9F041044673
:100A2000876D00F0C5FA064694F8350000250228C7
:100A300006D08020606584F834500120BDE8F08144
:100A40002068016821F0160101602068416921F0E9
:100A500080014161206C08B9A06C20B12068016858
:100A600021F0080101602068016821F001010160A6
:100A70000CE000F09DFA801B052807D92020606556
:100A8000032084F8350084F83450D7E720680068E4
:100A9000C007EED194F85C103F208840B860012078
:100AA00084F8350084F834500020C7E790F83510FA
:100AB000022903D08021416501207047052180F87B
:100AC00035100068016821F00101016000207047C5
:100AD0002DE9F84304464FF00009CDF80090634833
:100AE0004FF41651A56D0068B0FBF1F72E6894F82D
:100AF0005C10082000FA01F131420FD021680A6829
:100B000052070BD50A6822F004020A6094F85C10C0
:100B10008840A860606D40F00100606594F85C104A
:100B20004FF0010808FA01F0304208D02168496905
:100B3000090604D5A860606D40F00200606594F875
:100B40005C1004208840304208D021680968890779
:100B500004D5A860606D40F00400606594F85C10F6
:100B600010208840304218D021680968090714D540
:100B7000A86020680168490304D50068000308D50F
:100B8000A16C07E00168C90503D4016821F00801E0
:100B90000160216C09B12046884794F85C10202040
:100BA0008840304231D021680968C9062DD5A86037
:100BB00094F8350005282068016806D0490347D518
:100BC000006800031DD4616C1CE021F01601016077
:100BD0002068416921F080014161206C08B9A06C56
:100BE00020B12068016821F00801016094F85C10D0
:100BF0003F208840A86084F8358084F83490216DC7
:100C00001FE0E16B09B120468847606D00282BD0BA
:100C1000606DC00714D0052084F835002068016895
:100C200021F0010101600098401C0090B84203D8F7
:100C300020680068C007F6D184F8358084F83490C5
:100C4000E16C002910D001B02046BDE8F043084710
:100C50000168C905D5D4016821F01001016084F84C
:100C6000358084F83490CCE7BDE8F8837400002028
:100C70002DE9F041044600F09BF906465CB10220E4
:100C800084F83500002584F834502068016821F08C
:100C9000010101600DE00120BDE8F08100F088F95C
:100CA000801B052805D920206065032084F83500C5
:100CB000F2E720680068C007F0D122681168204878
:100CC0000140D4E901031843D4E903363343184300
:100CD00063691843A3691843E3691843236A1843F7
:100CE0000843616A042903D1D4E90B13194308436B
:100CF000106020684069666A20F0070130460E43A4
:100D0000012704280CD1A06A0643E06A40B12046BE
:100D1000FFF742FE20B14020606584F83570BAE7E5
:100D2000206846612046FFF723FE94F85C203F21AF
:100D300091408160656584F835700020ACE7000063
:100D40003F8010F02DE9F0410446866D90F83400A4
:100D5000002501280DD0012084F8340094F8357066
:100D60000020012F07D084F8340002252846BDE872
:100D7000F0810220FBE7022784F835706065204689
:100D8000FFF734FE94F85C103F208840B060206884
:100D9000016841F016010160206C20B120680168F3
:100DA00041F0080101602068016841F00101016023
:100DB000DCE700002DE9F84FDFF8BCA10022012597
:100DC00003264FF00F090AF1040BAAF1040E00BF2D
:100DD0000B6805FA02F42340A34270D10F7907F0A3
:100DE0000307012F01D0022F16D187684FEA42086E
:100DF00006FA08FC27EA0C07D1F80CC00CFA08FC2C
:100E00004CEA070CC0F808C04768A7430C79C4F344
:100E1000001494403C4344600C79E443A4070AD096
:100E2000C4684FEA420C06FA0CF7BC438F6807FA15
:100E30000CF72743C7600C7904F00304022C12D18D
:100E4000D40800EB840CDCF820405707FF0E09FAA9
:100E500007F824EA0804D1F8108008FA07F848EAED
:100E60000408CCF8208004684FEA420C06FA0CF71C
:100E7000BC430F7907F0030707FA0CF72743076015
:100E80004C6814F4403F70D03C4C276847F48047CE
:100E90002760246822F0030704F480440094384C4F
:100EA00007EB040CDCF8084897074FEA177809FAB3
:100EB00008F7BC43334FB84202D1002724E054E086
:100EC000314FB84201D101271EE0304FB84201D165
:100ED000022719E02E4FB84201D1032714E02D4F0D
:100EE000B84201D104270FE02B4FB84201D10527AA
:100EF0000AE02A4FB84201D1062705E0284FB84240
:100F000001D1072700E0082707FA08F72743CCF8A4
:100F10000878DAF800405746D1F804C09C435FEAED
:100F2000CC2C00D51C433C60DBF800405F46D1F878
:100F300004C09C435FEA8C2C00D51C433C60DEF867
:100F400000407746D1F804C09C435FEA8C3C00D552
:100F50001C433C60084F083F3C68D1F804C09C43E8
:100F60005FEACC3C00D51C433C60521C102AFFF4C5
:100F70002FAFBDE8F88F0000083C01404438024024
:100F8000003001400000024000040240000802401E
:100F9000000C024000100240001402400018024001
:100FA000001C02400AB1816170470904FBE70000A0
:100FB000014880687047000068000020024881688E
:100FC0000278114481607047680000200B4810B51A
:100FD000016841F400710160016841F480610160C1
:100FE000016841F480710160032000F06FF80F2068
:100FF00000F006F800F024F8002010BD003C02408C
:1010000070B50D4D04464FF47A712878B1FBF0F0BD
:101010000A490968B1FBF0F000F00CFB48B9102C4C
:1010200007D200222146501E00F030F800206C60EC
:1010300070BD012070BD0000680000207400002019
:101040000A4808B5016841F480410160006800F475
:10105000804000900548001F016841F08051016008
:10106000006800F08050009008BD00004438024045
:10107000002809DB00F01F02012191404009800097
:1010800000F1E020C0F8001170470000F0B40E4BF2
:101090001B680C46C3F30223C3F10705042D00D9D6
:1010A0000425191D072901D2002300E0DB1E0126BB
:1010B00006FA05F1491E214099409E40761E1640D1
:1010C0003143F0BC02F076BB0CED00E0064900F0C5
:1010D000070208684FF6FF03184040EA0220034A5F
:1010E00010430860704700000CED00E00000FA05B6
:1010F0002DE9F0470E46050065D0DFF81481D8F8D9
:101100000000F7B200F00700B04207D288F8007084
:10111000D8F8000000F00700B04254D128683D4CD8
:10112000810712D5400703D5206840F4E0502060C5
:101130002878000703D5206840F4604020602068CC
:10114000A96820F0F000084320602878C0072DD05F
:10115000304968680839012812D0022813D00328C2
:1011600011D00968890700292DDA216821F00301CF
:1011700001432160FFF71CFF814641F2883A0EE0EF
:1011800009688903EFE709688901ECE7FFF710FFB9
:10119000A0EB0901514502D90320BDE8F087206882
:1011A000696800F00C00B0EB810FEFD1D8F80010A7
:1011B000404601F00701B14207D90770006800F00E
:1011C0000700B04201D00120E7E72878400705D5A5
:1011D0002068E96820F4E050084320602878000780
:1011E00006D52068296920F4604040EAC1002060EB
:1011F00000F038F82168084AC1F30311515CC84077
:101200000649086006480068FFF7FAFE0020C4E7B8
:10121000003C024008380240045D000874000020D1
:101220006C0000200448054900680968044AC1F3BD
:101230008221515CC8407047740000200838024089
:10124000145D00080448054900680968044AC1F3B0
:101250004231515CC8407047740000200838024099
:10126000145D0008154810B5006810F00C02144811
:1012700013D01449042A0FD0082A0ED10F4C241F72
:101280002268236802F03F025B0207D52068C0F3A2
:101290008810A0FB010106E0084610BD2168C1F3DB
:1012A0008811A1FB00010023FEF78AFF2168C1F32A
:1012B0000141491C4900B0FBF1F010BD0838024063
:1012C0000024F40040787D012DE9F84F04006ED031
:1012D0002078DFF84C93C007A9F104054AD009F142
:1012E00004000168C1F38101012908D00068C0F33E
:1012F000810002280AD1D9F80000400206D52868EA
:10130000800337D560680028E1D033E06068B0F52D
:10131000803F10D0B0F5A02F286810D020F4803086
:101320002860286820F4802028606068A8B1FFF752
:101330003FFE06460DE0286840F48030F4E740F4B4
:1013400080202860F7E700BFFFF732FE801B64288B
:1013500073D828688003F7D50CE0FFF729FE06460E
:1013600005E000BFFFF724FE801B6428F0D8286842
:101370008003F7D42078DFF8AC8280074FF0000AB2
:101380003ED5A748001D016811F00C0F08D0006879
:10139000C0F3810002280BD1D9F80000400207D425
:1013A0002868800716D5E068012800D112E033E1F3
:1013B000E068B8B10120C8F80000FFF7F9FD064663
:1013C00005E000BFFFF7F4FD801B0228C0D82868A5
:1013D0008007F7D52868216920F0F80040EAC100AD
:1013E00028600DE0C8F800A0FFF7E2FD064604E023
:1013F000FFF7DEFD801B02281FD828688007F7D47E
:101400002078000722D5864F87486169703771B10F
:1014100001210160FFF7CCFD064604E0FFF7C8FD9F
:10142000801B022809D838688007F7D50EE0C0F87D
:1014300000A0FFF7BDFD064605E082E0FFF7B8FD1E
:10144000801B02287DD838688007F7D420784007B1
:1014500068D5DFF8CCB100270BF13C0BDBF80000BE
:10146000C0000BD4DBF8001041F08051CBF8001025
:10147000DBF80000012700F0805000906B4E3068D0
:10148000C00510D4306840F480703060FFF790FDE4
:10149000009005E0FFF78CFD0099401A022850D813
:1014A0003068C005F6D55E4EA0686C3601280FD0B6
:1014B0000528306810D020F001003060306820F03E
:1014C00004003060A068B8B1FFF772FD00900FE033
:1014D000306840F00100F4E740F004003060F7E7C6
:1014E000FFF766FD0099411A41F28830814266D8C3
:1014F00030688007F4D50EE0FFF75AFD009007E052
:10150000FFF756FD0099411A41F28830814256D8C2
:1015100030688007F4D42FB1DBF8001021F080513F
:10152000CBF80010A069C8B33D49091D0968C1F393
:10153000810102294AD00228504607D0C8F860002D
:1015400000E03CE0FFF734FD04463BE04746C8F8C6
:101550006000FFF72DFD064605E000BFFFF728FD00
:10156000801B02282BD828688001F7D4D4E9070112
:101570000843A16A2E4A490802EB0141626A41EA26
:101580008211084394F82C1040EA0161C9F8001058
:1015900001203866FFF70CFD044606E03EE000BF80
:1015A000FFF706FD001B022809D828688001F7D53F
:1015B00034E000BFFFF7FCFC001B022802D9032027
:1015C000BDE8F88F28688001F4D427E00128F7D01F
:1015D000D9F80000E26900F4800191421CD1226A2E
:1015E00000F03F01914217D147F6C071626A014095
:1015F000B1EB821F10D1A26A4FF0FF3300F44031EB
:1016000003EB5202B1EB024F06D194F82C1000F01C
:101610007060B0EB016F01D00120D1E70020CFE76F
:101620000438024000004742800E474200700040EC
:101630000000FFFF10B5401EB0F1807F01D30120F4
:1016400010BD4FF0E02460610F21601702F0B2F886
:101650000020A06107202061002010BD7047704766
:1016600010B590F83C20012A22D0012280F83C20BD
:10167000CA688C6822F4407222434C6822F480626B
:1016800022430C6822F4006222430C6922F4805247
:1016900022434C6922F400522243C969002322F4F8
:1016A00080420A4301684A6480F83C30002010BD43
:1016B000022010BD70B590F83C20012A32D00124E0
:1016C00080F83C40022280F83D2003685A689D68FB
:1016D00022F070060A6832435A60134B02689A423D
:1016E00014D0B2F1804F11D0104B9A420ED0104B53
:1016F0009A420BD00F4B9A4208D00F4B9A4205D01A
:101700000E4B9A4202D00E4B9A4204D1496825F002
:1017100080031943916080F83D40002180F83C101F
:10172000084670BD022070BD00000140000400406A
:1017300000080040000C004000040140004001404F
:101740000018004010B5040003D094F83D0010B11B
:1017500007E0012010BD002084F83C00204600F086
:101760001FF8022084F83D00211D206801F0B2FB23
:10177000012084F8460084F83E0084F83F0084F895
:10178000400084F8410084F8420084F8430084F863
:10179000440084F8450084F83D00002010BD00009E
:1017A00008B501683048314A81420ED1106840F0D6
:1017B000010010601068002200F001000090114646
:1017C0001920FFF763FC192048E02848001FB1F1F9
:1017D000804F11D0264B99421DD1016841F0020182
:1017E00001600068002200F00200009011461D20F8
:1017F000FFF74CFC1D2031E0016841F00101016060
:101800000068002200F00100009011461C20FFF744
:101810003DFC1C2022E0174B99420ED1016841F09B
:10182000080101600068002200F0080000901146E5
:101830003220FFF72BFC322010E00F48814211D1FB
:10184000106840F0020010601068002200F00200F2
:10185000009011462C20FFF719FC2C20BDE8084011
:10186000FFF706BC08BD00000000014044380240FC
:1018700000040040000C00400004014090F83D10BE
:10188000012901D001207047022180F83D10016834
:10189000CA6842F00102CA6000681149884214D047
:1018A000B0F1804F11D00F4988420ED00E498842C6
:1018B0000BD00E49884208D00D49884205D00D4909
:1018C000884202D00C49884204D1816801F00701A6
:1018D000062903D0016841F0010101600020704732
:1018E000000001400004004000080040000C0040DF
:1018F00000040140004001400018004070B504465B
:1019000090F83C000025012817D0012684F83C609F
:10191000022084F83D002068826822F0770222F4D9
:101920007F4282600868502838D00DDC20284FD0D4
:1019300005DC90B3102811D14AE0022070BD302898
:1019400046D040280AD13BE060282FD070280DD027
:10195000B0F5805F03D0B0F5005F12D0012584F8A8
:101960003D60002084F83C00284670BDCB68D1E97A
:101970000121206801F027FB2068816841F0770190
:1019800009E0CB68D1E90121206801F01CFB206847
:10199000816841F480418160E1E719E0CA684968E3
:1019A000206801F0E5FB5021206806E0CA6849681C
:1019B000206801F0EEFB6021206801F00EFBCEE70D
:1019C000CA684968206801F0D3FB40212068F4E729
:1019D000226801461046F0E770472DE9F0410446C1
:1019E0000068C66805694FF00007A90713D5B1075D
:1019F00011D5F91E016101202077206880698007D8
:101A0000204602D0FFF7E8FF04E000F015F9204679
:101A100000F0C4F92777680716D5700714D5216838
:101A20006FF004000861022020772068806910F4BC
:101A3000407F204602D0FFF7CFFF04E000F0FCF823
:101A4000204600F0ABF92777280715D5300713D5C6
:101A500021686FF008000861042020772068C069C1
:101A60008007204602D0FFF7B7FF04E000F0E4F85B
:101A7000204600F093F92777E80616D5F00614D52E
:101A800021686FF010000861082020772068C06985
:101A900010F4407F204602D0FFF79EFF04E000F0E4
:101AA000CBF8204600F07AF92777E80708D0F0074E
:101AB00006D021686FF001000861204600F032FA7C
:101AC000280608D5300606D521686FF08000086129
:101AD0002046FFF7C3FD680608D5700606D52168C5
:101AE0006FF040000861204600F01AFBA8060AD5F6
:101AF000B00608D521686FF0200008612046BDE8D7
:101B0000F041FFF7ACBDBDE8F081000070B586B0D4
:101B1000044614216846FEF79DFB3D4822680024D8
:101B20003C490225012682420FD1086840F010008E
:101B300008600868694600F0100005904FF4D44032
:101B40000090CDE90154344834E003233348B2F126
:101B5000804F10D0324EB24232D10A6842F00102B8
:101B60000A60096801F00101059140210091CDE969
:101B70000154694635E00A6842F001020A600A68C9
:101B800002F0010205920A6842F002020A60096846
:101B90000093CDE9015401F00201CDE90461039401
:101BA0006946FFF707F94FF440600090CDE9015412
:101BB0001C486946CDE90346FFF7FCF806B070BD46
:101BC0001948824210D1086840F00800086008688F
:101BD000694600F00800059090140090CDE901548A
:101BE0001248CDE90345E7E711488242E6D108688B
:101BF00040F0040008600868694600F004000590A1
:101C000090150090CDE90154CDE903430948D3E78D
:101C10000000014030380240001002400000024045
:101C2000000400400004024000080040000C024094
:101C30000004014000080240704770B5044690F867
:101C40003C0000260D4601280FD0012084F83C00FE
:101C50006AB1042A1DD0082A2FD00C2A3FD00126B1
:101C6000002084F83C00304670BD022070BD206822
:101C700001F0BCF92068816941F0080181612068A8
:101C8000816921F004018161206881692A69114319
:101C900011E0206801F0DAF92068816941F40061FF
:101CA00081612068816921F4806181612068816996
:101CB0002A6941EA02218161D2E7206801F0FCF93A
:101CC0002068C16941F00801C1612068C16921F043
:101CD0000401C1612068C1692A69114311E02068CB
:101CE00001F01EFA2068C16941F40061C1612068F9
:101CF000C16921F48061C1612068C1692A6941EA32
:101D00000221C161ACE710B5040003D094F83D0096
:101D100010B107E0012010BD002084F83C002046EF
:101D200000F01EF8022084F83D00211D206801F01B
:101D3000D1F8012084F8460084F83E0084F83F0082
:101D400084F8400084F8410084F8420084F843009D
:101D500084F8440084F8450084F83D00002010BD5C
:101D600008B500680B49884212D10B48016841F060
:101D7000040101600068002200F004000090114698
:101D80001E20FFF783F9BDE808401E20FFF770B959
:101D900008BD0000000800404038024070470000C5
:101DA00010B50446022249B104290ED0082913D0E7
:101DB00094F84100012816D0012010BD94F83E008F
:101DC0000128F9D184F83E200FE094F83F00012863
:101DD000F2D184F83F2008E094F840000128EBD1CC
:101DE00084F8402001E084F841200122206801F0BD
:101DF000DDF816492068164A884201D0904203D186
:101E0000436C43F4004343642068884213D0B0F12C
:101E1000804F10D00F4988420DD00F4988420AD018
:101E20000E49884207D0904205D00D49884202D021
:101E30000C49884204D1816801F00701062903D0CA
:101E4000016841F001010160002010BD0000014067
:101E5000000401400004004000080040000C004065
:101E6000004001400018004070B50D0004464FF0DE
:101E7000000607D0042D0AD0082D0DD00C2D10D04F
:101E800001263FE02068C16821F002010DE02068D2
:101E9000C16821F0040108E02068C16821F0080150
:101EA00003E02068C16821F01001C16000222946CA
:101EB000206801F07BF8194B41F2111120688A105B
:101EC000984202D0164B984209D1036A0B4206D1C0
:101ED000036A134203D1436C23F400434364206834
:101EE000036A0B4206D1016A114203D1016821F055
:101EF0000101016001203DB1042D08D0082D09D059
:101F000084F84100304670BD84F83E00FAE784F85A
:101F10003F00F7E784F84000F4E7000000000140CC
:101F2000000401402DE9F0476E4D06462DED088B6B
:101F30000027006829686C4C88427CD16B489FED73
:101F40006CAB9FED6D9B9FED6E8B9FED6FBBE16862
:101F5000012971D121698146491C21610068FEF780
:101F600069FB94ED101B53EC112BFEF722FA53EC96
:101F70001A2BFEF773FB2CD294ED100B53EC192B9C
:101F800051EC100BFEF718FA8A464AEC100B80460B
:101F900053EC102B51EC180BFEF780FAFEF731FBD7
:101FA0002968C8624AEC108B51EC180B53EC102BCB
:101FB000FEF774FAFEF725FB4AEC108BE86053EC51
:101FC000102B51EC1B0BFEF769FAFEF71AFB296880
:101FD000C863D9F80000FEF72DFB94ED101B53ECFD
:101FE000112BFEF7E6F953EC1A2BFEF737FB2FD235
:101FF00094ED100B53EC192B51EC100BFEF7DCF9A0
:10200000894649EC100B804653EC102B51EC180B11
:10201000FEF744FAFEF7F5FA2968C86249EC108B1E
:1020200051EC180B53EC102BFEF738FAFEF7E9FAD7
:1020300049EC108B01E026E015E0E86053EC102B32
:1020400051EC1B0BFEF72AFAFEF7DBFA2968C8638E
:10205000D4E90401884206D12761E76008212148BC
:102060006761FFF701FFA06901280CD1E069401CFE
:10207000E061216A884206D1E761A7610C21194815
:102080002762FFF7F1FE22493068096888420FD1C4
:10209000606A01280CD1A06A401CA062E16A8842F3
:1020A00006D1A762676200211948E762FFF7DCFEEC
:1020B000184930680968884210D1D4E90E01401CE3
:1020C00041F10001C4E90E01FEF768FA9FED121B11
:1020D00053EC112BFEF7E2F9C4E91001BDEC088BBB
:1020E000BDE8F087D8030020000000206000002039
:1020F0009A9999999999B93F0000000000408F4042
:1021000000000000C010F1400000000000C1D640F7
:1021100068040020F804002000000000000059407E
:102120007047704710B504460068406994F8411044
:10213000C0F3C010212911D180B12068143050E8BB
:10214000001F21F0800140E80012002AF5D1A06BA9
:1021500008B1FEF762FC204601F0D3F82068406920
:1021600094F84210C0F38010222911D180B1206868
:10217000143050E8001F21F0400140E80012002A0E
:10218000F5D1E06B08B1FEF748FC204601F092F86B
:10219000002010BD70470000F8B5016804460868CB
:1021A000CA684B6910F00F0F4FF0000559D003F0CB
:1021B000010602F49077374365D0C10705D0D105F9
:1021C00003D5616C41F001016164410705D5D90770
:1021D00003D0616C41F002016164810705D5D90724
:1021E00003D0616C41F004016164010707D502F07E
:1021F0002001314303D0616C41F008016164616CDE
:1022000000293AD0800604D5900602D5204601F078
:1022100086F820684069616CC0F38010090700D41B
:1022200060B3204601F046F820684069400621D599
:102230002068143050E8001F21F0400140E80012EF
:10224000002AF5D1E06BA8B16E490165E06BFEF79D
:102250002DFC002811D0E06B016D01B0BDE8F0400D
:10226000084783060FD593060DD52046BDE8F840F4
:1022700001F055B82046FFF78DFFF8BD2046FFF767
:1022800089FF6564F8BD266B2023012E7DD1C6062B
:102290007BD5D60679D508684868009048694FF024
:1022A0000206400641D5E16B086840680004000C56
:1022B000E8D0A28D8242E5D9E085C869B0F5807F7B
:1022C0002DD020680C3050E8001F21F4807140E8C8
:1022D0000012002AF5D12068143050E8001F21F0C8
:1022E000010140E80012002AF5D12068143050E8BE
:1022F000001F21F0400140E80012002AF5D184F8C7
:102300004230256320680C3050E8001F21F0100196
:1023100040E80012002AF5D1E06BFEF77EFB666311
:10232000A08DE18D401A81B22AE0A08DE18D401A86
:1023300081B2E08D0028A5D00029A3D022680C32FC
:1023400052E8000F20F4907042E80007002FF5D10A
:102350002068143050E8002F22F0010240E80027E6
:10236000002FF5D184F84230256320680C3050E806
:10237000002F22F0100240E80023002BF5D1666305
:102380002046FFF7CEFEF8BDFFE705062BD5150664
:1023900029D594F841002128F5D1A068B0F5805FD7
:1023A00001D12069B0B1206A411C21622168007806
:1023B0004860E08C401E0004000CE084E3D12068FB
:1023C000C16821F08001C1602068C16841F040010E
:1023D000C160D8E7206A0088C0F308004860206A1E
:1023E000801C2062E5E74006CDD55006CBD5CA68F3
:1023F000204622F04002CA6084F8413000F0E4F93F
:10240000C1E70000B731000870B5040004D094F8AB
:102410004100002510B106E0012070BD84F8405055
:10242000204600F023F8242084F841002068C16889
:1024300021F40051C160204600F0D2FF20680169FC
:1024400021F4904101612068416921F02A01416134
:102450002068C16841F40051C1606564202084F89F
:10246000410084F842006563002070BD2DE9F04F03
:1024700087B0054614216846FDF7ECFE9748DFF863
:10248000588214380221D5F800C00024DFF84CA28D
:1024900003220723DFF848B28F060615C44542D150
:1024A000DAF8008048F01008CAF80080DAF800C0B6
:1024B0000CF0100CCDF814C0D0F800C04CF0010C9A
:1024C000C0F800C0006800F00100059050028DE8DF
:1024D000130069465846CDE90323FEF76BFCDFF88D
:1024E000088280494046C8F80010C0E90174C0E97C
:1024F0000346C8F81440C8F81840C8F81C40C8F88B
:102500002040C8F82440FEF7B3FB08B1FEF783FA79
:10251000C5F83C80002211462520C8F83850FEF747
:10252000B5FD25204BE0DFF8C481DFF8B091C4454C
:10253000A9F1040948D1D9F8008048F40038C9F855
:102540000080D9F800C00CF4003CCDF814C0D0F8DD
:1025500000C04CF0010CC0F800C0006800F00100A1
:1025600005900C208DE8130069465846CDE90323F9
:10257000FEF720FCDFF870815D4908F160084046F5
:10258000C8F80010C0E90174C0E90346C8F8144057
:10259000C8F81840C8F81C40C8F82040C8F82440C3
:1025A000FEF766FB08B1FEF736FAC5F83C8000225C
:1025B00011462620C8F83850FEF768FD2620FEF7A1
:1025C00057FD07B0BDE8F08FDFF82881C44546D13C
:1025D000D9F8008048F48028C9F80080D9F800C0F4
:1025E0000CF4802CCDF814C0D0F800C04CF0080CCE
:1025F000C0F800C0006800F0080005904FF440707B
:102600008DE8130069463C48CDE90323FEF7D2FB71
:10261000DFF8D480364908F1C00860394046C8F870
:102620000010C0E90174C0E90346C8F81440C8F8B6
:102630001840C8F81C40C8F82040C8F82440FEF7ED
:1026400017FB08B1FEF7E7F9C5F83C8000221146F8
:102650002720C8F83850FEF719FD2720AFE7274B91
:102660009C45AED1DAF8007047F02007CAF8007038
:10267000DAF8003003F020030593036843F0040305
:102680000360006800F004000590C0208DE813008E
:102690000820CDE9032069461948FEF78BFB114855
:1026A000184F183838608005C7E90104C7E90346A8
:1026B0007C61BC61FC613C6238467C62FEF7D8FA02
:1026C00008B1FEF7A8F9EF63002211464720BD6369
:1026D000FEF7DCFC472072E700100140443802405E
:1026E0000000024040640240A80600200044004070
:1026F0008860024000480040000C02400014014085
:1027000000080240C807002090F84230202B01D07A
:102710000220704721B11AB10023036300F0E6BE26
:1027200001207047704770472DE9F843044690F840
:102730004100984616460D46202802D00220BDE8EA
:10274000F88385B17EB100206064212084F84100C7
:10275000FEF72EFCA6848146E684A0682027B0F50B
:10276000805F02D003E00120E9E7206910B12E4626
:1027700000250EE000260CE08021204600F0FEFE41
:10278000A8B9C6B116F8010B21684860E08C401E5C
:10279000E084E08C4B464FF00002CDF8008000282A
:1027A000EAD14FF04001204600F0E8FE40B184F845
:1027B00041700320C3E735F8020BC0F30800E3E7DC
:1027C00084F841700020BAE77047FEE7194808B561
:1027D000016841F400110160016801F400110091E9
:1027E000016841F4800101600068002200F480006B
:1027F000009011460C20FEF749FC0C20FEF738FC37
:10280000002211461020FEF741FC1020FEF730FC9C
:10281000002211463920FEF739FC3920FEF728FC4A
:10282000002211463A20FEF731FCBDE808403A206C
:10283000FEF71EBC303802402DE9F04186B014216D
:102840006846FDF707FD2E480024016841F080012D
:102850000160016801F080010591016841F0040107
:102860000160016801F004010591016841F0010176
:102870000160016801F001010591016841F010015A
:102880000160016801F010010591016841F0020149
:102890000160016801F002010591016841F0080141
:1028A00001600068174F00F0080005900022012128
:1028B0003846FEF777FBDFF850804FF47C76002235
:1028C00031464046FEF76EFB01250095CDE90154E7
:1028D000694638460394FEF76DFA0820CDE90004F6
:1028E000694640460294FEF765FA0096CDE9015428
:1028F000694640460394FEF75DFA06B0BDE8F081F4
:1029000030380240000802400004024010B596B082
:1029100000240F9410941194129413941C2168466F
:102920001494FDF797FC202107A8FDF793FC344889
:10293000324901604821C0E9011442F20F71C0E937
:10294000031444618461FEF7FDFE08B1FEF763F8ED
:102950004FF480500F900FA92948FEF7CFFF08B120
:10296000FEF759F82648FFF7CEF908B1FEF753F8FD
:10297000139413A922481494FEF79CFE08B1FEF7A5
:102980004AF86020CDE9000402940394049405946D
:10299000002269461A480694FFF74FF908B1FEF77E
:1029A0003AF8042269461648FFF747F908B1FEF7DE
:1029B00032F8082269461248FFF73FF908B1FEF7DE
:1029C0002AF80C2269460E48FFF737F908B1FEF7DE
:1029D00022F80794089409944FF400500A94CDE922
:1029E0000B4007A906480E94FEF73AFE08B1FEF721
:1029F00012F80348FFF78AF816B010BD0000014036
:102A0000D803002010B58EB00024079408940994D0
:102A10000A940B941C2168460C94FDF71BFC294872
:102A20004FF08041C0E90014611EC0E90241046119
:102A30008461FEF787FE08B1FDF7EDFF4FF480508B
:102A4000079007A91F48FEF759FF08B1FDF7E3FFFC
:102A50001C48FFF758F908B1FDF7DDFF0B940BA9EF
:102A600018480C94FEF726FE08B1FDF7D4FF60204D
:102A7000CDE9000402940022694612480494FFF74D
:102A8000DCF808B1FDF7C7FF042269460D48FFF7DF
:102A9000D4F808B1FDF7BFFF082269460948FFF7DF
:102AA000CCF808B1FDF7B7FF0C2269460548FFF7DF
:102AB000C4F808B1FDF7AFFF0248FFF727F80EB0E2
:102AC00010BD00002004002010B58EB00024079433
:102AD000089409940A940B941C2168460C94FDF701
:102AE000B9FB1E481C4901604821C0E9011442F2AB
:102AF0000F71C0E903148461FEF724FE08B1FDF7ED
:102B00008AFF4FF48050079007A91448FEF7F6FE9D
:102B100008B1FDF780FF1148FFF7F5F808B1FDF7A0
:102B20007AFF0B940BA90D480C94FEF7C3FD08B176
:102B3000FDF771FF6020CDE9000402940022694690
:102B400006480494FFF779F808B1FDF764FF0348DD
:102B5000FEF7DCFF0EB010BD00040040680400204A
:102B600010B58AB0002407941C2168460894FDF72C
:102B700071FB1648144901604821C0E9011442F272
:102B80000F71C0E903148461FFF7BDF808B1FDF7C8
:102B900042FF079407A90D480894FEF78BFD08B182
:102BA000FDF739FF6020CDE9000402940022694658
:102BB00006480494FFF741F808B1FDF72CFF0348DD
:102BC000FEF7A4FF0AB010BD00080040B0040020CA
:102BD00010B586B000241748009401940294039421
:102BE00004941349059401604721C0E9011442F29D
:102BF0000F71C0E903148461FEF7A4FD08B1FDF76D
:102C00000AFF4FF48050009069460A48FEF776FEAE
:102C100008B1FDF700FF049404A906480594FEF7E7
:102C200049FD002801D0FDF7F6FE06B010BD0000FA
:102C3000000C0040F804002010B596B000240F945A
:102C400010941194129413941C2108A81494FDF765
:102C500001FB20216846FDF7FDFA2848264901605E
:102C60004821C0E9011442F20F71C0E90314446124
:102C70008461FEF767FD08B1FDF7CDFE4FF480508B
:102C80000F900FA91D48FEF739FE08B1FDF7C3FEEE
:102C90001A48FFF738F808B1FDF7BDFE139413A9E1
:102CA00016481494FEF706FD08B1FDF7B4FE602047
:102CB000CDE908040A940B940C940D94082208A9F9
:102CC0000E480E94FEF7B9FF08B1FDF7A4FE00947C
:102CD0004FF40050CDE904400294019403946946F6
:102CE00006480794FEF7BCFC08B1FDF794FE0348C4
:102CF000FEF70CFF16B010BD000401404005002097
:102D00000C4810B50A4901604FF46121416000216F
:102D100081600C22C160C0E904128161C161FFF7CA
:102D200073FB002803D0BDE81040FDF774BE10BD52
:102D300000100140880500200C4810B50A490160C8
:102D40004FF4E1314160002181600C22C160C0E993
:102D500004128161C161FFF757FB002803D0BDE871
:102D60001040FDF758BE10BD00440040D0050020C3
:102D70000C4810B50A4901604FF4E131416000216F
:102D800081600C22C160C0E904128161C161FFF75A
:102D90003BFB002803D0BDE81040FDF73CBE10BD52
:102DA00000480040180600200C4810B50A49016090
:102DB0004FF4E1314160002181600C22C160C0E923
:102DC00004128161C161FFF71FFB002803D0BDE839
:102DD0001040FDF720BE10BD001401406006002029
:102DE000FEE7FEE770477047FEF7E8B830B593B0EE
:102DF00030216846FDF72EFA14210CA8FDF72AFAB7
:102E00001C480024016841F080510160006800F016
:102E1000805011901848016841F4804101600068B9
:102E2000022500F4804011900120039010200490AE
:102E3000009506950820CDE907404820CDE9090511
:102E400004200B906846FEF73FFA08B172B6FEE721
:102E50000F20CDE90C054FF48050CDE90E40022142
:102E60000CA81094FEF744F9002801D072B6FEE7D2
:102E700013B030BD40380240007000400248016885
:102E800041F470010160704788ED00E00148FEF7F1
:102E9000A4BD0000D80300200148FEF79EBD00003D
:102EA000200400200148FEF798BD000068040020BF
:102EB0000148FEF792BD0000B00400200148FEF773
:102EC0008CBD0000F80400200148FEF786BD00001C
:102ED00040050020F0B50268294C2A4D2A4E2B4FA0
:102EE0002B4B4FF0804CA04209D0604507D0A84240
:102EF00005D0B04203D0B84201D0984204D122F0AC
:102F0000700E4A6842EA0E02A0421BD0604519D0FA
:102F1000A84217D0B04215D0B84213D0984211D071
:102F20001C4DA8420ED01C4DA8420BD01B4DA842F0
:102F300008D01B4DA84205D01A4DA84202D01A4D08
:102F4000A84203D122F44075CA682A434D6922F091
:102F500080022A4302608A68C2620A688262A042D2
:102F600001D0984201D109690163012141610169E0
:102F7000C90703D0016921F001010161F0BD000022
:102F8000000001400004004000080040000C004028
:102F9000000401400040014000440140004801405D
:102FA00000180040001C00400020004010B501F057
:102FB0001F030121046A99408C430462016A9A400C
:102FC0001143016210BD10B5846842EA032224F463
:102FD0007F440A432243826010BD826822F070025F
:102FE0000A4342F00701816070470000F0B5036AB0
:102FF000026A22F00102026242688469124E24F0E1
:1030000073050C682C4323F002058B682B430D4D90
:10301000A84201D0B04205D123F00807CB683B435A
:1030200023F00403A84201D0B04205D14D6922F437
:10303000407215438A692A4342608461496841634A
:103040000362F0BD0000014000040140F0B5026AD7
:10305000036A23F010030362436884690D6824F453
:10306000E64444EA05248D6822F0200242EA051273
:103070000F4D104EA84201D0B04206D1CF6822F0C9
:10308000800242EA071222F04002A84201D0B04278
:1030900007D14D6923F4406343EA85038D6943EA10
:1030A000850343608461496881630262F0BD00006A
:1030B0000000014000040140F0B5026A036A23F4F5
:1030C000807303624368C46922F4007224F07305BC
:1030D0000C68124E2C438D6842EA05220E4DA84220
:1030E00001D0B04206D1CF6822F4006242EA072242
:1030F00022F48062A84201D0B04207D14D6923F486
:10310000405343EA05138D6943EA05134360C461E4
:103110004968C1630262F0BD000001400004014043
:1031200030B5046A026A22F4805202624268C369BE
:103130000D6823F4E64343EA05238D6824F4005424
:1031400044EA0534084DA84202D0084DA84204D1F3
:103150004D6922F4804242EA85124260C3614968A7
:103160000164046230BD0000000001400004014021
:1031700010B5036A046A24F001040462846924F02F
:10318000F00444EA021423F00A020A438461026252
:1031900010BD10B5036A046A24F010040462846947
:1031A00023F0A00324F4704444EA023243EA0111FC
:1031B0008261016210BD10B5806B0021C185C184A0
:1031C000FEF7E8FF10BD70B5846B2068406994F885
:1031D0004110C0F3C0100025212904D118B1E584A5
:1031E000204600F08EF82068406994F84210C0F341
:1031F0008010222904D118B1E585204600F05AF844
:10320000606C40F0100060642046FEF7C3FF70BDA4
:1032100010B50146806B096809684FF00002C905C6
:103220002ED4C28501680C3151E8003F23F480732D
:1032300041E80034002CF5D10168143151E8003F19
:1032400023F0010341E80034002CF5D1016814316A
:1032500051E8003F23F0400341E80034002CF5D151
:10326000202180F84210016B012909D101680C313D
:1032700051E8003F23F0100341E80034002CF5D161
:103280004263016B012902D0FFF74CFA10BD818D1A
:10329000FEF747FF10BD10B5806B01214163016B44
:1032A000012902D0FFF73FFA10BD818D4908FEF7D2
:1032B00038FF10BD01680C3151E8002F22F49072E4
:1032C00041E80023002BF5D10168143151E8002FAB
:1032D00022F0010241E80023002BF5D1016B012906
:1032E00009D101680C3151E8002F22F0100241E8A9
:1032F0000023002BF5D1202180F84210002101632A
:10330000704701680C3151E8002F22F0C00241E8FB
:103310000023002BF5D1202180F84110704708B51B
:1033200090F84210222901D0022008BD82684FF493
:1033300080539A4201D1016921B1816A9A421BD01E
:103340004AB10AE00268816A5268C2F308020A8040
:10335000816A891C08E0026972B10268526802F051
:103360007F020A70816A491C8162C18D491E09046D
:10337000090CC18503D01BE002685268F1E70168BF
:10338000CA6822F02002CA600168CA6822F480720A
:10339000CA6001684A6922F001024A61202180F86E
:1033A000421000214163026B012A03D0FFF7BAF9F2
:1033B000002008BD016301680C3151E8002F22F0A4
:1033C000100241E80023002BF5D101680A68D206FB
:1033D00002D50A6849680091818DFEF7A2FEE7E7F1
:1033E00070B5044600680169E26821F44051114358
:1033F00001612169A068E2690843616911430843DA
:103400002168CA6849F20C639A430243CA60206883
:103410004169A26921F44071114341613149206839
:10342000884202D03049884202D1FDF70BFF01E00B
:10343000FDF7F8FEE2690023192164253226B2F572
:10344000004F626828D0A0FB0101930F9200FCF7A7
:10345000B7FE0146B0FBF5F06FF01802504301EBE8
:10346000800006EB0010B0FBF5F000F0F002B1FBBD
:10347000F5F002EB0012B1FBF5F06FF018035843C2
:1034800001EB800006EB0010B0FBF5F000F00F0040
:1034900021681044886070BDA0FB010192185B4157
:1034A000FCF78EFE0146B0FBF5F00201B1FBF5F032
:1034B0006FF01803584301EB800006EBC000B0FB2F
:1034C000F5F000F0F80002EB4002B1FBF5F05843D4
:1034D00001EB800006EBC000B0FBF5F000F0070048
:1034E000D6E70000001001400014014038B58162A9
:1034F00004468285002013466064222284F842201C
:10350000E56B1B4AEA63E56B1A4A2A64E56B1A4AC3
:10351000EA64E26B10650A462168E06B091DFDF75D
:1035200011FC2068016840680090206948B120685B
:103530000C3050E8001F41F4807140E80012002A6E
:10354000F5D12068143050E8001F41F0010140E837
:103550000012002AF5D12068143050E8001F41F015
:10356000400140E80012002AF5D1002038BD0000DB
:103570001132000897320008C73100082DE9F843DE
:10358000984617460D460446089E24E0701C22D03B
:10359000FDF70EFDA0EB0800B0421AD8CEB12068AE
:1035A000C168490717D5802D15D0402D13D001686B
:1035B000C94309070FD401680025406800902046E0
:1035C000FFF778FE0820606484F840500120BDE8D1
:1035D000F8830320FBE72068006835EA000004D088
:1035E0000020B842D2D00020F1E70120F9E7000026
:1035F00010B50448FEF7D0FDBDE810400148FDF7C6
:103600004FB900008805002010B50448FEF7C4FD3E
:10361000BDE810400148FDF743B90000D005002087
:1036200010B50448FEF7B8FDBDE810400148FDF7AD
:1036300037B900001806002010B50448FEF7ACFDAD
:10364000BDE810400148FDF72BB9000060060020DE
:1036500070B504460068444988421BD12046FEF7F5
:1036600061FD4248006840684149C0F13200C5B27E
:10367000322201F13200FCF7D4FD3D48323000F037
:1036800063F929463A48FCF7E5FD322238492046DD
:10369000FFF73AF83749206888421ED12046FEF7E6
:1036A00041FD3548006840683149C0F13200C5B27B
:1036B0006431322201F13200FCF7B3FD2C48963020
:1036C00000F09CFA2A4829466430FCF7C3FD2849DB
:1036D000322264312046FFF717F8284920688842D3
:1036E0001ED12046FEF71EFD25480068406820498F
:1036F000C0F13200C5B2C831322201F13200FCF70C
:1037000090FD1B48FA3000F081FA19482946C8306C
:10371000FCF7A0FD16493222C8312046FEF7F4FF1F
:103720001849206888421DD12046FEF7FBFC164848
:10373000006840681549C0F13200C5B2322201F17B
:103740003200FCF76EFD1148323000F05FFA294676
:103750000E48FCF77FFD2046BDE8704032220B4941
:10376000FEF7D2BF70BD000000100140A806002087
:103770007C00002000440040080700200048004072
:103780006807002000140140C8070020A80100209D
:10379000FEE700000FB4054B10B503A9044A0298D8
:1037A00000F028F810BC5DF814FB00001D3C000878
:1037B000780000200907090E002804DB00F1E02052
:1037C00080F80014704700F00F0000F1E02080F84E
:1037D000141D704702E008C8121F08C1002AFAD160
:1037E00070477047002001E001C1121F002AFBD181
:1037F000704700002DE9FF4F89B09B460446002525
:1038000006E025280BD05A460B999047641C6D1C86
:1038100020780028F5D10DB02846BDE8F08F0027AC
:10382000B8460122474900E0074314F8013F203B16
:1038300002FA03F00842F7D120782E2819D114F8A3
:10384000010F47F004072A280ED06FF02F022078CE
:10385000A0F1300109290CD808EB880102EB4101E5
:1038600000EB0108641CF2E70A98641C50F8048B12
:103870000A9020780028CED0642808D0692806D085
:1038800075281ED05A460B9990476D1C58E00A992E
:103890004FF00A0901C90A91002802DA40422D219D
:1038A00002E0390504D52B218DF82010012103E019
:1038B000F90704D02021F7E78A4608AE0DE0002181
:1038C000FAE70A994FF00A0901C90A91F7E7494650
:1038D000FCF7F8FE303106F8011D0028F7D1ADEBFA
:1038E000060000F12009780701D44FF00108C8450F
:1038F00002DDA8EB090000E000208046002706E07A
:1039000008A85A46C05D0B9990476D1C7F1C57450F
:10391000F6DB04E030205A460B9990476D1CB8F155
:103920000001A8F10108F5DC05E016F8010B5A4684
:103930000B9990476D1CB9F10001A9F10109F4DC64
:10394000641C65E709280100F0B52DED028B0446E3
:10395000014683B0FF2304229D48FEF7E5FE207850
:103960009C4D512827D1607852287DD1A0786F1DB9
:10397000303800F0FF0CA81C80F800C0E178303926
:10398000CAB2427021793039CBB28370A079303815
:10399000C6B23E70E0793038C1B27970207A3038E2
:1039A000C0B2B8700096CDE9011061468AA0FFF759
:1039B000F1FE012068702078432825D160784128E5
:1039C00052D1A07854284FD1E078432812D12079E1
:1039D000482849D16079303800F0F8FDA868401CCB
:1039E000A860207843280FD1607841283CD1A07886
:1039F000542839D1E0784C2836D12079303800F07D
:103A000083FFA868401CA8602078502822D16078E5
:103A1000552829D1A078542826D1E0784C280FD1F8
:103A20002079303801F0A0FAA868401CA8602078FE
:103A300050280FD16078552816D1A078542813D17A
:103A4000E078482810D12079303801F0F5F8A868DE
:103A5000401CA86020784D2806D160789FED658ACB
:103A60004F2830D1A07800E07FE056287DD1E07863
:103A70004C2815D120796421303810FB01F000EE7C
:103A8000100AF8EEC00AB0EE480A00F0F1FB207808
:103A90004D286AD160784F2815D1A078562864D176
:103AA000E078522861D120796421303810FB01F090
:103AB00000EE100AF8EEC00AB0EE480A00F0AEFCC4
:103AC00020784D2851D160784B4E46281BD1A078E4
:103AD0002179303800EBC00202EB001001EB8000CE
:103AE000E17801EB810106EB4101084400EE100A88
:103AF000F8EEC00AB0EE480AC5ED0C0A00F010FB63
:103B000020784D2860D1607842281BD1A078217997
:103B1000303800EBC00202EB001001EB8000E178CE
:103B200001EB810106EB4101084400EE100AF8EEBA
:103B3000C00AB0EE480AC5ED0C0A00F049FA207838
:103B40004D2841D160784C281DD1A078217930389A
:103B500000EBC00202EB001001EB8000E17801EB0A
:103B6000810106EB4101084400E02DE000EE100A5F
:103B7000F8EEC00AB0EE480AC5ED0C0A00F078FB7A
:103B800020784D2820D1607852281DD1A078217945
:103B9000303800EBC00202EB001001EB8000E1784E
:103BA00001EB810106EB4101084400EE100AF8EE3A
:103BB000C00AB0EE480AC5ED0C0A03B0BDEC028B9A
:103BC000BDE8F04000F02ABC03B0BDEC028BF0BDB4
:103BD000880500200000002074312E7478743D2286
:103BE0002564256425642D25642564256422FFFF52
:103BF000FF0000000000C842F0FDFFFFFF23014668
:103C000004220148FEF790BDD0050020FF230146A5
:103C100004220148FEF788BD1806002013B54FF6B0
:103C2000FF73012269460248FEF77EFD00981CBD25
:103C300088050020FDF7CAF9FFF7D8F8FEF7FCFD6C
:103C4000FEF7C4FDFFF75CF8FFF776F8FEF75EFEBF
:103C5000FEF7D8FEFEF738FFFEF7BAFFFFF788F849
:103C6000FFF7A2F8FEF77CFFFEF7E6FF01F03AFC53
:103C7000FF23052203A10548FEF756FD00F0A4FC32
:103C8000FCE7000053544152540000008805002016
:103C90000FB42DED020B2DE9F04101242DED088B21
:103CA000B0EE609AB0EE408AB5EEC09AF1EE10FA2E
:103CB00001DD8DF89840B5EEC09AF1EE10FA04D20D
:103CC00000208DF89800B1EE499AB14F9FEDB1AB4D
:103CD000109868BB9DF8982080213846FDF762F95E
:103CE000AE48BDEEC90A046010EE100AFCF745FCB0
:103CF00053EC1A2BFCF760FBFCF764FCA849086046
:103D0000A84890ED00BB51EC1B0BFCF7BFFCA64D87
:103D10009FEDA60B286053EC102B51EC1B0BFCF70E
:103D2000A4FAFCF7B3FC686012A81199FEF738F802
:103D3000DFEDA09ADFEDA08A1098012831D10102B1
:103D40009DF898203846FDF72DF99C48BDEEC90A2C
:103D5000046010EE100AFCF710FC53EC1A2BFCF771
:103D60002BFBFCF72FFC89EE880A95490860129915
:103D7000BCEEC00A10EE100AC8628DED150A11984B
:103D8000A8B104281CD088EE880A08281299BCEE35
:103D9000C00A10EE100A1CD0086412A81199FDF791
:103DA000FFFF1098874D884E022814D044E088EE1B
:103DB000880A1299BCEEC00A10EE100A4863ECE7BC
:103DC00088EE880A1299BCEEC00A10EE100A8863C9
:103DD000E3E7C863E1E79DF898204FF400713846A7
:103DE000FDF7E0F8BDEEC90A2C6010EE100AFCF7F2
:103DF000C4FB53EC1A2BFCF7DFFAFCF7E3FB89EE6C
:103E0000880A30601299BCEEC00A10EE100AC8622F
:103E10008DED150A119898B104281AD088EE880AF9
:103E200008281299BCEEC00A10EE100A1AD00864D5
:103E300012A81199FDF7B4FF1098032814D043E09D
:103E400088EE880A1299BCEEC00A10EE100A486388
:103E5000EEE788EE880A1299BCEEC00A10EE100A4E
:103E60008863E5E7C863E3E79DF89820202138469A
:103E7000FDF798F8BDEEC90A2C6010EE100AFCF7A9
:103E80007CFB53EC1A2BFCF797FAFCF79BFB89EEB3
:103E9000880A30601299BCEEC00A10EE100AC8629F
:103EA0008DED150A1198E8B3042851D088EE880AE0
:103EB00008281299BCEEC00A10EE100A51D008640E
:103EC00012A81199FDF76CFF1098042831D19DF8C4
:103ED000982040213846FDF765F8BDEEC90A2C60F0
:103EE00010EE100AFCF749FB53EC1A2BFCF764FAAE
:103EF000FCF768FB89EE880A30601299BCEEC00AB4
:103F000010EE100AC8628DED150A119858B30428F6
:103F100032D088EE880A08281299BCEEC00A10EE4A
:103F2000100A00E00BE030D0086412A81199FDF7E8
:103F300037FFBDEC088BBDE8F0015DF81CFB88EE97
:103F4000880A1299BCEEC00A10EE100A4863B7E75F
:103F500088EE880A1299BCEEC00A10EE100A886337
:103F6000AEE7C863ACE788EE880A1299BCEEC00AD7
:103F700010EE100A4863D8E788EE880A1299BCEE62
:103F8000C00A10EE100A8863CFE7C863CDE70000CF
:103F900000040240C1CAA145B6F322400C00002033
:103FA00014000020400000206000002000000000FD
:103FB0000000F03F008688470008B6461800002041
:103FC00020000020240000202C000020704700006A
:103FD00010B54F4C2DED028BAAB054F8300BF0EE1B
:103FE000608AB0EE408A54F82C1C3D22CDE91301C2
:103FF000474915A80831FCF714F9607D8DF8910048
:10400000A07D8DF89200E07D8DF89300207E8DF8E4
:104010009400607E8DF89500A07E8DF89600E07E7D
:104020008DF89700207F8DF89800607F8DF89900BB
:10403000A07F8DF89A00206A616AA26A27AB83E8A4
:1040400007004C2217A96846FCF7EBF89FED310AF0
:104050000DF14C0C28EE008A9CE80F0068EE800AF7
:10406000B0EE480AFFF714FE18EE900AFCF7E2FAE9
:104070009FED291B53EC112BFCF79EF9FCF706FB77
:1040800008EE900AE06A216B3D22CDE91301204938
:1040900015A86431FCF7C5F81D485C3010F8451FC1
:1040A0008DF8911041788DF8921081788DF89310E9
:1040B000C1788DF8941001798DF8951041798DF8BB
:1040C000961081798DF89710C1798DF89810017A42
:1040D0008DF89910407A8DF89A000D4A8032D06A96
:1040E000116B526B27AB83E807004C2217A9684677
:1040F000FCF797F813ACB0EE480A94E80F00F0EE26
:10410000680AFFF7C5FD2AB0BDEC028B10BD0000A8
:104110000C0200200AD7933F7B14AE47E17AF2BF2E
:1041200010B52DED048BF0EE608AAAB0B0EE408A97
:1041300018EE900AFCF77EFA9FED490B53EC102B1A
:10414000FCF73AF9FCF7A2FA474C09EE100A54F8CA
:10415000300B54F82C1C3D22CDE91301424915A81F
:104160000831FCF75EF8607D8DF89100A07D8DF838
:104170009200E07D8DF89300207E8DF89400607EA3
:104180008DF89500A07E8DF89600E07E8DF8970062
:10419000207F8DF89800607F8DF89900A07F8DF8C2
:1041A0009A00206A616AA26A27AB83E807004C2262
:1041B00017A96846FCF735F8DFED2C9A0DF14C0C89
:1041C000F0EE490A28EE298A9CE80F00B0EE480A72
:1041D000FFF75EFDE06A216B3D22CDE91301224924
:1041E00015A86431FCF71DF81F485C3010F8451F16
:1041F0008DF8911041788DF8921081788DF8931098
:10420000C1788DF8941001798DF8951041798DF869
:10421000961081798DF89710C1798DF89810017AF0
:104220008DF89910407A8DF89A000F4A8032D06A42
:10423000116B526B27AB83E807004C2217A9684625
:10424000FBF7EFFF13AC68EEA90A94E80F00B0EE9D
:10425000480AFFF71DFD2AB0BDEC048B10BD00001D
:104260007B14AE47E17AF2BF0C0200200AD7933FDD
:1042700010B5694C2DED028BAAB054F8300BB0EE9E
:10428000608AF0EE408A54F82C1C3D22CDE91301DF
:10429000614915A80831FBF7C4FF607D8DF89100D6
:1042A000A07D8DF89200E07D8DF89300207E8DF842
:1042B0009400607E8DF89500A07E8DF89600E07EDB
:1042C0008DF89700207F8DF89800607F8DF8990019
:1042D000A07F8DF89A00206A616AA26A27AB83E802
:1042E00007004C2217A96846FBF79BFF0DF14C0C09
:1042F000F0EE480A9CE80F00B0EE680AFFF7C8FC31
:10430000E06A216B3D22CDE91301434915A86431D0
:10431000FBF787FF40485C3010F8451F8DF891107F
:1043200041788DF8921081788DF89310C1788DF8CE
:10433000941001798DF8951041798DF89610817956
:104340008DF89710C1798DF89810017A8DF8991031
:10435000407A8DF89A00304C8034E06A216B626BB1
:1043600027AB83E807004C2217A96846FBF759FFE3
:104370000DF14C0CF0EE480A9CE80F00B0EE680A14
:10438000FFF786FCA06BE16B3D22CDE9130104F140
:10439000400115A8FBF745FF04F1380010F8451F50
:1043A0008DF8911041788DF8921081788DF89310E6
:1043B000C1788DF8941001798DF8951041798DF8B8
:1043C000961081798DF89710C1798DF89810017A3F
:1043D0008DF89910407A8DF89A0004F18002906867
:1043E000D168126927AB83E807004C2217A96846F9
:1043F000FBF717FFB8EE000A13AC68EE000A94E86A
:104400000F00B0EE000A28EE800AFFF741FC2AB048
:10441000BDEC028B10BD00000C02002010B5694CF1
:104420002DED048BAAB0B0EE608A54F8300BF0EE9C
:10443000408A54F82C1C3D22CDE91301614915A88E
:104440000831FBF7EEFE607D8DF89100A07D8DF8C0
:104450009200E07D8DF89300207E8DF89400607EC0
:104460008DF89500A07E8DF89600E07E8DF897007F
:10447000207F8DF89800607F8DF89900A07F8DF8DF
:104480009A00206A616AA26A27AB83E807004C227F
:1044900017A96846FBF7C5FE0DF14C0CF1EE480A72
:1044A0009CE80F00B0EE609AB0EE680AFFF7F0FBF0
:1044B000E06A216B3D22CDE91301424915A8643120
:1044C000FBF7AFFE3F485C3010F8451F8DF89110A8
:1044D00041788DF8921081788DF89310C1788DF81D
:1044E000941001798DF8951041798DF896108179A5
:1044F0008DF89710C1798DF89810017A8DF8991080
:10450000407A8DF89A002F4C8034E06A216B626B00
:1045100027AB83E807004C2217A96846FBF781FE0A
:104520000DF14C0CF0EE490A9CE80F00B0EE680A61
:10453000FFF7AEFBA06BE16B3D22CDE9130104F167
:10454000400115A8FBF76DFE04F1380010F8451F77
:104550008DF8911041788DF8921081788DF8931034
:10456000C1788DF8941001798DF8951041798DF806
:10457000961081798DF89710C1798DF89810017A8D
:104580008DF89910407A8DF89A0004F180029068B5
:10459000D168126927AB83E807004C2217A9684647
:1045A000FBF73FFE13ACB0EE000A94E80F0068EE94
:1045B000000A28EE800AFFF76BFB2AB0BDEC048BE3
:1045C00010BD00000C02002000F066BE2DE9F04393
:1045D000C84D07462DED028BABB055F8300B55F8A2
:1045E0002C1C3D22CDE91301C24915A8083188468B
:1045F000FBF717FE687D8DF89100A87D8DF892007D
:10460000E87D8DF89300287E8DF89400687E8DF803
:104610009500A87E8DF89600E87E8DF89700287F9B
:104620008DF89800687F8DF89900A87F8DF89A0022
:10463000286A696AAA6A27AB303D83E807004C22E2
:1046400017A96846FBF7EDFD9FEDAB8AF0EE480A2F
:10465000DFEDAA8A13AC94E80F00B0EE680AFFF70A
:1046600017FBA74C01CC54F82C1B3D22CDE91301BC
:10467000A34915A808318946FBF7D3FD607D8DF865
:104680009100A07D8DF89200E07D8DF89300207E52
:104690008DF89400607E8DF89500A07E8DF89600D0
:1046A000E07E8DF89700207F8DF89800607F8DF870
:1046B0009900A07F8DF89A00206A616AA26A27ABF0
:1046C00083E807004C2217A96846FBF7AAFD13AE42
:1046D000F0EE480A96E80F00B0EE680AFFF7D8FA45
:1046E000884EB0EE480AD6E9020100F0CDFE54F83B
:1046F000300C54F82C1C3D22CDE91301494615A875
:10470000FBF78FFD607D8DF89100A07D8DF8920004
:10471000E07D8DF89300207E8DF89400607E8DF80A
:104720009500A07E8DF89600E07E8DF89700207FA2
:104730008DF89800607F8DF89900A07F8DF89A0021
:10474000206A616AA26A27AB303C83E807004C22EA
:1047500017A96846FBF765FD0DF14C0CF0EE480A11
:104760009CE80F00B0EE680AFFF792FA012F3CD1E7
:1047700055F8300B55F82C1C3D22CDE9130141466C
:1047800015A8FBF74EFD687D8DF89100A87D8DF88A
:104790009200E87D8DF89300287E8DF89400687E65
:1047A0008DF89500A87E8DF89600E87E8DF897002C
:1047B000287F8DF89800687F8DF89900A87F8DF884
:1047C0009A00286A696AAA6A27AB83E807004C2224
:1047D00017A96846FBF725FD13AFF0EE480A97E8E6
:1047E0000F00B0EE680AFFF753FA54F8300B54F894
:1047F0002C1C3D22CDE91301494615A8FBF711FDFC
:10480000607D8DF89100A07D8DF89200E07D8DF89F
:104810009300207E8DF89400607E8DF89500A07E38
:104820008DF89600E07E8DF89700207F8DF8980037
:10483000607F8DF89900A07F8DF89A00206A616AE8
:10484000A26A27AB83E807004C2217A96846FBF74A
:10485000E8FC13ADF0EE480A95E80F00B0EE680AE8
:10486000FFF716FAD6E90201B0EE480A00F00CFE96
:1048700054F8300C54F82C1C3D22CDE91301494664
:1048800015A8FBF7CEFC607D8DF89100A07D8DF81A
:104890009200E07D8DF89300207E8DF89400607E7C
:1048A0008DF89500A07E8DF89600E07E8DF897003B
:1048B000207F8DF89800607F8DF89900A07F8DF89B
:1048C0009A00206A616AA26A27AB83E807004C223B
:1048D00017A96846FBF7A5FC95E80F00F0EE480A1B
:1048E000B0EE680AFFF7D4F92BB0BDEC028BBDE83F
:1048F000F08300007C03002000000000000048421C
:1049000020030020500000202DE9F041C54D2DED81
:10491000028BAAB055F8300B55F82C1C3D22CDE97E
:104920001301C04915A808310F46FBF77AFC687DD2
:104930008DF89100A87D8DF89200E87D8DF89300A8
:10494000287E8DF89400687E8DF89500A87E8DF8FD
:104950009600E87E8DF89700287F8DF89800687F94
:104960008DF89900A87F8DF89A00286A696AAA6A6A
:1049700027AB83E807004C2217A96846FBF751FCD8
:104980009FEDA98AF0EE480ADFEDA88A13AC94E8FF
:104990000F00B0EE680AFFF77BF9A54C01CC54F884
:1049A0002C1B3D22CDE91301A14915A808318846E9
:1049B000FBF737FC607D8DF89100A07D8DF89200AB
:1049C000E07D8DF89300207E8DF89400607E8DF858
:1049D0009500A07E8DF89600E07E8DF89700207FF0
:1049E0008DF89800607F8DF89900A07F8DF89A006F
:1049F000206A616AA26A27AB83E807004C2217A9E4
:104A00006846FBF70EFC13AEF0EE480A96E80F007E
:104A1000B0EE680AFFF73CF9864EB0EE480AD6E9D8
:104A2000020100F031FD54F8300C54F82C1C3D22EA
:104A3000CDE91301414615A8FBF7F3FB607D8DF826
:104A40009100A07D8DF89200E07D8DF89300207E8E
:104A50008DF89400607E8DF89500A07E8DF896000C
:104A6000E07E8DF89700207F8DF89800607F8DF8AC
:104A70009900A07F8DF89A00206A616AA26A27AB2C
:104A800083E807004C2217A96846FBF7CAFB0DF123
:104A90004C0CF0EE480A9CE80F00B0EE680AFFF7F5
:104AA000F7F855F8300C55F82C1C3D22CDE91301D0
:104AB000394615A8FBF7B5FB687D8DF89100A87DF8
:104AC0008DF89200E87D8DF89300287E8DF8940093
:104AD000687E8DF89500A87E8DF89600E87E8DF8AA
:104AE0009700287F8DF89800687F8DF89900A87F3F
:104AF0008DF89A00286A696AAA6A27AB83E80700DA
:104B00004C2217A96846FBF78CFB13ADF0EE480A60
:104B100095E80F00B0EE680AFFF7BAF854F8300CC9
:104B200054F82C1C3D22CDE91301414615A8FBF792
:104B300078FB607D8DF89100A07D8DF89200E07D7E
:104B40008DF89300207E8DF89400607E8DF895009E
:104B5000A07E8DF89600E07E8DF89700207F8DF87E
:104B60009800607F8DF89900A07F8DF89A00206AE8
:104B7000616AA26A27AB83E807004C2217A968463E
:104B8000FBF74FFB95E80F00F0EE480AB0EE680A1D
:104B9000FFF77EF8D6E90201B0EE480A00F074FC97
:104BA00054F8300C54F82C1C3D22CDE91301414639
:104BB00015A8FBF736FB607D8DF89100A07D8DF880
:104BC0009200E07D8DF89300207E8DF89400607E49
:104BD0008DF89500A07E8DF89600E07E8DF8970008
:104BE000207F8DF89800607F8DF89900A07F8DF868
:104BF0009A00206A616AA26A27AB83E807004C2208
:104C000017A96846FBF70DFB13ACF0EE480A94E8D1
:104C10000F00B0EE680AFFF73BF82AB0BDEC028B3C
:104C2000BDE8F0817C030020000000000000484245
:104C300020030020500000202DE9F041C54D2DED4E
:104C4000028BAAB055F8300B55F82C1C3D22CDE94B
:104C50001301C04915A808310F46FBF7E2FA687D39
:104C60008DF89100A87D8DF89200E87D8DF8930075
:104C7000287E8DF89400687E8DF89500A87E8DF8CA
:104C80009600E87E8DF89700287F8DF89800687F61
:104C90008DF89900A87F8DF89A00286A696AAA6A37
:104CA00027AB83E807004C2217A96846FBF7B9FA3F
:104CB0009FEDA98AF0EE480ADFEDA88A13AC94E8CC
:104CC0000F00B0EE680AFEF7E3FFA54C01CC54F8E4
:104CD0002C1B3D22CDE91301A14915A808318846B6
:104CE000FBF79FFA607D8DF89100A07D8DF8920012
:104CF000E07D8DF89300207E8DF89400607E8DF825
:104D00009500A07E8DF89600E07E8DF89700207FBC
:104D10008DF89800607F8DF89900A07F8DF89A003B
:104D2000206A616AA26A27AB83E807004C2217A9B0
:104D30006846FBF776FA13AEF0EE480A96E80F00E5
:104D4000B0EE680AFEF7A4FF864EB0EE480AD6E938
:104D5000020100F099FB54F8300C54F82C1C3D2251
:104D6000CDE91301414615A8FBF75BFA607D8DF88C
:104D70009100A07D8DF89200E07D8DF89300207E5B
:104D80008DF89400607E8DF89500A07E8DF89600D9
:104D9000E07E8DF89700207F8DF89800607F8DF879
:104DA0009900A07F8DF89A00206A616AA26A27ABF9
:104DB00083E807004C2217A96846FBF732FA0DF189
:104DC0004C0CF0EE480A9CE80F00B0EE680AFEF7C3
:104DD0005FFF55F8300C55F82C1C3D22CDE913012E
:104DE000394615A8FBF71DFA687D8DF89100A87D5E
:104DF0008DF89200E87D8DF89300287E8DF8940060
:104E0000687E8DF89500A87E8DF89600E87E8DF876
:104E10009700287F8DF89800687F8DF89900A87F0B
:104E20008DF89A00286A696AAA6A27AB83E80700A6
:104E30004C2217A96846FBF7F4F913ADF0EE480AC7
:104E400095E80F00B0EE680AFEF722FF54F8300C28
:104E500054F82C1C3D22CDE91301414615A8FBF75F
:104E6000E0F9607D8DF89100A07D8DF89200E07DE5
:104E70008DF89300207E8DF89400607E8DF895006B
:104E8000A07E8DF89600E07E8DF89700207F8DF84B
:104E90009800607F8DF89900A07F8DF89A00206AB5
:104EA000616AA26A27AB83E807004C2217A968460B
:104EB000FBF7B7F995E80F00F0EE480AB0EE680A84
:104EC000FEF7E6FED6E90201B0EE480A00F0DCFA91
:104ED00054F8300C54F82C1C3D22CDE91301414606
:104EE00015A8FBF79EF9607D8DF89100A07D8DF8E7
:104EF0009200E07D8DF89300207E8DF89400607E16
:104F00008DF89500A07E8DF89600E07E8DF89700D4
:104F1000207F8DF89800607F8DF89900A07F8DF834
:104F20009A00206A616AA26A27AB83E807004C22D4
:104F300017A96846FBF775F913ACF0EE480A94E838
:104F40000F00B0EE680AFEF7A3FE2AB0BDEC028B9C
:104F5000BDE8F0817C030020000000000000484212
:104F600020030020500000202DE9F041C54D2DED1B
:104F7000028BAAB055F8300B55F82C1C3D22CDE918
:104F80001301C04915A808310F46FBF74AF9687D9F
:104F90008DF89100A87D8DF89200E87D8DF8930042
:104FA000287E8DF89400687E8DF89500A87E8DF897
:104FB0009600E87E8DF89700287F8DF89800687F2E
:104FC0008DF89900A87F8DF89A00286A696AAA6A04
:104FD00027AB83E807004C2217A96846FBF721F9A5
:104FE0009FEDA98AF0EE480ADFEDA88A13AC94E899
:104FF0000F00B0EE680AFEF74BFEA54C01CC54F84A
:105000002C1B3D22CDE91301A14915A80831884682
:10501000FBF707F9607D8DF89100A07D8DF8920077
:10502000E07D8DF89300207E8DF89400607E8DF8F1
:105030009500A07E8DF89600E07E8DF89700207F89
:105040008DF89800607F8DF89900A07F8DF89A0008
:10505000206A616AA26A27AB83E807004C2217A97D
:105060006846FBF7DEF813AEF0EE480A96E80F004C
:10507000B0EE680AFEF70CFE864EB0EE480AD6E99E
:10508000020100F001FA54F8300C54F82C1C3D22B7
:10509000CDE91301414615A8FBF7C3F8607D8DF8F3
:1050A0009100A07D8DF89200E07D8DF89300207E28
:1050B0008DF89400607E8DF89500A07E8DF89600A6
:1050C000E07E8DF89700207F8DF89800607F8DF846
:1050D0009900A07F8DF89A00206A616AA26A27ABC6
:1050E00083E807004C2217A96846FBF79AF80DF1F0
:1050F0004C0CF0EE480A9CE80F00B0EE680AFEF790
:10510000C7FD55F8300C55F82C1C3D22CDE9130194
:10511000394615A8FBF785F8687D8DF89100A87DC4
:105120008DF89200E87D8DF89300287E8DF894002C
:10513000687E8DF89500A87E8DF89600E87E8DF843
:105140009700287F8DF89800687F8DF89900A87FD8
:105150008DF89A00286A696AAA6A27AB83E8070073
:105160004C2217A96846FBF75CF813ADF0EE480A2D
:1051700095E80F00B0EE680AFEF78AFD54F8300C8F
:1051800054F82C1C3D22CDE91301414615A8FBF72C
:1051900048F8607D8DF89100A07D8DF89200E07D4B
:1051A0008DF89300207E8DF89400607E8DF8950038
:1051B000A07E8DF89600E07E8DF89700207F8DF818
:1051C0009800607F8DF89900A07F8DF89A00206A82
:1051D000616AA26A27AB83E807004C2217A96846D8
:1051E000FBF71FF895E80F00F0EE480AB0EE680AEA
:1051F000FEF74EFDD6E90201B0EE480A00F044F990
:1052000054F8300C54F82C1C3D22CDE913014146D2
:1052100015A8FBF706F8607D8DF89100A07D8DF84C
:105220009200E07D8DF89300207E8DF89400607EE2
:105230008DF89500A07E8DF89600E07E8DF89700A1
:10524000207F8DF89800607F8DF89900A07F8DF801
:105250009A00206A616AA26A27AB83E807004C22A1
:1052600017A96846FAF7DDFF13ACF0EE480A94E898
:105270000F00B0EE680AFEF70BFD2AB0BDEC028B02
:10528000BDE8F0817C0300200000000000004842DF
:1052900020030020500000202DE9F041674C00233E
:1052A0002DED048B0225A068032801DBA360657047
:1052B000277804269FED629A60498A69486AC9681E
:1052C000DFED600A9FED600A0A2F15D2DFE807F0D4
:1052D0001405181D262D575D888E1043084300289D
:1052E000FDD1DFED5A0AFEF71BFFFF23052258A16F
:1052F0005948FDF719FA2570BDEC048BBDE8F08123
:1053000060780128F8D103200CE0104308430028FE
:10531000FDD1DFED520AFEF703FF87E06078022837
:10532000EAD1052020706370E6E7104308430028A7
:10533000FDD1DFED4B0AB0EE408AFEF749FEA269CF
:10534000606AE168104308430028FDD19FED450ADB
:1053500000F0D8FAA269606AE168104308430028A7
:10536000FDD1DFED410AB0EE480AFFF757F8FF2301
:1053700005223EA13848FDF7D7F906202EE06578D2
:10538000032D02D1072525706370104308430028C0
:10539000FDD1B0EE608AF0EE408AFEF719FEA269F8
:1053A000606AE168104308430028FDD1F0EE480A26
:1053B000B0EE680AFEF75CFFA269606AE16810431C
:1053C00008430028FDD1B0EE490A00F099FBFF2305
:1053D000052228A12048FDF7A7F9082020708BE7B7
:1053E0006578022D02D109252570637010430843AA
:1053F0000028FDD1B0EE408AFEF7EAFDA269606A9E
:10540000E168104308430028FDD1B0EE480ADFED03
:105410001B0AFEF72DFFA269606AE168104308438A
:105420000028FDD1B0EE490A00F06AFBFF230522F7
:1054300013A10948FDF778F926705DE70000002008
:105440000000B44200007F440000C84200802244B3
:105450005343414E460000008805002000004844A8
:105460000000C8430000344300C005454C434A4790
:10547000310000004C5A4351310000000080D443F9
:105480004C574C5131000000DFED100A13489FEDDE
:10549000111A20EE200ADFED0E0A0F4A006869B1EA
:1054A00001290AD1C0EE201A31EE810A82ED010AEB
:1054B000BDEEC00A10EE101A41637047C0EE201A0C
:1054C00031EE810A82ED000AF2E700000000FA44A2
:1054D000000034430000FA43500000202004002064
:1054E000704700002DE9F043ABB00021FB48FCF70A
:1054F000BBFC0421F948FCF7B7FC0821F748FCF78E
:10550000B3FC0C21F548FCF7AFFC0021F448FCF794
:10551000ABFCF248FCF7B2F9F248FCF7AFF9F048FF
:10552000FCF7ACF9F04D55F8300B55F82C1C3D222A
:10553000CDE91301EC4915A808310C46FAF771FEC4
:10554000687D8DF89100A87D8DF89200E87D8DF83A
:105550009300287E8DF89400687E8DF89500A87ED3
:105560008DF89600E87E8DF89700287F8DF89800DA
:10557000687F8DF89900A87F8DF89A00286A696A7B
:10558000AA6A27AB83E807004C2217A96846FAF7F6
:1055900048FE13AE96E80F00FEF718FD002645F80A
:1055A000306C3D22CD492046FAF73BFECB4C14F837
:1055B0003D0F68756078A875A078E875E078287662
:1055C000207968766079A876A079E876E0792877FE
:1055D000207A6877607AA877082045F82C0CC34DAC
:1055E00055F8300B55F82C1C3D22CDE91301BF496D
:1055F00015A808310F46FAF714FE687D8DF8910062
:10560000A87D8DF89200E87D8DF89300287E8DF8B6
:105610009400687E8DF89500A87E8DF89600E87E4F
:105620008DF89700287F8DF89800687F8DF8990095
:10563000A87F8DF89A00286A696AAA6A27AB83E86E
:1056400007004C2217A96846FAF7EBFD0DF14C084C
:1056500098E80F00FEF7BAFC4FF0010845F8308CCF
:105660003D229E493846FAF7DCFD2078687560785F
:10567000A875A078E875E078287620796876607952
:10568000A876A079E876E0792877207A6877607A3A
:10569000A8770C2045F82C0C954D55F8300B55F893
:1056A0002C1C3D22CDE91301914915A808310F4664
:1056B000FAF7B7FD687D8DF89100A87D8DF892000E
:1056C000E87D8DF89300287E8DF89400687E8DF833
:1056D0009500A87E8DF89600E87E8DF89700287FCB
:1056E0008DF89800687F8DF89900A87F8DF89A0052
:1056F000286A696AAA6A27AB83E807004C2217A9BF
:105700006846FAF78EFD0DF14C0999E80F00FEF797
:105710005DFC022045F8300C3D2271493846FAF70D
:1057200080FD6F4810F83D1F69754178A975817833
:10573000E975C1782976017969764179A976817907
:10574000E976C1792977017A6977407AA87745F8AF
:105750002C6C684D55F8300B55F82C1C3D22CDE9CA
:105760001301644915A808310F46FAF75AFD687D00
:105770008DF89100A87D8DF89200E87D8DF893005A
:10578000287E8DF89400687E8DF89500A87E8DF8AF
:105790009600E87E8DF89700287F8DF89800687F46
:1057A0008DF89900A87F8DF89A00286A696AAA6A1C
:1057B00027AB83E807004C2217A96846FAF731FDAA
:1057C0000DF14C0999E80F00FEF700FC032045F8A5
:1057D000300C3D2241493846FAF723FD20786875A0
:1057E0006078A875A078E875E078287620796876E2
:1057F0006079A876A079E876E0792877207A6877CA
:10580000607AA87745F82C6C3B4D55F8300B55F86D
:105810002C1C3D22CDE91301374915A808318946D2
:10582000FAF7FFFC687D8DF89100A87D8DF8920055
:10583000E87D8DF89300287E8DF89400687E8DF8C1
:105840009500A87E8DF89600E87E8DF89700287F59
:105850008DF89800687F8DF89900A87F8DF89A00E0
:10586000286A696AAA6A27AB83E807004C2217A94D
:105870006846FAF7D6FC13AF97E80F00FEF7A6FBD1
:10588000042745F8307C3D2214494846FAF7C9FC04
:10589000207868756078A875A078E875E078287633
:1058A000207968766079A876A079E876E07928771B
:1058B000207A6877607AA877104C45F82C7CD4E978
:1058C0000001FFF70DFE66600D4CD4E90001FFF703
:1058D00007FEC4F804802BB0BDE8F083D803002095
:1058E00068040020200400200C0200206802002030
:1058F000C40200207C030020200300204800002078
:105900005800002010B52DED068BB0EE408AAAB0ED
:1059100018EE100AFAF78EFE9FED759B53EC192BCB
:10592000FAF74AFDFAF7B2FE734C08EE900A54F803
:10593000300B54F82C1C3D22CDE913016E4915A8FB
:105940000831FAF76EFC607D8DF89100A07D8DF82E
:105950009200E07D8DF89300207E8DF89400607EAB
:105960008DF89500A07E8DF89600E07E8DF897006A
:10597000207F8DF89800607F8DF89900A07F8DF8CA
:105980009A00206A616AA26A27AB83E807004C226A
:1059900017A96846FAF745FC0DF14C0C9FED57AA84
:1059A0009CE80F00F0EE680AB0EE4A0AFEF770F9C4
:1059B00018EE100AFAF73EFE53EC192BFAF7FCFC2E
:1059C000FAF764FE08EE900AE06A216B3D22CDE909
:1059D0001301494915A86431FAF723FC46485C30A5
:1059E00010F8451F8DF8911041788DF8921081784C
:1059F0008DF89310C1788DF8941001798DF8951079
:105A000041798DF8961081798DF89710C1798DF8CC
:105A10009810017A8DF89910407A8DF89A00364CDA
:105A20008034E06A216B626B27AB83E807004C226D
:105A300017A96846FAF7F5FB0DF14C0CF0EE680A71
:105A40009CE80F00B0EE4A0AFEF722F918EE100AA1
:105A5000FAF7F0FD53EC192BFAF7AEFCFAF716FE45
:105A600008EE100AA06BE16B3D22CDE9130104F1B1
:105A7000400115A8FAF7D5FB04F1380010F8451FCE
:105A80008DF8911041788DF8921081788DF89310EF
:105A9000C1788DF8941001798DF8951041798DF8C1
:105AA000961081798DF89710C1798DF89810017A48
:105AB0008DF89910407A8DF89A0004F18002906870
:105AC000D168126927AB83E807004C2217A9684602
:105AD000FAF7A7FB13ACF0EE480A94E80F00B0EE1B
