:020000040800F2
:10000000180800209D0100083B1F0008AD1A0008D9
:10001000391F0008A902000821250008000000007F
:100020000000000000000000000000003F1F00086A
:1000300059030008000000003D1F0008411F000890
:10004000B7010008B7010008B7010008B7010008B0
:10005000B7010008B7010008B7010008B7010008A0
:10006000B7010008B7010008B7010008B701000890
:10007000AD020008B7010008B7010008B701000889
:10008000B9020008B7010008B7010008B70100086D
:10009000B7010008B7010008B7010008B701000860
:1000A000B7010008B7010008B7010008B701000850
:1000B000B7010008B7010008B7010008B701000840
:1000C000B7010008B7010008B7010008B701000830
:1000D000B7010008F1240008FD24000809250008E4
:1000E000B7010008B7010008B7010008F11F0008B8
:1000F000B7010008B7010008B7010008B701000800
:10010000B7010008B7010008E51F0008B7010008A3
:10011000B7010008B7010008B7010008B7010008DF
:10012000B7010008C5020008D1020008B7010008A5
:10013000B7010008B7010008B7010008B7010008BF
:10014000B7010008B7010008B7010008B7010008AF
:10015000B7010008B7010008B7010008152500081D
:10016000B7010008B7010008B7010008B70100088F
:10017000B7010008B7010008B7010008000000003F
:10018000B7010008B7010008DFF80CD000F07AF8DA
:1001900000480047612500081808002006488047ED
:1001A00006480047FEE7FEE7FEE7FEE7FEE7FEE75C
:1001B000FEE7FEE7FEE7FEE7D51F0008890100081D
:1001C0002DE9F05F0546002092469B46884606468C
:1001D000814640241BE0284641464746224600F01F
:1001E00041F853465A46C01A914110D31146184659
:1001F000224600F028F82D1A67EB01084F462246E8
:100200000120002100F01FF817EB00094E41201ECD
:10021000A4F10104DFDC484631462A464346BDE8E6
:10022000F09FD2B201E000F8012B491EFBD27047CB
:100230000022F6E710B513460A4604461946FFF7B2
:10024000F0FF204610BD202A04DB203A00FA02F11C
:10025000002070479140C2F1200320FA03F31943B4
:1002600090407047202A04DB203A21FA02F0002156
:10027000704721FA02F3D040C2F1200291400843B6
:1002800019467047064C074D06E0E06840F0010350
:1002900094E8070098471034AC42F6D3FFF778FF94
:1002A000BC250008DC250008FEE70000014800F03E
:1002B000B1B8000058030020014800F0ABB80000BE
:1002C000F8020020014800F0A5B80000B8030020A3
:1002D000014800F09FB80000980200200168182330
:1002E000CAB2103AB2FBF3F2054B6FF30901032ACD
:1002F0009B5CC36500D9091D8165084670470000F5
:100300009C25000810B5014600208B698A6A4FF0D1
:10031000C07453B1B3F5005F15D072B1012A0CD08F
:10032000022A0AD0032A09D104E01AB1012A06D010
:10033000022A03D1C96AC90100D5012010BDC96ACA
:10034000A142FAD010BD002AF7D0012AF2D0022A29
:10035000F3D0032AF3D010BD704772B6FEE72DE943
:10036000F0410446876D00F08DFA064694F835009A
:100370000025022806D08020606584F834500120D2
:10038000BDE8F0812068016821F016010160206855
:10039000416921F080014161206C08B9A06C20B155
:1003A0002068016821F0080101602068016821F0DF
:1003B000010101600CE000F065FA801B052807D9F7
:1003C00020206065032084F8350084F83450D7E796
:1003D00020680068C007EED194F85C103F20884088
:1003E000B860012084F8350084F834500020C7E755
:1003F00090F83510022903D0802141650120704713
:10040000052180F835100068016821F001010160C4
:10041000002070472DE9F84304464FF00009CDF85D
:10042000009063484FF41651A56D0068B0FBF1F7DA
:100430002E6894F85C10082000FA01F131420FD0C8
:1004400021680A6852070BD50A6822F004020A6084
:1004500094F85C108840A860606D40F00100606511
:1004600094F85C104FF0010808FA01F0304208D00F
:1004700021684969090604D5A860606D40F0020052
:10048000606594F85C1004208840304208D02168F0
:100490000968890704D5A860606D40F004006065B4
:1004A00094F85C1010208840304218D02168096808
:1004B000090714D5A86020680168490304D50068BD
:1004C000000308D5A16C07E00168C90503D40168E1
:1004D00021F008010160216C09B12046884794F899
:1004E0005C1020208840304231D021680968C9065C
:1004F0002DD5A86094F8350005282068016806D03D
:10050000490347D5006800031DD4616C1CE021F04D
:10051000160101602068416921F080014161206C71
:1005200008B9A06C20B12068016821F008010160C1
:1005300094F85C103F208840A86084F8358084F8E7
:100540003490216D1FE0E16B09B120468847606D52
:1005500000282BD0606DC00714D0052084F835002A
:100560002068016821F0010101600098401C0090A2
:10057000B84203D820680068C007F6D184F83580F7
:1005800084F83490E16C002910D001B02046BDE819
:10059000F04308470168C905D5D4016821F010016E
:1005A000016084F8358084F83490CCE7BDE8F883A6
:1005B0000C0000202DE9F041044600F063F90646E6
:1005C0005CB1022084F83500002584F8345020689E
:1005D000016821F0010101600DE00120BDE8F0811A
:1005E00000F050F9801B052805D920206065032004
:1005F00084F83500F2E720680068C007F0D122686F
:10060000116820480140D4E901031843D4E90336B6
:100610003343184363691843A3691843E3691843D4
:10062000236A18430843616A042903D1D4E90B13F0
:1006300019430843106020684069666A20F007018A
:1006400030460E43012704280CD1A06A0643E06A15
:1006500040B12046FFF756FE20B14020606584F887
:100660003570BAE7206846612046FFF737FE94F8F8
:100670005C203F2191408160656584F835700020E1
:10068000ACE700003F8010F02DE9F84FDFF8BCA187
:100690000022012503264FF00F090AF1040BAAF1ED
:1006A000040E00BF0B6805FA02F42340A34270D188
:1006B0000F7907F00307012F01D0022F16D18768A9
:1006C0004FEA420806FA08FC27EA0C07D1F80CC0EA
:1006D0000CFA08FC4CEA070CC0F808C04768A743AE
:1006E0000C79C4F3001494403C4344600C79E44317
:1006F000A4070AD0C4684FEA420C06FA0CF7BC43C0
:100700008F6807FA0CF72743C7600C7904F00304DD
:10071000022C12D1D40800EB840CDCF820405707DF
:10072000FF0E09FA07F824EA0804D1F8108008FA45
:1007300007F848EA0408CCF8208004684FEA420C25
:1007400006FA0CF7BC430F7907F0030707FA0CF71A
:10075000274307604C6814F4403F70D03C4C276836
:1007600047F480472760246822F0030704F480449C
:100770000094384C07EB040CDCF8084897074FEA64
:10078000177809FA08F7BC43334FB84202D1002763
:1007900024E054E0314FB84201D101271EE0304F30
:1007A000B84201D1022719E02E4FB84201D10327E8
:1007B00014E02D4FB84201D104270FE02B4FB8426F
:1007C00001D105270AE02A4FB84201D1062705E0EA
:1007D000284FB84201D1072700E0082707FA08F799
:1007E0002743CCF80878DAF800405746D1F804C01F
:1007F0009C435FEACC2C00D51C433C60DBF80040F6
:100800005F46D1F804C09C435FEA8C2C00D51C43A2
:100810003C60DEF800407746D1F804C09C435FEAB4
:100820008C3C00D51C433C60084F083F3C68D1F825
:1008300004C09C435FEACC3C00D51C433C60521C86
:10084000102AFFF42FAFBDE8F88F0000083C0140EC
:1008500044380240003001400000024000040240E1
:1008600000080240000C0240001002400014024048
:1008700000180240001C02400AB18161704709045F
:10088000FBE700000148806870470000000000207E
:10089000024881680278114481607047000000209E
:1008A0000B4810B5016841F400710160016841F422
:1008B00080610160016841F480710160032000F0F3
:1008C0006FF80F2000F006F800F024F8002010BDAB
:1008D000003C024070B50D4D04464FF47A71287803
:1008E000B1FBF0F00A490968B1FBF0F000F00CFB35
:1008F00048B9102C07D200222146501E00F030F8D3
:1009000000206C6070BD012070BD00000000002060
:100910000C0000200A4808B5016841F480410160DC
:10092000006800F4804000900548001F016841F015
:1009300080510160006800F08050009008BD000008
:1009400044380240002809DB00F01F0201219140D9
:100950004009800000F1E020C0F80011704700005D
:10096000F0B40E4B1B680C46C3F30223C3F107051A
:10097000042D00D90425191D072901D2002300E008
:10098000DB1E012606FA05F1491E214099409E40D2
:10099000761E16403143F0BC01F0C3BD0CED00E003
:1009A000064900F0070208684FF6FF03184040EAC6
:1009B0000220034A10430860704700000CED00E07D
:1009C0000000FA052DE9F0470E46050065D0DFF876
:1009D0001481D8F80000F7B200F00700B04207D247
:1009E00088F80070D8F8000000F00700B04254D139
:1009F00028683D4C810712D5400703D5206840F494
:100A0000E05020602878000703D5206840F460405B
:100A100020602068A96820F0F00008432060287852
:100A2000C0072DD0304968680839012812D0022843
:100A300013D0032811D00968890700292DDA21680D
:100A400021F0030101432160FFF71CFF814641F2C1
:100A5000883A0EE009688903EFE709688901ECE745
:100A6000FFF710FFA0EB0901514502D90320BDE8B3
:100A7000F0872068696800F00C00B0EB810FEFD1BF
:100A8000D8F80010404601F00701B14207D90770BD
:100A9000006800F00700B04201D00120E7E72878A5
:100AA000400705D52068E96820F4E050084320603D
:100AB0002878000706D52068296920F4604040EABC
:100AC000C100206000F038F82168084AC1F3031122
:100AD000515CC8400649086006480068FFF7FAFE06
:100AE0000020C4E7003C024008380240A42500086A
:100AF0000C00002004000020044805490068096833
:100B0000044AC1F38221515CC84070470C000020A8
:100B100008380240B42500080448054900680968FF
:100B2000044AC1F34231515CC84070470C000020B8
:100B300008380240B4250008154810B5006810F0C8
:100B40000C02144813D01449042A0FD0082A0ED1DD
:100B50000F4C241F2268236802F03F025B0207D576
:100B60002068C0F38810A0FB010106E0084610BD14
:100B70002168C1F38811A1FB00010023FFF720FBCE
:100B80002168C1F30141491C4900B0FBF1F010BDDF
:100B9000083802400024F40040787D012DE9F84F28
:100BA00004006ED02078DFF84C93C007A9F104054B
:100BB0004AD009F104000168C1F38101012908D07C
:100BC0000068C0F3810002280AD1D9F80000400271
:100BD00006D52868800337D560680028E1D033E067
:100BE0006068B0F5803F10D0B0F5A02F286810D015
:100BF00020F480302860286820F480202860606815
:100C0000A8B1FFF73FFE06460DE0286840F48030AB
:100C1000F4E740F480202860F7E700BFFFF732FEDA
:100C2000801B642873D828688003F7D50CE0FFF791
:100C300029FE064605E000BFFFF724FE801B64285E
:100C4000F0D828688003F7D42078DFF8AC828007DA
:100C50004FF0000A3ED5A748001D016811F00C0FA7
:100C600008D00068C0F3810002280BD1D9F8000039
:100C7000400207D42868800716D5E068012800D113
:100C800012E033E1E068B8B10120C8F80000FFF7D6
:100C9000F9FD064605E000BFFFF7F4FD801B0228C2
:100CA000C0D828688007F7D52868216920F0F800A7
:100CB00040EAC10028600DE0C8F800A0FFF7E2FD9F
:100CC000064604E0FFF7DEFD801B02281FD82868D7
:100CD0008007F7D42078000722D5864F87486169BE
:100CE000703771B101210160FFF7CCFD064604E0C9
:100CF000FFF7C8FD801B022809D838688007F7D5A0
:100D00000EE0C0F800A0FFF7BDFD064605E082E05A
:100D1000FFF7B8FD801B02287DD838688007F7D41C
:100D20002078400768D5DFF8CCB100270BF13C0BE9
:100D3000DBF80000C0000BD4DBF8001041F080515C
:100D4000CBF80010DBF80000012700F08050009085
:100D50006B4E3068C00510D4306840F4807030604D
:100D6000FFF790FD009005E0FFF78CFD0099401A19
:100D7000022850D83068C005F6D55E4EA0686C36A3
:100D800001280FD00528306810D020F00100306015
:100D9000306820F004003060A068B8B1FFF772FD41
:100DA00000900FE0306840F00100F4E740F00400EC
:100DB0003060F7E7FFF766FD0099411A41F288308D
:100DC000814266D830688007F4D50EE0FFF75AFDFF
:100DD000009007E0FFF756FD0099411A41F2883074
:100DE000814256D830688007F4D42FB1DBF8001068
:100DF00021F08051CBF80010A069C8B33D49091D0E
:100E00000968C1F3810102294AD00228504607D05F
:100E1000C8F8600000E03CE0FFF734FD04463BE02A
:100E20004746C8F86000FFF72DFD064605E000BF05
:100E3000FFF728FD801B02282BD828688001F7D4F3
:100E4000D4E907010843A16A2E4A490802EB01418F
:100E5000626A41EA8211084394F82C1040EA016169
:100E6000C9F8001001203866FFF70CFD044606E0C3
:100E70003EE000BFFFF706FD001B022809D82868E6
:100E80008001F7D534E000BFFFF7FCFC001B02280F
:100E900002D90320BDE8F88F28688001F4D427E048
:100EA0000128F7D0D9F80000E26900F480019142EE
:100EB0001CD1226A00F03F01914217D147F6C07160
:100EC000626A0140B1EB821F10D1A26A4FF0FF337A
:100ED00000F4403103EB5202B1EB024F06D194F81B
:100EE0002C1000F07060B0EB016F01D00120D1E751
:100EF0000020CFE70438024000004742800E4742FE
:100F0000007000400000FFFF10B5401EB0F1807F70
:100F100001D3012010BD4FF0E02460610F21601764
:100F200001F0FFFA0020A06107202061002010BD21
:100F30007047704710B590F83C20012A22D001225A
:100F400080F83C20CA688C6822F4407222434C68C6
:100F500022F4806222430C6822F4006222430C696E
:100F600022F4805222434C6922F400522243C96980
:100F7000002322F480420A4301684A6480F83C302E
:100F8000002010BD022010BD70B590F83C20012A51
:100F900032D0012480F83C40022280F83D200368D2
:100FA0005A689D6822F070060A6832435A60134BF3
:100FB00002689A4214D0B2F1804F11D0104B9A427D
:100FC0000ED0104B9A420BD00F4B9A4208D00F4BC9
:100FD0009A4205D00E4B9A4202D00E4B9A4204D14F
:100FE000496825F080031943916080F83D40002155
:100FF00080F83C10084670BD022070BD0000014022
:101000000004004000080040000C004000040140C3
:10101000004001400018004010B5040003D094F8CF
:101020003D0010B107E0012010BD002084F83C0015
:10103000204600F01FF8022084F83D00211D2068A2
:1010400000F0DCFF012084F8460084F83E0084F8BC
:101050003F0084F8400084F8410084F8420084F89E
:10106000430084F8440084F8450084F83D000020E3
:1010700010BD000008B5154A0168154891420ED10F
:10108000016841F0080101600068002200F00800DA
:10109000009011463220FFF763FC322010E00D4A29
:1010A000914211D1016841F04001016000680022C5
:1010B00000F04000009011462B20FFF751FC2B2040
:1010C000BDE80840FFF73EBC08BD0000000C004032
:1010D000403802400018004070B5044690F83C00CB
:1010E0000025012817D0012684F83C60022084F8EE
:1010F0003D002068826822F0770222F47F428260FD
:101100000868502838D00DDC20284FD005DC90B37B
:10111000102811D14AE0022070BD302846D0402866
:101120000AD13BE060282FD070280DD0B0F5805F49
:1011300003D0B0F5005F12D0012584F83D60002097
:1011400084F83C00284670BDCB68D1E901212068B5
:1011500000F0C0FF2068816841F0770109E0CB68AA
:10116000D1E90121206800F0B5FF2068816841F4D1
:1011700080418160E1E719E0CA684968206801F0B0
:101180007DF85021206806E0CA684968206801F0AF
:1011900086F86021206800F0A7FFCEE7CA6849689A
:1011A000206801F06BF840212068F4E722680146CE
:1011B0001046F0E770472DE9F04104460068C66824
:1011C00005694FF00007A90713D5B10711D5F91E1E
:1011D000016101202077206880698007204602D0C5
:1011E000FFF7E8FF04E000F0E7F8204600F09EF982
:1011F0002777680716D5700714D521686FF00400AB
:101200000861022020772068806910F4407F204622
:1012100002D0FFF7CFFF04E000F0CEF8204600F048
:1012200085F92777280715D5300713D521686FF082
:1012300008000861042020772068C06980072046E4
:1012400002D0FFF7B7FF04E000F0B6F8204600F048
:101250006DF92777E80616D5F00614D521686FF0EA
:1012600010000861082020772068C06910F4407FD2
:10127000204602D0FFF79EFF04E000F09DF82046D4
:1012800000F054F92777E80708D0F00706D0216866
:101290006FF001000861204600F049F9280608D5E2
:1012A000300606D521686FF0800008612046FFF700
:1012B0003FFE680608D5700606D521686FF040002D
:1012C0000861204600F034F9A8060AD5B00608D512
:1012D00021686FF0200008612046BDE8F041FFF76B
:1012E00028BEBDE8F081000070B586B00446142128
:1012F0006846FEF79DFF2A482268002429490225F6
:10130000012682420FD1086840F01000086008688A
:10131000694600F0100005904FF4D4400090CDE9EC
:101320000154214836E02148B2F1804F12D0204BC1
:101330009A4233D10A6842F001020A60096801F05A
:101340000101059140210091CDE901546946CDE9A3
:10135000034521E00A6842F001020A600A6802F0CF
:10136000010205920A6842F002020A60096801F06F
:101370000201059103210091CDE90154CDE9034615
:101380006946FFF781F94FF440600090CDE90154C0
:1013900008486946CDE90346FFF776F906B070BD07
:1013A00000000140303802400010024000000240BE
:1013B0000004004000040240704770B5044690F8F5
:1013C0003C0000260D4601280FD0012084F83C0087
:1013D0006AB1042A1DD0082A2FD00C2A3FD001263A
:1013E000002084F83C00304670BD022070BD2068AB
:1013F00000F082FE2068816941F008018161206867
:10140000816921F004018161206881692A691143A1
:1014100011E0206800F0A0FE2068816941F40061BD
:1014200081612068816921F480618161206881691E
:101430002A6941EA02218161D2E7206800F0C2FEF8
:101440002068C16941F00801C1612068C16921F0CB
:101450000401C1612068C1692A69114311E0206853
:1014600000F0E4FE2068C16941F40061C1612068B8
:10147000C16921F48061C1612068C1692A6941EABA
:101480000221C161ACE710B5040003D094F83D001F
:1014900010B107E0012010BD002084F83C00204678
:1014A00000F01EF8022084F83D00211D206800F0A5
:1014B000A5FD012084F8460084F83E0084F83F0032
:1014C00084F8400084F8410084F8420084F8430026
:1014D00084F8440084F8450084F83D00002010BDE5
:1014E00008B501680E48814201D10E4810E00D4850
:1014F000001FB1F1804F0BD00B4A914207D1016818
:1015000041F002010160006800F00200009008BD97
:10151000016841F001010160006800F00100F5E799
:10152000000001404438024000040040704770470A
:101530007047704770470000F8B5016804460868B6
:10154000CA684B6910F00F0F4FF0000559D003F037
:10155000010602F49077374365D0C10705D0D10565
:1015600003D5616C41F001016164410705D5D907DC
:1015700003D0616C41F002016164810705D5D90790
:1015800003D0616C41F004016164010707D502F0EA
:101590002001314303D0616C41F008016164616C4A
:1015A00000293AD0800604D5900602D5204600F0E6
:1015B000B7FE20684069616CC0F38010090700D451
:1015C00060B3204600F085FE20684069400621D5C2
:1015D0002068143050E8001F21F0400140E800125C
:1015E000002AF5D1E06BA8B16E490165E06BFEF70A
:1015F000FFFE002811D0E06B016D01B0BDE8F040A6
:10160000084783060FD593060DD52046BDE8F84060
:1016100000F086BE2046FFF78DFFF8BD2046FFF79D
:1016200089FF6564F8BD266B2023012E7DD1C60697
:101630007BD5D60679D508684868009048694FF090
:101640000206400641D5E16B086840680004000CC2
:10165000E8D0A28D8242E5D9E085C869B0F5807FE7
:101660002DD020680C3050E8001F21F4807140E834
:101670000012002AF5D12068143050E8001F21F034
:10168000010140E80012002AF5D12068143050E82A
:10169000001F21F0400140E80012002AF5D184F833
:1016A0004230256320680C3050E8001F21F0100103
:1016B00040E80012002AF5D1E06BFEF750FE6663A9
:1016C000A08DE18D401A81B22AE0A08DE18D401AF3
:1016D00081B2E08D0028A5D00029A3D022680C3269
:1016E00052E8000F20F4907042E80007002FF5D177
:1016F0002068143050E8002F22F0010240E8002753
:10170000002FF5D184F84230256320680C3050E872
:10171000002F22F0100240E80023002BF5D1666371
:101720002046FFF706FFF8BDFFE705062BD5150697
:1017300029D594F841002128F5D1A068B0F5805F43
:1017400001D12069B0B1206A411C21622168007872
:101750004860E08C401E0004000CE084E3D1206867
:10176000C16821F08001C1602068C16841F040017A
:10177000C160D8E7206A0088C0F308004860206A8A
:10178000801C2062E5E74006CDD55006CBD5CA685F
:10179000204622F04002CA6084F8413000F085F90A
:1017A000C1E70000C322000870B5040004D094F81B
:1017B0004100002510B106E0012070BD84F84050C2
:1017C000204600F023F8242084F841002068C168F6
:1017D00021F40051C160204600F004FE2068016938
:1017E00021F4904101612068416921F02A014161A1
:1017F0002068C16841F40051C1606564202084F80C
:10180000410084F842006563002070BD2DE9F04F6F
:1018100087B0054614216846FEF70AFD9748DFF8B1
:10182000588214380221D5F800C00024DFF84CA2F9
:1018300003220723DFF848B28F060615C44542D1BC
:10184000DAF8008048F01008CAF80080DAF800C022
:101850000CF0100CCDF814C0D0F800C04CF0010C06
:10186000C0F800C0006800F00100059050028DE84B
:10187000130069465846CDE90323FEF705FFDFF85C
:10188000088280494046C8F80010C0E90174C0E9E8
:101890000346C8F81440C8F81840C8F81C40C8F8F7
:1018A0002040C8F82440FEF785FE08B1FEF755FD3C
:1018B000C5F83C80002211462520C8F83850FFF7B3
:1018C0004FF825204BE0DFF8C481DFF8B091C44524
:1018D000A9F1040948D1D9F8008048F40038C9F8C2
:1018E0000080D9F800C00CF4003CCDF814C0D0F84A
:1018F00000C04CF0010CC0F800C0006800F001000E
:1019000005900C208DE8130069465846CDE9032365
:10191000FEF7BAFEDFF870815D4908F160084046C5
:10192000C8F80010C0E90174C0E90346C8F81440C3
:10193000C8F81840C8F81C40C8F82040C8F824402F
:10194000FEF738FE08B1FEF708FDC5F83C8000221E
:1019500011462620C8F83850FFF702F82620FEF777
:10196000F1FF07B0BDE8F08FDFF82881C44546D10C
:10197000D9F8008048F48028C9F80080D9F800C060
:101980000CF4802CCDF814C0D0F800C04CF0080C3A
:10199000C0F800C0006800F0080005904FF44070E7
:1019A0008DE8130069463C48CDE90323FEF76CFE41
:1019B000DFF8D480364908F1C00860394046C8F8DD
:1019C0000010C0E90174C0E90346C8F81440C8F823
:1019D0001840C8F81C40C8F82040C8F82440FEF75A
:1019E000E9FD08B1FEF7B9FCC5F83C8000221146BC
:1019F0002720C8F83850FEF7B3FF2720AFE7274B62
:101A00009C45AED1DAF8007047F02007CAF80070A4
:101A1000DAF8003003F020030593036843F0040371
:101A20000360006800F004000590C0208DE81300FA
:101A30000820CDE9032069461948FEF725FE114824
:101A4000184F183838608005C7E90104C7E9034614
:101A50007C61BC61FC613C6238467C62FEF7AAFD99
:101A600008B1FEF77AFCEF63002211464720BD6300
:101A7000FEF776FF472072E700100140443802402D
:101A800000000240406402409802002000440040F0
:101A90008860024000480040000C024000140140F1
:101AA00000080240B803002070477047FEE70000BE
:101AB000194808B5016841F400110160016801F49A
:101AC00000110091016841F480010160006800226A
:101AD00000F48000009011460C20FEF741FF0C201E
:101AE000FEF730FF002211461020FEF739FF1020CC
:101AF000FEF728FF002211463920FEF731FF39207A
:101B0000FEF720FF002211463A20FEF729FFBDE82C
:101B100008403A20FEF716BF3038024070B586B054
:101B200014216846FEF784FB26480024016841F032
:101B300080010160016801F080010591016841F0B8
:101B400001010160016801F001010591016841F0A6
:101B500010010160016801F010010591016841F078
:101B600002010160016801F002010591016841F084
:101B700008010160016801F008010591016841F068
:101B8000040101600068104E00F004004FF4787505
:101B90000590002229463046FEF76EFE0820CDE96A
:101BA0000004694630460294FEF76EFD0120009560
:101BB000CDE90104694630460394FEF765FD06B0A1
:101BC00070BD000030380240000402401FB5002103
:101BD00010480091019102910D4A0391C0E9002142
:101BE0004FF6FF72C0E9021201618161FFF714FA3A
:101BF00008B1FEF7B2FB4FF48050009069460548EB
:101C0000FFF76AFA002801D0FEF7A7FB1FBD00000E
:101C1000001800403001002010B592B000240F944D
:101C20001C2168461094FEF703FB202107A8FEF74D
:101C3000FFFA2C482A49C0E900144FF6FF71C0E9A9
:101C40000241046144618461FFF71DFC08B1FEF7A5
:101C500084FB0F940FA923481094FFF795F908B15E
:101C6000FEF77BFB6020CDE900040294039404940A
:101C70000594002269461B480694FFF79EFB08B1B5
:101C8000FEF76BFB042269461648FFF796FB08B186
:101C9000FEF763FB082269461248FFF78EFB08B186
:101CA000FEF75BFB0C2269460E48FFF786FB08B186
:101CB000FEF753FB0794089409944FF400500A94DC
:101CC000CDE90B4007A907480E94FFF733F908B197
:101CD000FEF743FB0348FFF707FB12B010BD0000FF
:101CE000000001401000002010B58AB000240794C5
:101CF0001C2168460894FEF79BFA21484FF080416A
:101D0000C0E90014611EC0E9024104618461FFF76B
:101D1000BAFB08B1FEF721FB079407A918480894FD
:101D2000FFF732F908B1FEF718FB6020CDE9000497
:101D300002940022694612480494FFF73EFB08B162
:101D4000FEF70BFB042269460D48FFF736FB08B18E
:101D5000FEF703FB082269460948FFF72EFB08B18E
:101D6000FEF7FBFA0C2269460548FFF726FB08B18F
:101D7000FEF7F3FA0248FFF7B7FA0AB010BD000009
:101D80005800002010B58AB0002407941C21684632
:101D90000894FEF74DFA16481449C0E900144FF6AE
:101DA000FF71C0E9024104618461FFF76CFB08B177
:101DB000FEF7D3FA079407A90D480894FFF7E4F853
:101DC00008B1FEF7CAFA6020CDE9000402940022AF
:101DD000694607480494FFF7F0FA08B1FEF7BDFA28
:101DE0000348FFF781FA0AB010BD0000000400406C
:101DF000A000002010B586B000241648009401947D
:101E000002940394049412490594C0E90014611EDD
:101E1000C0E9024104618461FFF7FEF808B1FEF7F2
:101E20009CFA4FF48050009069460A48FFF754F935
:101E300008B1FEF792FA049404A906480594FFF746
:101E4000A3F8002801D0FEF788FA06B010BD000004
:101E5000000C0040E80000200C4810B50A49016061
:101E60004FF4E1314160002181600C22C160C0E982
:101E700004128161C161FFF797FC002803D0BDE81F
:101E80001040FEF76ABA10BD001001407801002032
:101E90000C4810B50A4901604FF4E131416000215E
:101EA00081600C22C160C0E904128161C161FFF749
:101EB0007BFC002803D0BDE81040FEF74EBA10BDF1
:101EC00000440040C00100200C4810B50A490160E0
:101ED0004FF4E1314160002181600C22C160C0E912
:101EE00004128161C161FFF75FFC002803D0BDE8E7
:101EF0001040FEF732BA10BD004800400802002032
:101F00000C4810B50A4901604FF4E13141600021ED
:101F100081600C22C160C0E904128161C161FFF7D8
:101F200043FC002803D0BDE81040FEF716BA10BDF0
:101F30000014014050020020FEE7FEE770477047A2
:101F4000FEF7A6BC30B593B030216846FEF770F9B5
:101F500014210CA8FEF76CF91C480024016841F01C
:101F600080510160006800F08050119018480168AD
:101F700041F4804101600068022500F48040119026
:101F80000120039010200490009506950820CDE9CB
:101F900007404820CDE9090504200B906846FEF76C
:101FA000FDFD08B172B6FEE70F20CDE90C054FF438
:101FB0008050CDE90E4002210CA81094FEF702FDDE
:101FC000002801D072B6FEE713B030BD40380240A1
:101FD000007000400248016841F4700101607047E0
:101FE00088ED00E00148FFF7E6B80000E8000020B7
:101FF0000148FFF7E0B8000030010020F0B50268AA
:10200000294C2A4D2A4E2B4F2B4B4FF0804CA0428F
:1020100009D0604507D0A84205D0B04203D0B842ED
:1020200001D0984204D122F0700E4A6842EA0E02B2
:10203000A0421BD0604519D0A84217D0B04215D09D
:10204000B84213D0984211D01C4DA8420ED01C4D5E
:10205000A8420BD01B4DA84208D01B4DA84205D06A
:102060001A4DA84202D01A4DA84203D122F440755D
:10207000CA682A434D6922F080022A4302608A68B6
:10208000C2620A688262A04201D0984201D1096905
:102090000163012141610169C90703D0016921F090
:1020A00001010161F0BD000000000140000400409A
:1020B00000080040000C00400004014000400140C6
:1020C000004401400048014000180040001C00404E
:1020D0000020004010B5846842EA032224F47F44C3
:1020E0000A432243826010BD826822F070020A43D4
:1020F00042F0070181607047F0B5036A026A22F07E
:102100000102026242688469124E24F073050C6871
:102110002C4323F002058B682B430D4DA84201D0C0
:10212000B04205D123F00807CB683B4323F00403FA
:10213000A84201D0B04205D14D6922F44072154346
:102140008A692A4342608461496841630362F0BD41
:102150000000014000040140F0B5026A036A23F068
:1021600010030362436884690D6824F4E64444EA7A
:1021700005248D6822F0200242EA05120F4D104E10
:10218000A84201D0B04206D1CF6822F0800242EAD4
:10219000071222F04002A84201D0B04207D14D6997
:1021A00023F4406343EA85038D6943EA8503436072
:1021B0008461496881630262F0BD00000000014053
:1021C00000040140F0B5026A036A23F480730362DD
:1021D0004368C46922F4007224F073050C68124E3F
:1021E0002C438D6842EA05220E4DA84201D0B04230
:1021F00006D1CF6822F4006242EA072222F480620C
:10220000A84201D0B04207D14D6923F4405343EABC
:1022100005138D6943EA05134360C4614968C163CE
:102220000262F0BD000001400004014030B5046AC4
:10223000026A22F4805202624268C3690D6823F484
:10224000E64343EA05238D6824F4005444EA053448
:10225000084DA84202D0084DA84204D14D6922F48D
:10226000804242EA85124260C361496801640462A7
:1022700030BD0000000001400004014010B5036AB9
:10228000046A24F001040462846924F0F00444EA3E
:10229000021423F00A020A438461026210BD10B5E1
:1022A000036A046A24F010040462846923F0A00322
:1022B00024F4704444EA023243EA0111826101626B
:1022C00010BD10B5806B0021C185C184FFF732F9C4
:1022D00010BD01680C3151E8002F22F4907241E8E2
:1022E0000023002BF5D10168143151E8002F22F0B2
:1022F000010241E80023002BF5D1016B012909D12E
:1023000001680C3151E8002F22F0100241E800234F
:10231000002BF5D1202180F8421000210163704785
:1023200008B590F84210222901D0022008BD826829
:102330004FF480539A4201D1016921B1816A9A42D6
:102340001BD04AB10AE00268816A5268C2F30802EF
:102350000A80816A891C08E0026972B102685268C9
:1023600002F07F020A70816A491C8162C18D491E98
:102370000904090CC18503D01BE002685268F1E72B
:102380000168CA6822F02002CA600168CA6822F4A3
:102390008072CA6001684A6922F001024A61202104
:1023A00080F8421000214163026B012A03D0FFF73D
:1023B0007BFB002008BD016301680C3151E8002F50
:1023C00022F0100241E80023002BF5D101680A68D1
:1023D000D20602D50A6849680091818DFFF7A9F8F5
:1023E000E7E7000070B5044600680169E26821F47F
:1023F0004051114301612169A068E26908436169A4
:10240000114308432168CA6849F20C639A430243A6
:10241000CA6020684169A26921F440711143416199
:1024200031492068884202D03049884202D1FEF703
:1024300073FB01E0FEF760FBE269002319216425CC
:102440003226B2F5004F626828D0A0FB0101930F3D
:102450009200FDF7B5FE0146B0FBF5F06FF01802F3
:10246000504301EB800006EB0010B0FBF5F000F0EC
:10247000F002B1FBF5F002EB0012B1FBF5F06FF0EA
:102480001803584301EB800006EB0010B0FBF5F099
:1024900000F00F0021681044886070BDA0FB0101AE
:1024A00092185B41FDF78CFE0146B0FBF5F002018E
:1024B000B1FBF5F06FF01803584301EB800006EB19
:1024C000C000B0FBF5F000F0F80002EB4002B1FBF9
:1024D000F5F0584301EB800006EBC000B0FBF5F0CF
:1024E00000F00700D6E70000001001400014014092
:1024F0000148FFF721B80000780100200148FFF7EC
:102500001BB80000C00100200148FFF715B800000B
:10251000080200200148FFF70FB800005002002019
:10252000FEE70907090E002804DB00F1E02080F82F
:102530000014704700F00F0000F1E02080F8141D37
:10254000704702E008C8121F08C1002AFAD170477C
:102550007047002001E001C1121F002AFBD1704723
:10256000FEF79EF9FFF7EEFCFFF7D8FAFFF7A0FAA7
:10257000FFF772FCFFF78CFCFFF74EFBFFF7B4FB95
:10258000FFF700FCFFF736FCFFF79EFCFFF7B8FCF7
:10259000FFF71CFB00F001F8FCE77047000610167F
:1025A00000061016000000000000000001020304F5
:1025B000060708090000000001020304DC250008EA
:1025C000000000201000000042250008EC25000853
:1025D000100000200808000052250008010000003B
:0C25E00010000000000000000024F400C7
:040000050800018965
:00000001FF
