:020000040800F2
:10000000100A00209D0100084F240008C31F0008AB
:100010004D240008D5050008B12D0008000000009F
:100020000000000000000000000000005324000851
:10003000AD06000800000000512400085524000807
:10004000B7010008B7010008B7010008B7010008B0
:10005000B7010008B7010008B7010008B7010008A0
:10006000B7010008B7010008B7010008B701000890
:10007000D9050008B7010008B7010008B70100085A
:10008000E5050008B7010008B7010008B70100083E
:10009000B7010008B7010008B7010008B701000860
:1000A000B7010008B7010008B7010008B701000850
:1000B000B7010008B7010008B7010008B701000840
:1000C000B7010008B7010008B7010008B701000830
:1000D000B7010008112C0008292C0008412C000849
:1000E000B7010008B7010008B7010008052500089E
:1000F000B7010008B7010008B7010008B701000800
:10010000B7010008B7010008F9240008B70100088A
:10011000B7010008B7010008B7010008B7010008DF
:10012000B7010008F1050008FD050008B701000847
:10013000B7010008B7010008B7010008B7010008BF
:10014000B7010008B7010008B7010008B7010008AF
:10015000B7010008B7010008B7010008592C0008D2
:10016000B7010008B7010008B7010008B70100088F
:10017000B7010008B7010008B7010008000000003F
:10018000B7010008B7010008DFF80CD000F0C2F991
:1001900000480047652F0008100A002006488047E5
:1001A00006480047FEE7FEE7FEE7FEE7FEE7FEE75C
:1001B000FEE7FEE7FEE7FEE7E92400088901000804
:1001C0002DE9F05F0546002092469B46884606468C
:1001D000814640241BE0284641464746224600F01F
:1001E000F4F853465A46C01A914110D311461846A6
:1001F000224600F0DBF82D1A67EB01084F46224635
:100200000120002100F0D2F817EB00094E41201E1A
:10021000A4F10104DFDC484631462A464346BDE8E6
:10022000F09F40EA01039B0703D009E008C9121FB1
:1002300008C0042AFAD203E011F8013B00F8013BA0
:10024000521EF9D27047D2B201E000F8012B491ECC
:10025000FBD270470022F6E710B513460A46044663
:100260001946FFF7F0FF204610BD2DE9FE4F81EA49
:10027000030404F0004421F0004100944FF0000B0F
:1002800023F0004350EA01045ED052EA03045BD03D
:10029000C3F30A54C1F30A552C44A4F2F334019475
:1002A000A0FB0254C1F3130141F48011C3F3130303
:1002B00043F4801301FB024400FB034E840A970AB7
:1002C00044EA815447EA8357A4FB076802958D0AE4
:1002D00005FB07854FEA932C04FB0C542705029D70
:1002E0004FEA065847EA1637B5EB08056EEB070CE0
:1002F000870E920E47EA811742EA8312A7FB02019A
:10030000B6EB0B0164EB00042B0D43EA0C335E18D3
:1003100044EB1C50DA465146E7FB0201C5F31304D7
:100320004FEA0B3343EA14534FEA0432019C43EA89
:100330000603A4F10C040294009CCDE900B400F083
:100340009AF803B0BDE8F08F00200146F9E700F00D
:10035000004230F000400AD0C10D01F56071C0F3D9
:10036000160042EA0151C2084007114370470020BD
:100370000146704701F0004330B421F0004150EADB
:10038000010206D00A0DA2F56072C1F31301002A22
:1003900002DC30BC00207047440F44EAC104C100B5
:1003A000E01830BC00EBC25000F01FB8202A04DB7C
:1003B000203A00FA02F1002070479140C2F1200378
:1003C00020FA03F3194390407047202A04DB203AB7
:1003D00021FA02F00021704721FA02F3D040C2F165
:1003E000200291400843194670470029A8BF704772
:1003F000401C490008BF20F00100704710B4B0FA5B
:1004000080FC00FA0CF050EA010404BF10BC7047F5
:1004100049B1CCF1200421FA04F411FA0CF118BF0F
:10042000012121430843A3EB0C01CB1D4FEA0061DE
:100430004FEA102042BF002010BC704700EBC350B1
:1004400010440029A4BF10BC7047401C490008BFDD
:1004500020F0010010BC704710B5141E73F10004A9
:1004600008DA401C41F1000192185B411A4301D1A6
:1004700020F0010010BD2DE9F04D92469B4611B1D0
:10048000B1FA81F202E0B0FA80F220329046FFF732
:100490008DFF04460F4640EA0A0041EA0B0153462D
:1004A0005A46084313D0114653EA010019D0C8F147
:1004B00040025046FFF789FF05460E465046594612
:1004C0004246FFF773FF084305D0012004E02046B1
:1004D0003946BDE8F08D0020054346EAE0762C431E
:1004E00037430A986305E40AA0EB08000022FD0ADE
:1004F00044EA47540A3002D500200146E9E70105E5
:1005000010196941DDE9084500196941BDE8F04D60
:10051000A2E70000064C074D06E0E06840F001034A
:1005200094E8070098471034AC42F6D3FFF730FE4A
:100530003C3500085C35000838B5044600681D49A4
:10054000884209D10168C943C90605D401684068D9
:100550000090194802F08CFB18492068884209D1A4
:100560000168C943C90605D4016840680090144871
:1005700002F07EFB13492068884209D10168C94313
:10058000C90605D40168406800900F4802F070FB6E
:100590000E49206888420BD10168C943C90607D4B7
:1005A000016840680090BDE83840094802F060BB2F
:1005B00038BD00000010014034030020004400401A
:1005C0007C03002000480040C403002000140140C8
:1005D0000C040020FEE70000014800F0C5B8000050
:1005E00014050020014800F0BFB80000B40400204A
:1005F000014800F0B9B8000074050020014800F07F
:10060000B3B800005404002001681823CAB2103A9D
:10061000B2FBF3F2054B6FF30901032A9B5CC36540
:1006200000D9091D81650846704700001C35000887
:1006300010B5014600208B698A6A4FF0C07453B12F
:10064000B3F5005F15D072B1012A0CD0022A0AD08E
:10065000032A09D104E01AB1012A06D0022A03D1E3
:10066000C96AC90100D5012010BDC96AA142FAD0EA
:1006700010BD002AF7D0012AF2D0022AF3D0032AB3
:10068000F3D010BD30B50468256825F480252560B9
:10069000046863608368402B036803D09960006836
:1006A000C26030BD9A600068C16030BD704772B6EC
:1006B000FEE72DE9F0410446876D00F0D7FA0646C3
:1006C00094F835000025022806D08020606584F863
:1006D00034500120BDE8F0812068016821F0160146
:1006E00001602068416921F080014161206C08B9F6
:1006F000A06C20B12068016821F008010160206829
:10070000016821F0010101600CE000F0AFFA801BEC
:10071000052807D920206065032084F8350084F877
:100720003450D7E720680068C007EED194F85C1019
:100730003F208840B860012084F8350084F83450A8
:100740000020C7E790F83510022903D080214165C9
:1007500001207047052180F835100068016821F0FC
:1007600001010160002070472DE9F84304464FF075
:100770000009CDF8009063484FF41651A56D00684C
:10078000B0FBF1F72E6894F85C10082000FA01F134
:1007900031420FD021680A6852070BD50A6822F04F
:1007A00004020A6094F85C108840A860606D40F014
:1007B0000100606594F85C104FF0010808FA01F040
:1007C000304208D021684969090604D5A860606DE7
:1007D00040F00200606594F85C10042088403042CC
:1007E00008D021680968890704D5A860606D40F0C9
:1007F0000400606594F85C1010208840304218D0E6
:1008000021680968090714D5A860206801684903B0
:1008100004D50068000308D5A16C07E00168C9058C
:1008200003D4016821F008010160216C09B1204660
:10083000884794F85C1020208840304231D02168ED
:100840000968C9062DD5A86094F8350005282068E8
:10085000016806D0490347D5006800031DD4616CC8
:100860001CE021F0160101602068416921F080013F
:100870004161206C08B9A06C20B12068016821F0AA
:100880000801016094F85C103F208840A86084F85B
:10089000358084F83490216D1FE0E16B09B120466A
:1008A0008847606D00282BD0606DC00714D00520EC
:1008B00084F835002068016821F00101016000988A
:1008C000401C0090B84203D820680068C007F6D1E9
:1008D00084F8358084F83490E16C002910D001B0A0
:1008E0002046BDE8F04308470168C905D5D4016832
:1008F00021F01001016084F8358084F83490CCE751
:10090000BDE8F883380000202DE9F041044600F0EE
:10091000ADF906465CB1022084F83500002584F864
:1009200034502068016821F0010101600DE00120D0
:10093000BDE8F08100F09AF9801B052805D9202038
:100940006065032084F83500F2E720680068C0077E
:10095000F0D12268116820480140D4E9010318430E
:10096000D4E903363343184363691843A369184332
:10097000E3691843236A18430843616A042903D1D1
:10098000D4E90B1319430843106020684069666A74
:1009900020F0070130460E43012704280CD1A06A3D
:1009A0000643E06A40B12046FFF742FE20B14020F6
:1009B000606584F83570BAE7206846612046FFF725
:1009C00023FE94F85C203F2191408160656584F8A6
:1009D00035700020ACE700003F8010F02DE9F041B9
:1009E0000446866D90F83400002501280DD00120C2
:1009F00084F8340094F835700020012F07D084F873
:100A0000340002252846BDE8F0810220FBE70227DA
:100A100084F8357060652046FFF734FE94F85C106A
:100A20003F208840B0602068016841F016010160F5
:100A3000206C20B12068016841F008010160206845
:100A4000016841F001010160DCE7000070B5044677
:100A500000F00CF90546601C02D0044800780444FC
:100A600000F004F9401BA042FAD370BD2C00002016
:100A70002DE9F84FDFF8BCA10022012503264FF035
:100A80000F090AF1040BAAF1040E00BF0B6805FA66
:100A900002F42340A34270D10F7907F00307012F1E
:100AA00001D0022F16D187684FEA420806FA08FCE7
:100AB00027EA0C07D1F80CC00CFA08FC4CEA070C2A
:100AC000C0F808C04768A7430C79C4F300149440E9
:100AD0003C4344600C79E443A4070AD0C4684FEA5D
:100AE000420C06FA0CF7BC438F6807FA0CF7274351
:100AF000C7600C7904F00304022C12D1D40800EB77
:100B0000840CDCF820405707FF0E09FA07F824EAA6
:100B10000804D1F8108008FA07F848EA0408CCF86D
:100B2000208004684FEA420C06FA0CF7BC430F79A8
:100B300007F0030707FA0CF7274307604C6814F423
:100B4000403F70D03C4C276847F4804727602468BA
:100B500022F0030704F480440094384C07EB040CA3
:100B6000DCF8084897074FEA177809FA08F7BC43FA
:100B7000334FB84202D1002724E054E0314FB8424D
:100B800001D101271EE0304FB84201D1022719E000
:100B90002E4FB84201D1032714E02D4FB84201D1A6
:100BA00004270FE02B4FB84201D105270AE02A4F56
:100BB000B84201D1062705E0284FB84201D10727E6
:100BC00000E0082707FA08F72743CCF80878DAF896
:100BD00000405746D1F804C09C435FEACC2C00D5B6
:100BE0001C433C60DBF800405F46D1F804C09C43E6
:100BF0005FEA8C2C00D51C433C60DEF80040774651
:100C0000D1F804C09C435FEA8C3C00D51C433C6097
:100C1000084F083F3C68D1F804C09C435FEACC3CD5
:100C200000D51C433C60521C102AFFF42FAFBDE8D6
:100C3000F88F0000083C0140443802400030014079
:100C4000000002400004024000080240000C024084
:100C5000001002400014024000180240001C024034
:100C60000AB1816170470904FBE700000148806810
:100C7000704700002C00002002488168027811446F
:100C8000816070472C0000200B4810B5016841F4CA
:100C900000710160016841F480610160016841F404
:100CA00080710160032000F06FF80F2000F006F85B
:100CB00000F024F8002010BD003C024070B50D4D3E
:100CC00004464FF47A712878B1FBF0F00A490968BC
:100CD000B1FBF0F000F00CFB48B9102C07D2002259
:100CE0002146501E00F030F800206C6070BD0120DD
:100CF00070BD00002C000020380000200A4808B514
:100D0000016841F480410160006800F48040009077
:100D10000548001F016841F080510160006800F043
:100D20008050009008BD000044380240002809DBD4
:100D300000F01F02012191404009800000F1E020F5
:100D4000C0F8001170470000F0B40E4B1B680C4651
:100D5000C3F30223C3F10705042D00D90425191D8F
:100D6000072901D2002300E0DB1E012606FA05F167
:100D7000491E214099409E40761E16403143F0BCEA
:100D800002F017B80CED00E0064900F00702086811
:100D90004FF6FF03184040EA0220034A1043086060
:100DA000704700000CED00E00000FA052DE9F04767
:100DB0000E46050065D0DFF81481D8F80000F7B2C0
:100DC00000F00700B04207D288F80070D8F80000A1
:100DD00000F00700B04254D128683D4C810712D57D
:100DE000400703D5206840F4E050206028780007D1
:100DF00003D5206840F4604020602068A96820F096
:100E0000F000084320602878C0072DD0304968687A
:100E10000839012812D0022813D0032811D00968FC
:100E2000890700292DDA216821F00301014321609F
:100E3000FFF71CFF814641F2883A0EE009688903FA
:100E4000EFE709688901ECE7FFF710FFA0EB090164
:100E5000514502D90320BDE8F0872068696800F099
:100E60000C00B0EB810FEFD1D8F80010404601F034
:100E70000701B14207D90770006800F00700B042CF
:100E800001D00120E7E72878400705D52068E96808
:100E900020F4E050084320602878000706D5206839
:100EA000296920F4604040EAC100206000F038F871
:100EB0002168084AC1F30311515CC8400649086023
:100EC00006480068FFF7FAFE0020C4E7003C024035
:100ED0000838024024350008380000203000002087
:100EE0000448054900680968044AC1F38221515C3D
:100EF000C8407047380000200838024034350008E8
:100F00000448054900680968044AC1F34231515C4C
:100F1000C8407047380000200838024034350008C7
:100F2000154810B5006810F00C02144813D014498D
:100F3000042A0FD0082A0ED10F4C241F22682368E0
:100F400002F03F025B0207D52068C0F38810A0FBC7
:100F5000010106E0084610BD2168C1F38811A1FB1C
:100F600000010023FFF72CF92168C1F30141491C5E
:100F70004900B0FBF1F010BD083802400024F40035
:100F800040787D012DE9F84F04006ED02078DFF81D
:100F90004C93C007A9F104054AD009F10400016887
:100FA000C1F38101012908D00068C0F38100022843
:100FB0000AD1D9F80000400206D52868800337D549
:100FC00060680028E1D033E06068B0F5803F10D061
:100FD000B0F5A02F286810D020F480302860286851
:100FE00020F4802028606068A8B1FFF73FFE064625
:100FF0000DE0286840F48030F4E740F48020286059
:10100000F7E700BFFFF732FE801B642873D828681B
:101010008003F7D50CE0FFF729FE064605E000BF88
:10102000FFF724FE801B6428F0D828688003F7D4DB
:101030002078DFF8AC8280074FF0000A3ED5A74841
:10104000001D016811F00C0F08D00068C0F381008A
:1010500002280BD1D9F80000400207D42868800785
:1010600016D5E068012800D112E033E1E068B8B19C
:101070000120C8F80000FFF7F9FD064605E000BFB3
:10108000FFF7F4FD801B0228C0D828688007F7D539
:101090002868216920F0F80040EAC10028600DE0CE
:1010A000C8F800A0FFF7E2FD064604E0FFF7DEFD0A
:1010B000801B02281FD828688007F7D420780007F3
:1010C00022D5864F87486169703771B1012101606F
:1010D000FFF7CCFD064604E0FFF7C8FD801B0228A1
:1010E00009D838688007F7D50EE0C0F800A0FFF7F0
:1010F000BDFD064605E082E0FFF7B8FD801B022833
:101100007DD838688007F7D42078400768D5DFF8A5
:10111000CCB100270BF13C0BDBF80000C0000BD476
:10112000DBF8001041F08051CBF80010DBF8000034
:10113000012700F0805000906B4E3068C00510D43D
:10114000306840F480703060FFF790FD009005E05B
:10115000FFF78CFD0099401A022850D83068C0056E
:10116000F6D55E4EA0686C3601280FD00528306891
:1011700010D020F001003060306820F004003060B2
:10118000A068B8B1FFF772FD00900FE0306840F042
:101190000100F4E740F004003060F7E7FFF766FD78
:1011A0000099411A41F28830814266D83068800740
:1011B000F4D50EE0FFF75AFD009007E0FFF756FD6B
:1011C0000099411A41F28830814256D83068800730
:1011D000F4D42FB1DBF8001021F08051CBF80010CF
:1011E000A069C8B33D49091D0968C1F381010229FD
:1011F0004AD00228504607D0C8F8600000E03CE022
:10120000FFF734FD04463BE04746C8F86000FFF7AF
:101210002DFD064605E000BFFFF728FD801B0228D4
:101220002BD828688001F7D4D4E907010843A16AC4
:101230002E4A490802EB0141626A41EA82110843E1
:1012400094F82C1040EA0161C9F8001001203866BA
:10125000FFF70CFD044606E03EE000BFFFF706FD89
:10126000001B022809D828688001F7D534E000BFA8
:10127000FFF7FCFC001B022802D90320BDE8F88F11
:1012800028688001F4D427E00128F7D0D9F80000BD
:10129000E26900F4800191421CD1226A00F03F0112
:1012A000914217D147F6C071626A0140B1EB821FCB
:1012B00010D1A26A4FF0FF3300F4403103EB520229
:1012C000B1EB024F06D194F82C1000F07060B0EB37
:1012D000016F01D00120D1E70020CFE704380240A0
:1012E00000004742800E4742007000400000FFFFB0
:1012F00010B5401EB0F1807F01D3012010BD4FF02A
:10130000E02460610F21601701F053FD0020A0610F
:1013100007202061002010BD7047704710B590F87D
:101320003C20012A22D0012280F83C20CA688C6827
:1013300022F4407222434C6822F4806222430C68FB
:1013400022F4006222430C6922F4805222434C6949
:1013500022F400522243C969002322F480420A4346
:1013600001684A6480F83C30002010BD022010BDA6
:1013700070B590F83C20012A32D0012480F83C401E
:10138000022280F83D2003685A689D6822F07006AA
:101390000A6832435A60134B02689A4214D0B2F181
:1013A000804F11D0104B9A420ED0104B9A420BD066
:1013B0000F4B9A4208D00F4B9A4205D00E4B9A42DF
:1013C00002D00E4B9A4204D1496825F0800319439C
:1013D000916080F83D40002180F83C10084670BDC7
:1013E000022070BD000001400004004000080040E1
:1013F000000C004000040140004001400018004083
:1014000010B5040003D094F83D0010B107E00120AE
:1014100010BD002084F83C00204600F01FF8022098
:1014200084F83D00211D206801F072F8012084F845
:10143000460084F83E0084F83F0084F8400084F8B9
:10144000410084F8420084F8430084F8440084F8A2
:10145000450084F83D00002010BD000008B5154A85
:101460000168154891420ED1016841F00801016000
:101470000068002200F00800009011463220FFF7BB
:1014800063FC322010E00D4A914211D1016841F015
:10149000400101600068002200F040000090114609
:1014A0002B20FFF751FC2B20BDE80840FFF73EBC86
:1014B00008BD0000000C0040403802400018004009
:1014C00070B5044690F83C000025012817D001268D
:1014D00084F83C60022084F83D002068826822F095
:1014E000770222F47F4282600868502838D00DDCF1
:1014F00020284FD005DC90B3102811D14AE00220FB
:1015000070BD302846D040280AD13BE060282FD05B
:1015100070280DD0B0F5805F03D0B0F5005F12D019
:10152000012584F83D60002084F83C00284670BD09
:10153000CB68D1E90121206801F056F82068816864
:1015400041F0770109E0CB68D1E90121206801F081
:101550004BF82068816841F480418160E1E719E03F
:10156000CA684968206801F013F95021206806E034
:10157000CA684968206801F01CF96021206801F000
:101580003DF8CEE7CA684968206801F001F94021BA
:101590002068F4E7226801461046F0E770472DE91D
:1015A000F04104460068C66805694FF00007A907C6
:1015B00013D5B10711D5F91E0161012020772068EC
:1015C00080698007204602D0FFF7E8FF04E000F0C2
:1015D000E7F8204600F09EF92777680716D57007D0
:1015E00014D521686FF0040008610220207720687C
:1015F000806910F4407F204602D0FFF7CFFF04E05F
:1016000000F0CEF8204600F085F92777280715D599
:10161000300713D521686FF0080008610420207797
:101620002068C0698007204602D0FFF7B7FF04E0BA
:1016300000F0B6F8204600F06DF92777E80616D5D9
:10164000F00614D521686FF010000861082020779B
:101650002068C06910F4407F204602D0FFF79EFF4B
:1016600004E000F09DF8204600F054F92777E807E1
:1016700008D0F00706D021686FF00100086120460D
:1016800000F049F9280608D5300606D521686FF024
:10169000800008612046FFF73FFE680608D5700607
:1016A00006D521686FF040000861204600F034F94B
:1016B000A8060AD5B00608D521686FF02000086199
:1016C0002046BDE8F041FFF728BEBDE8F0810000EC
:1016D00070B586B0044614216846FEF7BBFD2A4863
:1016E0002268002429490225012682420FD1086878
:1016F00040F0100008600868694600F0100005908E
:101700004FF4D4400090CDE90154214836E02148FF
:10171000B2F1804F12D0204B9A4233D10A6842F086
:1017200001020A60096801F0010105914021009160
:10173000CDE901546946CDE9034521E00A6842F04C
:1017400001020A600A6802F0010205920A6842F08A
:1017500002020A60096801F002010591032100916B
:10176000CDE90154CDE903466946FFF781F94FF40D
:1017700040600090CDE9015408486946CDE9034630
:10178000FFF776F906B070BD000001403038024026
:10179000001002400000024000040040000402402B
:1017A000704770B5044690F83C0000260D460128AD
:1017B0000FD0012084F83C006AB1042A1DD0082A09
:1017C0002FD00C2A3FD00126002084F83C00304660
:1017D00070BD022070BD206800F018FF206881698C
:1017E00041F0080181612068816921F00401816173
:1017F000206881692A69114311E0206800F036FFF2
:101800002068816941F4006181612068816921F467
:1018100080618161206881692A6941EA02218161D0
:10182000D2E7206800F058FF2068C16941F0080144
:10183000C1612068C16921F00401C1612068C169EA
:101840002A69114311E0206800F07AFF2068C1691D
:1018500041F40061C1612068C16921F48061C16106
:101860002068C1692A6941EA0221C161ACE710B56B
:10187000040003D094F83D0010B107E0012010BD32
:10188000002084F83C00204600F01EF8022084F876
:101890003D00211D206800F03BFE012084F8460039
:1018A00084F83E0084F83F0084F8400084F841004A
:1018B00084F8420084F8430084F8440084F845002A
:1018C00084F83D00002010BD08B501680E48814233
:1018D00001D10E4810E00D48001FB1F1804F0BD030
:1018E0000B4A914207D1016841F002010160006892
:1018F00000F00200009008BD016841F001010160A4
:10190000006800F00100F5E70000014044380240A3
:1019100000040040704770477047704710B5044698
:101920000068406994F84110C0F3C010212911D11A
:1019300080B12068143050E8001F21F0800140E899
:101940000012002AF5D1A06B08B1FEF7B2FE2046C6
:1019500000F0E7FF2068406994F84210C0F380105F
:10196000222911D180B12068143050E8001F21F0E5
:10197000400140E80012002AF5D1E06B08B1FEF703
:1019800098FE204600F0A6FF002010BD7047000022
:10199000F8B5016804460868CA684B6910F00F0F73
:1019A0004FF0000559D003F0010602F49077374359
:1019B00065D0C10705D0D10503D5616C41F00101A7
:1019C0006164410705D5D90703D0616C41F002017C
:1019D0006164810705D5D90703D0616C41F004012A
:1019E0006164010707D502F02001314303D0616C27
:1019F00041F008016164616C00293AD0800604D589
:101A0000900602D5204600F09AFF20684069616C7C
:101A1000C0F38010090700D460B3204600F05AFFDD
:101A200020684069400621D52068143050E8001F26
:101A300021F0400140E80012002AF5D1E06BA8B186
:101A40006E490165E06BFEF77DFE002811D0E06B6A
:101A5000016D01B0BDE8F040084783060FD593063D
:101A60000DD52046BDE8F84000F069BF2046FFF7DD
:101A70008DFFF8BD2046FFF789FF6564F8BD266B32
:101A80002023012E7DD1C6067BD5D60679D50868E0
:101A90004868009048694FF00206400641D5E16B66
:101AA000086840680004000CE8D0A28D8242E5D9A5
:101AB000E085C869B0F5807F2DD020680C3050E8F3
:101AC000001F21F4807140E80012002AF5D120683F
:101AD000143050E8001F21F0010140E80012002AF4
:101AE000F5D12068143050E8001F21F0400140E893
:101AF0000012002AF5D184F84230256320680C30AA
:101B000050E8001F21F0100140E80012002AF5D132
:101B1000E06BFEF7CEFD6663A08DE18D401A81B2C9
:101B20002AE0A08DE18D401A81B2E08D0028A5D079
:101B30000029A3D022680C3252E8000F20F49070E4
:101B400042E80007002FF5D12068143050E8002F3C
:101B500022F0010240E80027002FF5D184F842303E
:101B6000256320680C3050E8002F22F0100240E876
:101B70000023002BF5D166632046FFF7CEFEF8BDAB
:101B8000FFE705062BD5150629D594F84100212835
:101B9000F5D1A068B0F5805F01D12069B0B1206AAD
:101BA000411C2162216800784860E08C401E0004DE
:101BB000000CE084E3D12068C16821F08001C1609D
:101BC0002068C16841F04001C160D8E7206A008800
:101BD000C0F308004860206A801C2062E5E74006E8
:101BE000CDD55006CBD5CA68204622F04002CA6047
:101BF00084F8413000F0E4F9C1E70000D72700087D
:101C000070B5040004D094F84100002510B106E03E
:101C1000012070BD84F84050204600F023F82420B5
:101C200084F841002068C16821F40051C160204659
:101C300000F0E6FE2068016921F49041016120680E
:101C4000416921F02A0141612068C16841F40051D5
:101C5000C1606564202084F8410084F84200656317
:101C6000002070BD2DE9F04F87B00546142168466D
:101C7000FEF7F0FA9748DFF8588214380221D5F8B9
:101C800000C00024DFF84CA203220723DFF848B28B
:101C90008F060615C44542D1DAF8008048F01008D6
:101CA000CAF80080DAF800C00CF0100CCDF814C0AF
:101CB000D0F800C04CF0010CC0F800C0006800F083
:101CC0000100059050028DE8130069465846CDE9A1
:101CD0000323FEF7CDFEDFF8088280494046C8F8AE
:101CE0000010C0E90174C0E90346C8F81440C8F800
:101CF0001840C8F81C40C8F82040C8F82440FEF737
:101D000003FE08B1FEF7D3FCC5F83C800022114663
:101D10002520C8F83850FFF717F825204BE0DFF8EA
:101D2000C481DFF8B091C445A9F1040948D1D9F8BC
:101D3000008048F40038C9F80080D9F800C00CF4DD
:101D4000003CCDF814C0D0F800C04CF0010CC0F835
:101D500000C0006800F0010005900C208DE8130021
:101D600069465846CDE90323FEF782FEDFF870810D
:101D70005D4908F160084046C8F80010C0E90174E8
:101D8000C0E90346C8F81440C8F81840C8F81C4019
:101D9000C8F82040C8F82440FEF7B6FD08B1FEF7A9
:101DA00086FCC5F83C80002211462620C8F8385031
:101DB000FEF7CAFF2620FEF7B9FF07B0BDE8F08F97
:101DC000DFF82881C44546D1D9F8008048F480283E
:101DD000C9F80080D9F800C00CF4802CCDF814C0EC
:101DE000D0F800C04CF0080CC0F800C0006800F04B
:101DF000080005904FF440708DE8130069463C4898
:101E0000CDE90323FEF734FEDFF8D480364908F12C
:101E1000C00860394046C8F80010C0E90174C0E944
:101E20000346C8F81440C8F81840C8F81C40C8F861
:101E30002040C8F82440FEF767FD08B1FEF737FCE4
:101E4000C5F83C80002211462720C8F83850FEF71C
:101E50007BFF2720AFE7274B9C45AED1DAF8007017
:101E600047F02007CAF80070DAF8003003F02003CA
:101E70000593036843F004030360006800F0040066
:101E80000590C0208DE813000820CDE903206946A5
:101E90001948FEF7EDFD1148184F183838608005D5
:101EA000C7E90104C7E903467C61BC61FC613C628F
:101EB00038467C62FEF728FD08B1FEF7F8FBEF63B9
:101EC000002211464720BD63FEF73EFF472072E720
:101ED00000100140443802400000024040640240CB
:101EE0005404002000440040886002400048004044
:101EF000000C02400014014000080240740500205C
:101F000090F84230202B01D00220704721B11AB145
:101F10000023036300F0FABD01207047704770474B
:101F20002DE9F843044690F84100984616460D46C0
:101F3000202802D00220BDE8F88385B17EB10020C0
:101F40006064212084F84100FEF790FEA68481465B
:101F5000E684A0682027B0F5805F02D003E001206E
:101F6000E9E7206910B12E4600250EE000260CE0BE
:101F70008021204600F012FEA8B9C6B116F8010B68
:101F800021684860E08C401EE084E08C4B464FF0B6
:101F90000002CDF800800028EAD14FF04001204631
:101FA00000F0FCFD40B184F841700320C3E735F830
:101FB000020BC0F30800E3E784F841700020BAE7A1
:101FC0007047FEE7194808B5016841F40011016047
:101FD000016801F400110091016841F48001016081
:101FE0000068002200F48000009011460C20FEF7EB
:101FF000ABFE0C20FEF79AFE002211461020FEF7E1
:10200000A3FE1020FEF792FE002211463920FEF7B3
:102010009BFE3920FEF78AFE002211463A20FEF789
:1020200093FEBDE808403A20FEF780BE30380240FB
:1020300070B586B014216846FEF70CF926480024D6
:10204000016841F080010160016801F080010591A3
:10205000016841F001010160016801F00101059191
:10206000016841F010010160016801F01001059163
:10207000016841F002010160016801F0020105916F
:10208000016841F008010160016801F00801059153
:10209000016841F0040101600068104E00F0040086
:1020A0004FF478750590002229463046FEF7D8FD9A
:1020B0000820CDE90004694630460294FEF7D8FCBA
:1020C00001200095CDE90104694630460394FEF7EE
:1020D000CFFC06B070BD0000303802400004024062
:1020E0001FB5002110480091019102910D4A039102
:1020F000C0E900214FF6FF72C0E90212016181615F
:10210000FFF77EF908B1FEF7D2FA4FF48050009045
:1021100069460548FFF7D4F9002801D0FEF7C7FA51
:102120001FBD000000180040EC02002010B592B066
:1021300000240F941C2168461094FEF78BF8202190
:1021400007A8FEF787F82C482A49C0E900144FF683
:10215000FF71C0E90241046144618461FFF787FBBC
:1021600008B1FEF7A4FA0F940FA923481094FFF7C3
:10217000FFF808B1FEF79BFA6020CDE90004029455
:10218000039404940594002269461B480694FFF7C3
:1021900008FB08B1FEF78BFA042269461648FFF7E0
:1021A00000FB08B1FEF783FA082269461248FFF7E0
:1021B000F8FA08B1FEF77BFA0C2269460E48FFF7E1
:1021C000F0FA08B1FEF773FA0794089409944FF4F3
:1021D00000500A94CDE90B4007A907480E94FFF779
:1021E0009DF808B1FEF763FA0348FFF771FA12B0E1
:1021F00010BD000000000140CC01002010B58AB0E5
:10220000002407941C2168460894FEF723F821480F
:102210004FF08041C0E90014611EC0E90241046131
:102220008461FFF724FB08B1FEF741FA079407A980
:1022300018480894FFF79CF808B1FEF738FA6020B8
:10224000CDE9000402940022694612480494FFF785
:10225000A8FA08B1FEF72BFA042269460D48FFF7E9
:10226000A0FA08B1FEF723FA082269460948FFF7E9
:1022700098FA08B1FEF71BFA0C2269460548FFF7E9
:1022800090FA08B1FEF713FA0248FFF721FA0AB0F4
:1022900010BD00001402002010B58AB0002407947D
:1022A0001C2168460894FDF7D5FF16481449C0E97B
:1022B00000144FF6FF71C0E9024104618461FFF729
:1022C000D6FA08B1FEF7F3F9079407A90D48089468
:1022D000FFF74EF808B1FEF7EAF96020CDE90004F7
:1022E00002940022694607480494FFF75AFA08B19D
:1022F000FEF7DDF90348FFF7EBF90AB010BD000067
:10230000000400405C02002010B586B0002416488E
:102310000094019402940394049412490594C0E932
:102320000014611EC0E9024104618461FFF768F88E
:1023300008B1FEF7BCF94FF48050009069460A4896
:10234000FFF7BEF808B1FEF7B2F9049404A90648F5
:102350000594FFF70DF8002801D0FEF7A8F906B0A4
:1023600010BD0000000C0040A40200200C4810B575
:102370000A4901604FF4E1314160002181600C2283
:10238000C160C0E904128161C161FFF739FC002816
:1023900003D0BDE81040FEF78AB910BD001001401F
:1023A000340300200C4810B50A4901604FF4E131B4
:1023B0004160002181600C22C160C0E9041281618A
:1023C000C161FFF71DFC002803D0BDE81040FEF7F7
:1023D0006EB910BD004400407C0300200C4810B5CD
:1023E0000A4901604FF4E1314160002181600C2213
:1023F000C160C0E904128161C161FFF701FC0028DE
:1024000003D0BDE81040FEF752B910BD00480040AF
:10241000C40300200C4810B50A4901604FF4E131B3
:102420004160002181600C22C160C0E90412816119
:10243000C161FFF7E5FB002803D0BDE81040FEF7BF
:1024400036B910BD001401400C040020FEE7FEE781
:1024500070477047FEF710BC30B593B03021684626
:10246000FDF7F8FE14210CA8FDF7F4FE1C4800242B
:10247000016841F080510160006800F080501190C7
:102480001848016841F4804101600068022500F4A9
:102490008040119001200390102004900095069533
:1024A0000820CDE907404820CDE9090504200B901C
:1024B0006846FEF767FD08B172B6FEE70F20CDE96A
:1024C0000C054FF48050CDE90E4002210CA8109469
:1024D000FEF76CFC002801D072B6FEE713B030BDE9
:1024E00040380240007000400248016841F4700129
:1024F0000160704788ED00E00148FFF750B8000028
:10250000A40200200148FFF74AB80000EC020020B6
:10251000F0B50268294C2A4D2A4E2B4F2B4B4FF019
:10252000804CA04209D0604507D0A84205D0B042F7
:1025300003D0B84201D0984204D122F0700E4A680C
:1025400042EA0E02A0421BD0604519D0A84217D023
:10255000B04215D0B84213D0984211D01C4DA842B9
:102560000ED01C4DA8420BD01B4DA84208D01B4DCD
:10257000A84205D01A4DA84202D01A4DA84203D154
:1025800022F44075CA682A434D6922F080022A432A
:1025900002608A68C2620A688262A04201D09842E0
:1025A00001D109690163012141610169C90703D0B2
:1025B000016921F001010161F0BD0000000001404E
:1025C0000004004000080040000C004000040140EE
:1025D0000040014000440140004801400018004014
:1025E000001C00400020004010B5846842EA03222D
:1025F00024F47F440A432243826010BD826822F0A3
:1026000070020A4342F0070181607047F0B5036A27
:10261000026A22F00102026242688469124E24F0CA
:1026200073050C682C4323F002058B682B430D4D7A
:10263000A84201D0B04205D123F00807CB683B4344
:1026400023F00403A84201D0B04205D14D6922F421
:10265000407215438A692A43426084614968416334
:102660000362F0BD0000014000040140F0B5026AC1
:10267000036A23F010030362436884690D6824F43D
:10268000E64444EA05248D6822F0200242EA05125D
:102690000F4D104EA84201D0B04206D1CF6822F0B3
:1026A000800242EA071222F04002A84201D0B04262
:1026B00007D14D6923F4406343EA85038D6943EAFA
:1026C000850343608461496881630262F0BD000054
:1026D0000000014000040140F0B5026A036A23F4DF
:1026E000807303624368C46922F4007224F07305A6
:1026F0000C68124E2C438D6842EA05220E4DA8420A
:1027000001D0B04206D1CF6822F4006242EA07222B
:1027100022F48062A84201D0B04207D14D6923F46F
:10272000405343EA05138D6943EA05134360C461CE
:102730004968C1630262F0BD00000140000401402D
:1027400030B5046A026A22F4805202624268C369A8
:102750000D6823F4E64343EA05238D6824F400540E
:1027600044EA0534084DA84202D0084DA84204D1DD
:102770004D6922F4804242EA85124260C361496891
:102780000164046230BD000000000140000401400B
:1027900010B5036A046A24F001040462846924F019
:1027A000F00444EA021423F00A020A43846102623C
:1027B00010BD10B5036A046A24F010040462846931
:1027C00023F0A00324F4704444EA023243EA0111E6
:1027D0008261016210BD10B5806B0021C185C1848A
:1027E000FFF7D4F810BD70B5846B2068406994F889
:1027F0004110C0F3C0100025212904D118B1E5848F
:10280000204600F08EF82068406994F84210C0F32A
:102810008010222904D118B1E585204600F05AF82D
:10282000606C40F0100060642046FFF7AFF870BDA8
:1028300010B50146806B096809684FF00002C905B0
:102840002ED4C28501680C3151E8003F23F4807317
:1028500041E80034002CF5D10168143151E8003F03
:1028600023F0010341E80034002CF5D10168143154
:1028700051E8003F23F0400341E80034002CF5D13B
:10288000202180F84210016B012909D101680C3127
:1028900051E8003F23F0100341E80034002CF5D14B
:1028A0004263016B012902D0FFF738FB10BD818D17
:1028B000FFF733F810BD10B5806B01214163016B48
:1028C000012902D0FFF72BFB10BD818D4908FFF7CE
:1028D00024F810BD01680C3151E8002F22F49072E9
:1028E00041E80023002BF5D10168143151E8002F95
:1028F00022F0010241E80023002BF5D1016B0129F0
:1029000009D101680C3151E8002F22F0100241E892
:102910000023002BF5D1202180F842100021016313
:10292000704701680C3151E8002F22F0C00241E8E5
:102930000023002BF5D1202180F84110704708B505
:1029400090F84210222901D0022008BD82684FF47D
:1029500080539A4201D1016921B1816A9A421BD008
:102960004AB10AE00268816A5268C2F308020A802A
:10297000816A891C08E0026972B10268526802F03B
:102980007F020A70816A491C8162C18D491E090457
:10299000090CC18503D01BE002685268F1E70168A9
:1029A000CA6822F02002CA600168CA6822F48072F4
:1029B000CA6001684A6922F001024A61202180F858
:1029C000421000214163026B012A03D0FFF7A6FAEF
:1029D000002008BD016301680C3151E8002F22F08E
:1029E000100241E80023002BF5D101680A68D206E5
:1029F00002D50A6849680091818DFEF78EFFE7E7EE
:102A000070B5044600680169E26821F44051114341
:102A100001612169A068E2690843616911430843C3
:102A20002168CA6849F20C639A430243CA6020686D
:102A30004169A26921F44071114341613149206823
:102A4000884202D03049884202D1FEF759FA01E0AB
:102A5000FEF746FAE2690023192164253226B2F511
:102A6000004F626828D0A0FB0101930F9200FDF790
:102A7000A7FB0146B0FBF5F06FF01802504301EBE5
:102A8000800006EB0010B0FBF5F000F0F002B1FBA7
:102A9000F5F002EB0012B1FBF5F06FF018035843AC
:102AA00001EB800006EB0010B0FBF5F000F00F002A
:102AB00021681044886070BDA0FB010192185B4141
:102AC000FDF77EFB0146B0FBF5F00201B1FBF5F02E
:102AD0006FF01803584301EB800006EBC000B0FB19
:102AE000F5F000F0F80002EB4002B1FBF5F05843BE
:102AF00001EB800006EBC000B0FBF5F000F0070032
:102B0000D6E70000001001400014014038B5816292
:102B100004468285002013466064222284F8422005
:102B2000E56B1B4AEA63E56B1A4A2A64E56B1A4AAD
:102B3000EA64E26B10650A462168E06B091DFDF747
:102B40004DFF2068016840680090206948B1206806
:102B50000C3050E8001F41F4807140E80012002A58
:102B6000F5D12068143050E8001F41F0010140E821
:102B70000012002AF5D12068143050E8001F41F0FF
:102B8000400140E80012002AF5D1002038BD0000C5
:102B900031280008B7280008E72700082DE9F84386
:102BA000984617460D460446089E24E0701C22D025
:102BB000FEF75CF8A0EB0800B0421AD8CEB120684E
:102BC000C168490717D5802D15D0402D13D0016855
:102BD000C94309070FD401680025406800902046CA
:102BE000FFF778FE0820606484F840500120BDE8BB
:102BF000F8830320FBE72068006835EA000004D072
:102C00000020B842D2D00020F1E70120F9E700000F
:102C100010B50448FEF7BCFEBDE810400148FDF7C2
:102C20008BBC00003403002010B50448FEF7B0FE52
:102C3000BDE810400148FDF77FBC00007C03002088
:102C400010B50448FEF7A4FEBDE810400148FDF7AA
:102C500073BC0000C403002010B50448FEF798FEC2
:102C6000BDE810400148FDF767BC00000C040020DF
:102C700070B504460068444988421BD12046FEF7DF
:102C80004DFE4248006840684149C0F13200C5B27B
:102C9000322201F13200FDF7C4FA3D48323000F033
:102CA000A7F829463A48FDF7D5FA32223849204696
:102CB000FFF726F93749206888421ED12046FEF7E3
:102CC0002DFE3548006840683149C0F13200C5B278
:102CD0006431322201F13200FDF7A3FA2C4896301C
:102CE00000F030F92A4829466430FDF7B3FA284944
:102CF000322264312046FFF703F9284920688842D0
:102D00001ED12046FEF70AFE25480068406820498B
:102D1000C0F13200C5B2C831322201F13200FDF7F4
:102D200080FA1B48FA3000F015F919482946C830D6
:102D3000FDF790FA16493222C8312046FFF7E0F835
:102D40001849206888421DD12046FEF7E7FD164845
:102D5000006840681549C0F13200C5B2322201F165
:102D60003200FDF75EFA1148323000F0F3F82946E0
:102D70000E48FDF76FFA2046BDE8704032220B493D
:102D8000FFF7BEB870BD00000010014054040020E1
:102D90003C00002000440040B404002000480040F3
:102DA0001405002000140140740500206801002073
:102DB000FEE70907090E002804DB00F1E02080F897
:102DC0000014704700F00F0000F1E02080F8141D9F
:102DD000704702E008C8121F08C1002AFAD17047E4
:102DE0007047002001E001C1121F002AFBD170478B
:102DF00070B5044601462DED028BFF2304224E4898
:102E0000FFF78EF820784D4D512818D16078522860
:102E10007ED1A178A81C30390170E1783039417039
:102E2000217930398170A179C01C30390170E17984
:102E300030394170217A30398170012068702078F2
:102E4000432825D1607841286CD1A078542869D1D5
:102E5000E078432812D12079482863D1607930384E
:102E600000F03EF9A868401CA860207843280FD1E4
:102E70006078412856D1A078542853D1E0784C2866
:102E800050D12079303800F06FF9A868401CA86054
:102E90002078502822D16078552843D1A078542832
:102EA00040D1E0784C280FD12079303800F0E4F997
:102EB000A868401CA860207850280FD16078552859
:102EC00030D1A07854282DD1E07848282AD1207913
:102ED000303800F08DF9A868401CA86020784D2893
:102EE00020D160784F281DD1A07856281AD1E078DB
:102EF0009FED138A4C280ED1B0EE480A00F06CF812
:102F000020784D280ED160784F280BD1A07800E0B2
:102F100008E0562806D1E078522803D1B0EE480ADE
:102F200000F090F8A868032803DB0020A8600220C6
:102F30006870BDEC028B70BD3403002000000020DF
:102F400000000000FF23014604220148FEF7E8BF0D
:102F50007C030020FF23014604220148FEF7E0BF66
:102F6000C4030020FDF790FEFFF776FAFFF760F844
:102F7000FFF7DCF8FFF742F9FFF78EF9FFF7C4F926
:102F8000FFF7AEF8FFF7F2F9FFF70CFAFFF726FAB2
:102F9000FFF740FAFFF716F800F08AF8FCE77047F1
:102FA00070470000DFED0A0A0A4B00B560EE200A08
:102FB00093E80700B0EE600AFFF7F1FF0C33B0EEC4
:102FC000600A93E807005DF804EBFFF7E8BF000034
:102FD0000000B442D405002010B5164CF0EE400AB3
:102FE0009FED130A94E8070020EE800AFFF7D7FF51
:102FF0000C349FED110A94E8070020EE800A0C3C87
:10300000FFF7CDFF10EE900AFDF7A1F99FED0B1B26
:1030100053EC112BFDF729F9FDF7ACF9183400EE4C
:10302000100A94E80700BDE81040FFF7B8BF0000A1
:10303000000070C2D4050020000070427B14AE472F
:10304000E1FA494010B5164CF0EE400A9FED130A24
:1030500094E8070020EE800AFFF7A1FF0C349FEDF3
:10306000110A94E8070020EE800A0C3CFFF797FF56
:1030700010EE900AFDF76BF99FED0B1B53EC112B33
:10308000FDF7F3F8FDF776F9183400EE100A94E82E
:103090000700BDE81040FFF782BF0000000070424B
:1030A000D4050020000070C27B14AE47E1FA49C08D
:1030B00010B500F0D7F94FF4FA70FDF7C7FCFF2305
:1030C000052204A10548FEF72BFFBDE8104000F0E3
:1030D00017B900005354415254000000340300203B
:1030E00070B51E4D2DED028B9FED1B8A95E80700F4
:1030F000B0EE480AFFF753FF194CB0EE480A94E8C7
:103100000700FFF74CFF174EB0EE480AD6E9020160
:1031100000F07AF994E80700B0EE480AFFF73FFFA5
:1031200095E80700B0EE480AFFF739FF94E807007A
:10313000B0EE480AFFF733FFD6E90201B0EE480AC5
:1031400000F062F994E80700B0EE480ABDEC028B8B
:10315000BDE87040FFF723BF000000000406002018
:10316000F80500201C00002070B51E4D2DED028BCF
:103170009FED1B8A95E80700B0EE480AFFF70FFFA6
:10318000194CB0EE480A94E80700FFF708FF174E05
:10319000B0EE480AD6E9020100F036F994E80700DB
:1031A000B0EE480AFFF7FBFE95E80700B0EE480ACC
:1031B000FFF7F5FE94E80700B0EE480AFFF7EFFED0
:1031C000D6E90201B0EE480A00F01EF994E80700C3
:1031D000B0EE480ABDEC028BBDE87040FFF7DFBEE1
:1031E0000000000004060020F80500201C0000205C
:1031F00070B51E4D2DED028B9FED1B8A95E80700E3
:10320000B0EE480AFFF7CBFE194CB0EE480A94E83E
:103210000700FFF7C4FE174EB0EE480AD6E90201D8
:1032200000F0F2F894E80700B0EE480AFFF7B7FEA6
:1032300095E80700B0EE480AFFF7B1FE94E80700F2
:10324000B0EE480AFFF7ABFED6E90201B0EE480A3D
:1032500000F0DAF894E80700B0EE480ABDEC028B03
:10326000BDE87040FFF79BBE000000000406002090
:10327000F80500201C00002070B51E4D2DED028BBE
:103280009FED1B8A95E80700B0EE480AFFF787FE1E
:10329000194CB0EE480A94E80700FFF780FE174E7D
:1032A000B0EE480AD6E9020100F0AEF894E8070053
:1032B000B0EE480AFFF773FE95E80700B0EE480A43
:1032C000FFF76DFE94E80700B0EE480AFFF767FECF
:1032D000D6E90201B0EE480A00F096F894E807003B
:1032E000B0EE480ABDEC028BBDE87040FFF757BE58
:1032F0000000000004060020F80500201C0000204B
:1033000010B5364C00202DED028B21789FED348ACC
:10331000092931D2DFE801F0300511162A33474D73
:103320006000B2EE040AFFF73DFEFF2305222DA147
:103330002E48FEF7F5FD02204EE0617801291BD1F1
:10334000032117E0B2EE040AFFF72CFEB0EE480AA4
:1033500000F0BCF8B2EE0E0AFFF724FEFF230522B0
:1033600023A12248FEF7DCFD042035E06178022924
:1033700002D1052121706070BDEC028B10BDB2EE50
:10338000040AFFF70FFEB0EE480A00F09FF8B2EE15
:103390000E0AFFF707FEFF23052217A11348FEF7C9
:1033A000BFFD062018E06178022902D107212170B3
:1033B0006070B2EE040AFFF7F5FDB0EE480A00F0C7
:1033C00085F8B2EE0E0AFFF7EDFDFF2305220CA1F2
:1033D0000648FEF7A5FD08202070CDE7000000207C
:1033E0000000B4425343414E460000003403002025
:1033F0004C574C51310000004C434A47310000000B
:103400004C5A435131000000DFED100A13489FED84
:10341000111A20EE200ADFED0E0A0F4A006869B18A
:1034200001290AD1C0EE201A31EE810A82ED010A8B
:10343000BDEEC00A10EE101A41637047C0EE201AAC
:1034400031EE810A82ED000AF2E700000000FA4442
:10345000000034430000FA431C0000201402002046
:1034600070470000124810B507C8FFF799FD1148D2
:1034700007C8FFF795FD104807C8FFF791FD0F4CEF
:10348000D4E90001FFF7ECFF002060600C4803C89E
:10349000FFF7E6FF0B4CD4E90001FFF7E1FF012045
:1034A0006060094807C8BDE81040FFF779BD00001B
:1034B000D4050020E0050020EC05002014000020C9
:1034C0000C00002024000020F8050020B0EE401A77
:1034D0009FED0F0A0F4B00B561EE000A93E807005D
:1034E000B0EE600AFFF75BFD0C339FED0B0A93E82B
:1034F000070021EE000A0C3BFFF751FD1833B0EE38
:10350000600A93E807005DF804EBFFF748BD000090
:1035100000007042D4050020000070C200061016A2
:103520000006101600000000000000000102030465
:103530000607080900000000010203045C350008CA
:10354000000000203C000000D22D00089835000843
:103550003C000020D4090000E22D00080000010218
:103560000301020300000000000000000000000052
:10357000000000000000000000000000000000004B
:10358000000000000000000001000000100000002A
:08359000000000000024F4001B
:040000050800018965
:00000001FF
